:100000000C9402020C941F020C941F020C941F0209
:100010000C941F020C941F020C941F020C941F02DC
:100020000C941F020C9406130C941F020C9453148E
:100030000C941F020C941F020C941F020C941F02BC
:100040000C941F020C941F020C94B3100C946C10AF
:100050000C941F020C941F020C941F020C941F029C
:100060000C941F020C941F02084AD73B3BCE016E32
:1000700084BCBFFDC12F3D6C74319ABD56833DDAFF
:100080003D00C77F11BED9E4BB4C3E916BAAAABE0E
:10009000000000803F05A84CCDB2D44EB93836A937
:1000A000020C50B9918688083CA6AAAA2ABE000074
:1000B00000803F0D0A00496E76616C696420636FB1
:1000C0006D6D616E640D0A004D6F64616C20677226
:1000D0006F75702076696F6C6174696F6E0D0A00C0
:1000E000466C6F6174696E6720706F696E7420650D
:1000F00072726F720D0A00556E737570706F727444
:1001000065642073746174656D656E740D0A0045D5
:100110007870656374656420636F6D6D616E6420D3
:100120006C65747465720D0A00426164206E756DB1
:1001300062657220666F726D61740D0A006572727D
:100140006F723A20006F6B0D0A000D0A27242720DA
:10015000746F2064756D702063757272656E7420A3
:1001600073657474696E67730D0A000D0A477262D5
:100170006C20302E3861005761726E696E673A20CC
:100180004661696C656420746F2072656164204506
:100190004550524F4D2073657474696E67732E20FD
:1001A0005573696E672064656661756C74732E0D96
:1001B0000A0053746F726564206E657720736574EE
:1001C00074696E670D0A00556E6B6E6F776E2070E6
:1001D0006172616D657465720D0A005374657020FB
:1001E00070756C7365206D757374206265203E3D7B
:1001F0002033206D6963726F7365636F6E64730D76
:100200000A0053746570732F6D6D206D75737420C3
:100210006265203E20302E300D0A000D0A2724781A
:100220003D76616C75652720746F2073657420704E
:100230006172616D65746572206F72206A75737486
:100240002027242720746F2064756D7020637572D9
:1002500072656E742073657474696E67730D0A003D
:10026000202846756C6C204C6F636B2028312D65FF
:100270006E61626C652F302D44697361626C652913
:10028000203D2000290D0A243939203D2000202856
:10029000636F726E6572696E67206A756E637469EA
:1002A0006F6E20646576696174696F6E20696E2077
:1002B0006D6D29002028616363656C6572617469E6
:1002C0006F6E20696E206D6D2F7365635E32290D30
:1002D0000A2439203D2000290D0A2438203D200021
:1002E00020287374657020706F727420696E766553
:1002F0007274206D61736B2E2062696E6172792059
:100300003D200020286D6D2F617263207365676D3D
:10031000656E74290D0A2437203D200020286D6D5C
:100320002F6D696E2064656661756C7420736565F8
:100330006B2072617465290D0A2436203D2000204F
:10034000286D6D2F6D696E2064656661756C742013
:10035000666565642072617465290D0A2435203D47
:10036000200020286D6963726F7365636F6E64731C
:1003700020737465702070756C7365290D0A2434C0
:10038000203D2000202873746570732F6D6D207AD6
:10039000290D0A2433203D200020287374657073D2
:1003A0002F6D6D2079290D0A2432203D2000202850
:1003B00073746570732F6D6D2078290D0A243120B8
:1003C0003D20002430203D2000494E46494E4954EE
:1003D000594E414ECDCCCC3D0AD7233C17B7D1382E
:1003E00077CC2B329595E6241FB14F0A00002041AF
:1003F0000000C84200401C4620BCBE4CCA1B0E5A1E
:10040000AEC59D7411241FBECFEFD8E0DEBFCDBFB7
:1004100011E0A0E0B1E0E6E7F5E502C005900D923D
:10042000A631B107D9F716E0A6E1B1E001C01D92EF
:10043000AE3EB107E1F70E9499030C94B92A0C94DF
:100440000000A0E0B0E0E7E2F2E00C94882AEC01C2
:100450005B016115710519F0FB0191838083F990AF
:100460008F2D90E00E94772A892BC9F7FDE2FF16B5
:1004700021F4F990EE24E39405C02BE2F21609F47E
:10048000F990EE248E0101501040C80169EC73E030
:1004900043E050E00E948103892B01F58E010E5F3D
:1004A0001F4FC8016CEC73E045E050E00E948103EF
:1004B000892B19F48E01095F1F4FA114B10419F0A3
:1004C000F50111830083E0FC04C070E090E080E857
:1004D00014C070E090E080E86FEF08C1C80161EDE2
:1004E00073E043E050E00E948103892B69F4A1147A
:1004F000B10429F470E090E080EC6FE7F7C0229639
:10050000F501D183C083F6CF8824992440E050E0E0
:1005100060E070E0EF2DE053EA30A0F5F2E0EF2A62
:100520008E2D90E09C0128703070E2FE06C0232BD7
:1005300079F50894811C911C2BC0232B19F0089489
:1005400081089108DB01CA0112E0880F991FAA1FD8
:10055000BB1F1A95D1F7480F591F6A1F7B1F440F05
:10056000551F661F771F4E0F511D611D711D4839A4
:1005700029E9520729E9620729E1720748F084E076
:10058000E82A06C0EE3F31F4E3FC39C098E0E92ADE
:10059000F990C0CFE53311F0E53189F529912D327D
:1005A00019F4E0E1EE2A05C02B3219F081E090E069
:1005B00003C0299182E090E0E22FE053EA3018F086
:1005C000C81BD90B1CC020E030E0FCE020383F07FE
:1005D0005CF4C901880F991F880F991F280F391FD4
:1005E000220F331F2E0F311DE991E053EA3068F3DB
:1005F000E4FE03C0309521953F4F820E931ECE2C12
:10060000DD24E1FE07C0A114B10421F02197F5011A
:10061000D183C083CB01BA010E94DE267B018C010D
:10062000F3E0CF22DD2423E0C216D10421F417FB2E
:10063000109517F9109557016801C801B70120E01E
:1006400030E040E050E00E943E26882309F44AC092
:1006500097FE0DC028EEE22E23E0F22E90948194B6
:1006600091089394C0E2D0E000E010E012C090E066
:10067000E92E94E0F92EF6CFF701259135914591B9
:100680005491C601B5010E941E295B016C018C1AB0
:100690009D0A8C169D0684F7D595C7950F5F1F4F51
:1006A0000630110529F08CEF9FEFE80EF91EF1CF0F
:1006B000C501D6017C018D018C2D880F8D2D881FE1
:1006C0008F3F51F0C601B50120E030E040E050E03E
:1006D0000E943E26882331F482E290E09093ED065A
:1006E0008093EC067E2D9F2D802F612F272F392F91
:1006F000482F562FB901CA01CDB7DEB7ECE00C94F4
:10070000A42AFB01DC014150504088F08D918134D6
:100710001CF08B350CF4805E659161341CF06B35F8
:100720000CF4605E861B611171F3990B0895881BB0
:10073000FCCF6F927F928F929F92AF92BF92CF9297
:10074000DF92EF92FF920F931F93DF93CF93CDB77A
:10075000DEB768970FB6F894DEBF0FBECDBF60E876
:1007600075E280E090E00E941E100E941D137894B4
:10077000EEEDF5E08AE2DF011D928A95E9F781E06E
:100780008093DE055E010894A11CB11C9DE0C92E7A
:10079000D12CCC0EDD1E4F018AE2682E7724739493
:1007A0008091DE05882309F453C0D501E1EEF5E020
:1007B0008CE001900D928150E1F7D601EEEEF5E06C
:1007C0008CE001900D928150E1F7F401862D119299
:1007D0008A95E9F70E94AE100E94981A0E940E11A5
:1007E0000E941F230E9458080E94FB0F0E94812331
:1007F0000E943F14A1EEB5E0F5018CE001900D924E
:100800008150E1F7AEEEB5E0F6018CE001900D927B
:100810008150E1F769817A818B819C812D813E81B4
:100820004F815885E984FA840B851C850E94050850
:1008300069817A818B819C812D813E814F81588590
:10084000E984FA840B851C850E94901B7092E00558
:100850000E9468120E949F12A3CFEF92FF920F9303
:100860001F930E94EF2360E070E080E090E020E0C2
:1008700030E040E050E0EE24FF2487010E94901B0E
:100880001F910F91FF90EF900895EF92FF920F93B9
:100890001F93CF93DF937B018C0120E030E040EA8F
:1008A00051E40E941E290E941B270E94B226EB01E0
:1008B0000E940223C801B70120E030E04AE754E477
:1008C0000E941E297B018C0182E390E0C89FB00149
:1008D000C99F700DD89F700D112480E090E00E9498
:1008E000DE269B01AC01C801B7010E9464250E946D
:1008F0001B270E94B226DC01CB010E94332300E9B2
:1009000011E00EC00E9468128091DE05882351F428
:1009100084EF91E0F8013197F1F70197D9F721972A
:10092000209781F7DF91CF911F910F91FF90EF906A
:1009300008954F925F926F927F928F92AF92BF9283
:10094000CF92DF92EF92FF920F931F93DF93CF939B
:1009500000D000D0CDB7DEB72B013C0129833A830C
:100960004B835C830E9468128091DE05882391F49A
:100970000E94861B8823B1F7C301B20129813A8105
:100980004B815C810E94171F8091E005882311F044
:100990000E94CF130F900F900F900F90CF91DF9187
:1009A0001F910F91FF90EF90DF90CF90BF90AF908D
:1009B0008F907F906F905F904F9008952F923F920D
:1009C0004F925F926F927F928F929F92AF92BF925F
:1009D000CF92DF92EF92FF920F931F93DF93CF930B
:1009E000CDB7DEB7CE54D0400FB6F894DEBF0FBE01
:1009F000CDBF3C017EAF6DAF21965FAF4EAF21976B
:100A000022962FAF229723960FAF23972496EFAE0F
:100A100024972896ACAEBDAECEAEDFAE2897299611
:100A20008FAE2997E22EFF24EE0CFF1CEE0CFF1C6C
:100A30004E0D5F1D5CAF4BAFDA012D903D904D9098
:100A40005C90FC01EE0DFF1DC201B10120813181DE
:100A5000428153810E94652569AB7AAB8BAB9CAB1D
:100A600010E0000F111F000F111F2196EEADFFAD1A
:100A70002197E00FF11FFAAFE9AFA080B180C280EB
:100A8000D380F301E00FF11FC601B5012081318150
:100A9000428153810E9465256DA77EA78FA798ABE1
:100AA00024962FAD2497E22FF0E0EE0FFF1FEE0FFC
:100AB000FF1F6E0E7F1ED3018D919D910D90BC91F5
:100AC000A02D8DAB9EABAFABB8AF2DAD3EADE20F61
:100AD000F31F60817181828193812DA93EA94FA965
:100AE00058AD0E94642569A77AA78BA79CA7D2015D
:100AF000C101B0588DA39EA3AFA3B8A7A6019501CD
:100B0000505829A33AA34BA35CA34DAD5EADE40EB0
:100B1000F51ED7016D917D918D919C9129A93AA9DE
:100B20004BA95CA90E9464253B014C01EDADFEADD3
:100B30000E0F1F1FD8016D917D918D919C912DA558
:100B40003EA54FA558A90E9464255B016C016DA1CB
:100B50007EA18FA198A5A60195010E941E297B0167
:100B60008C0169A17AA18BA19CA1A40193010E948F
:100B70001E299B01AC01C801B7010E9464251B011D
:100B80002C016DA17EA18FA198A5A40193010E94C3
:100B90001E297B018C0169A17AA18BA19CA1A601D0
:100BA00095010E941E299B01AC01C801B7010E945A
:100BB00065259B01AC01C201B1010E94D8255B01F2
:100BC0006C0120E030E040E050E00E943E268823A7
:100BD00054F4C601B5012BED3FE049EC50E40E940E
:100BE00065255B016C01A8968FADA897882351F00D
:100BF000C601B5012BED3FE049EC50E40E946425AD
:100C00005B016C01C601B501A7962CAD3DAD4EADA3
:100C10005FADA7970E941E2929A53AA54BA55CA503
:100C20000E9459287B018C0120E030E040E050E038
:100C30000E943E26882309F4CEC1C801B701209145
:100C4000DF063091E0064091E1065091E2060E94F5
:100C500045260E941B270E94B22678A36F8F2996F3
:100C6000BFAD2997BB23A1F080E090E00E94DE2673
:100C70009B01AC0128966CAD7DAD8EAD9FAD2897E4
:100C80000E941E2928966CAF7DAF8EAF9FAF28972C
:100C90002F8D38A1B90180E090E00E94DE267B0113
:100CA0008C01C601B501A80197010E9445266B8FF2
:100CB0007C8F8D8F9E8F69A57AA58BA59CA5A80199
:100CC00097010E9445266F8B788F898F9A8F6B8D45
:100CD0007C8D8D8D9E8D20E030E040E05FEB0E94AA
:100CE0001E292B8D3C8D4D8D5E8D0E941E2920E08E
:100CF00030E040E85FE30E9465256B8B7C8B8D8B39
:100D00009E8B24963FAD2497E32FF0E0EE0FFF1F5C
:100D1000EE0FFF1FCE010196E80FF91F2DA93EA986
:100D20004FA958AD208331834283538341E050E083
:100D30005E874D8766242296BFAD2297AB2FB0E029
:100D4000AA0FBB1FAA0FBB1FA80FB91F2B96BFAFBF
:100D5000AEAF2B9723963FAD2397232F30E0220F82
:100D6000331F220F331F280F391F2D963FAF2EAF91
:100D70002D972F96FFAFEEAF2F9707C148E146158D
:100D80000CF446C06DA17EA18FA198A52B8D3C8D42
:100D90004D8D5E8D0E941E297B018C0169A17AA177
:100DA0008BA19CA12B893C894D895E890E941E29BB
:100DB0009B01AC01C801B7010E9465257B018C0134
:100DC0006DA17EA18FA198A52B893C894D895E8953
:100DD0000E941E295B016C0169A17AA18BA19CA1D3
:100DE0002B8D3C8D4D8D5E8D0E941E299B01AC018B
:100DF000C601B5010E9464256DA37EA38FA398A7A9
:100E00006394C701D80189A39AA3ABA3BCA361C013
:100E1000AD85BE85BD0180E090E00E94DE262B8D71
:100E20003C8D4D8D5E8D0E941E297B018C01C80179
:100E30000E9442266F87788B898B9A8BB701C801F5
:100E40000E94A1293B014C01EBADFCADE080F1809B
:100E50000281138117FB109517F91095A9ADBAAD52
:100E60002D903D904D905C90C801B7012F85388939
:100E700049895A890E941E295B016C01C201B10196
:100E8000A40193010E941E299B01AC01C601B5017A
:100E90000E9465256DA37EA38FA398A7C801B70103
:100EA000A40193010E941E297B018C01C201B101A2
:100EB0002F85388949895A890E941E299B01AC01D6
:100EC000C801B7010E94642569A37AA38BA39CA3E0
:100ED000662469A97AA98BA99CA92DA13EA14FA13D
:100EE00058A50E9465252B96EEADFFAD2B9760832C
:100EF0007183828393836DA57EA58FA598A929A16F
:100F00003AA14BA15CA10E9465252D96AEADBFAD67
:100F10002D976D937D938D939C9313972F96EEADA4
:100F2000FFAD2F9760817181828193812F89388DE8
:100F3000498D5A8D0E9465252F96AEADBFAD2F9776
:100F40006D937D938D939C93139769817A818B81A7
:100F50009C812D813E814F815885E984FA840B85DF
:100F60001C852896ACACBDACCEACDFAC28972996DE
:100F70008FAC29970E9499048091DE05882359F54A
:100F8000ED85FE853196FE87ED872D853E854F8D5B
:100F900058A12417350708F4F1CEADADBEAD6D9163
:100FA0007D918D919C91139714962D913D914D912A
:100FB0005C9117971896ED90FD900D911C911B97E1
:100FC0002896ACACBDACCEACDFAC289729968FACE4
:100FD00029970E949904C25BDF4F0FB6F894DEBFD9
:100FE0000FBECDBFCF91DF911F910F91FF90EF907A
:100FF000DF90CF90BF90AF909F908F907F906F9039
:101000005F904F903F902F900895AF92BF92CF92F4
:10101000DF92EF92FF920F931F9359016A010E9492
:10102000E0262091C8063091C9064091CA06509129
:10103000CB060E944526609325017093260180937C
:10104000270190932801C601B5010E94E026209156
:10105000CC063091CD064091CE065091CF060E942D
:1010600045266093290170932A0180932B01909368
:101070002C01C801B7010E94E0262091D0063091D2
:10108000D1064091D2065091D3060E944526609326
:101090002D0170932E0180932F01909330011F91A9
:1010A0000F91FF90EF90DF90CF90BF90AF90089599
:1010B00081E2E6E1F1E0DF011D928A95E9F7809196
:1010C000D6069091D706A091D806B091D906809304
:1010D0001D0190931E01A0931F01B0932001109257
:1010E000340191E09093350182E080933601909332
:1010F0001A0108952F923F924F925F926F927F92C2
:101100008F929F92AF92BF92CF92DF92EF92FF9217
:101110000F931F93DF93CF93CDB7DEB7A8970FB68A
:10112000F894DEBF0FBECDBF3C0119828CE0FE01FA
:101130003696DF01482F1D924A95E9F7FE01729617
:10114000DF011D928A95E9F7109216014424552477
:101150001CA21BA262E0262E312C2C0E3D1E01E0AB
:1011600053E0A52E42E0B42E31E0832E912C6BC1CA
:101170002E313105C9F12F313105D4F42431310537
:1011800084F421313105A4F52430310569F125308D
:1011900031051CF437FF2AC025C02A30310511F56E
:1011A00023C02631310554F12C313105D9F41CC04E
:1011B0002C3531058CF42A353105E4F42C33310516
:1011C0003CF426333105E4F42533310559F40CC0E1
:1011D0002035310539F40AC02C35310529F02F3579
:1011E000310554F010E00DC011E00BC012E009C051
:1011F00013E007C014E005C016E003C017E001C00B
:1012000019E02531310509F495C026313105A4F5E1
:101210002430310509F467C025303105A4F42130AC
:10122000310509F466C02230310524F4232B09F47A
:101230005DC0F4C02230310509F45EC023303105B1
:1012400009F0ECC05CC02231310509F462C02331E1
:1012500031054CF42A30310509F443C02131310500
:1012600009F0DCC04FC02331310509F459C02431E5
:10127000310509F0D3C05BC02035310509F46AC0DF
:1012800021353105ACF42533310509F459C0263335
:1012900031054CF42C31310509F44FC02E313105A4
:1012A00009F0BCC04AC02C3331050CF0B7C04BC0AC
:1012B0002C35310509F458C02D3531054CF42A354B
:1012C000310509F44BC02B35310509F0A7C049C0E1
:1012D0002D35310509F462C02E35310509F09EC067
:1012E00060C0B2E059C0E1E0EBA39AC010921701D0
:1012F00097C00093170194C0B092170191C0A092BB
:1013000017018EC01092340100933501B09236015E
:1013100087C010923401B09235010093360180C02D
:1013200000933401B09235011092360179C00093D8
:10133000190176C01092190173C0F3E0FBA370C0CD
:1013400041E04CA36DC02633310509F067C010920F
:10135000ED0566C054E05093170162C000931A0176
:101360005FC010921A015CC0C701B60120E030E0F6
:1013700040E251E40E941E290E94F8290E94AD26F5
:1013800083E06839780739F06959734009F046C03D
:10139000A5E0ABA345C0B4E0BBA342C000931801D5
:1013A0003FC0109218013CC02630310534F4233080
:1013B000310554F4772334F403C02E31310511F094
:1013C00010E003C015E001C018E023303105E1F062
:1013D000243031054CF42130310581F022303105C3
:1013E00084F4232B59F01AC025303105A1F02530A3
:1013F00031056CF02E31310589F403C000931B01D7
:101400000FC0B0921B010CC000931C0109C0EFEF8C
:10141000E0931C0105C010921C0102C0A0921601AD
:10142000112389F0940102C0220F331F1A95E2F7AD
:10143000C90184219521892B21F0F5E0F093160153
:1014400002C0422A532A9981F301E90FF11D10814C
:101450001123A9F0812F81548A3110F082E00DC050
:101460009F5F9983C301BE016F5F7F4FA1010E94FF
:101470004623892B09F085C581E080931601809170
:101480001601882309F064C5198299241DA21EA2A1
:1014900040E84FA35FEB58A70F2EF0E0AF2EF0E02F
:1014A000BF2EF0E0CF2EF0E0DF2EF02DAF8EB8A2F1
:1014B000C9A2DAA21E8E1E010894211C311C26E04E
:1014C000822E11C1EA80FB800C811D81C801B70109
:1014D00020E030E040E050E00E943E26181614F074
:1014E0008092160180911801882381F08091190162
:1014F000882309F4F2C0C801B70123E333E34BECBE
:1015000051E40E941E297B018C01E7C080911901E2
:10151000882351F0C801B70123E333E34BEC51E4D6
:101520000E941E297B018C01E0921D01F0921E0198
:1015300000931F0110932001CAC02A813B814C8176
:101540005D8180911901882351F0CA01B90123E31B
:1015500033E34BEC51E40E941E299B01AC01E12FC7
:10156000FF27E7FDF095E954F040EE0FFF1FEE0F67
:10157000FF1FE20DF31D218B328B438B548BA7C0D1
:101580006A817B818C819D810E94F8290E94B2260C
:101590006E8F9DC0AA80BB80CC80DD8098C06A81A0
:1015A0007B818C819D816F8F78A389A39AA3809181
:1015B0001901882309F48BC06F8D78A189A19AA1A4
:1015C00023E333E34BEC51E40E941E296F8F78A391
:1015D00089A39AA37CC0EA80FB800C811D81C8018D
:1015E000B70120E030E040E050E00E943E26882332
:1015F00014F480921601C801B7010E94AD267093C1
:1016000033016093320163C0EA80FB800C811D814D
:10161000C801B70120E030E040E050E00E943E26E3
:10162000882314F480921601C801B7010E94F8299A
:101630000E94B226609331014AC02A813B814C81CD
:101640005D8180911901882351F0CA01B90123E31A
:1016500033E34BEC51E40E941E299B01AC012E8325
:101660003F834887598771E0972A31C02A813B819F
:101670004C815D8180911901882351F0CA01B90123
:1016800023E333E34BEC51E40E941E299B01AC01A0
:101690002A873B874C875D8782E0982A18C02A8179
:1016A0003B814C815D8180911901882351F0CA01F1
:1016B000B90123E333E34BEC51E40E941E299B0163
:1016C000AC012E873F87488B598B94E0992A8DA1D6
:1016D0009EA1AFA1B8A57C018D01D801C701EDA2E3
:1016E0009EA3AFA3B8A79981F301E90FF11D108163
:1016F0001123A9F0812F81548A3110F082E00DC0AE
:101700009F5F9983C301B101AE014E5F5F4F0E949D
:101710004623892B09F047C481E08093160180910C
:101720001601882309F014C480911C0140913201F4
:1017300050913301662757FD6095762F992787FDD5
:1017400090950E940310ABA1A33009F457C0A430B8
:1017500030F4A13061F0A23009F046C118C0BBA13D
:10176000B43009F4E2C0B53009F03EC134C1C6015D
:10177000B50120E030E040E050E00E943E268823A2
:101780000CF4D5C0C601B5010E9445042DC1EE8DF3
:10179000E23049F4C601B5010E94F8290E94AD2645
:1017A0006130710521F083E0809316011CC19920FE
:1017B00009F4BDC0AE014A5F5F4FEEEEF5E020E0F8
:1017C00030E0692D70E0CB01022E02C0959587951F
:1017D0000A94E2F780FF09C0DA01ED90FD900D91C7
:1017E0001C91E082F182028313832F5F3F4F4C5F95
:1017F0005F4F34962330310531F7F5C0992009F455
:101800008AC08E010A5F1F4F85E2C82E81E0D82E64
:10181000BAEFAB2EB5E0BB2EEE24FF24892C992421
:10182000C4010E2C02C0959587950A94E2F780FFBB
:1018300041C080911A01882351F18091ED0590E01B
:10184000FC01EE0FFF1FE80FF91FEE0DFF1DEE0F5D
:10185000FF1FEE0FFF1FE251FA4F608171818281FD
:101860009381F50120813181428153810E94652558
:101870009B01AC01D8016D917D918D919C910E944D
:101880006525F80160837183828393831DC0D8012D
:101890006D917D918D919C91F601208131814281E4
:1018A00053810E946525D8016D937D938D939C9300
:1018B00013970AC0F60180819181A281B381F8015A
:1018C00080839183A283B3830894E11CF11C0C5F95
:1018D0001F4F44E050E0C40ED51EA40EB51E53E0C9
:1018E000E516F10409F09CCF6E817F81888599858A
:1018F0002A853B854C855D85EE84FF84088919899E
:10190000A090DA06B090DB06C090DC06D090DD0631
:1019100088240E9499040E942D048CE0E5E2F1E005
:10192000DF011D928A95E9F75EC0992021F486E0D7
:101930008093160159C065E2A62E61E0B62E56E0EE
:10194000C52ED12CCC0EDD1E4AEFE42E45E0F42E40
:1019500000E010E0892C9924C401002E02C0959566
:1019600087950A94E2F780FF28C08091ED0590E00A
:10197000FC01EE0FFF1FE80FF91FE00FF11FEE0F44
:10198000FF1FEE0FFF1FE251FA4FD5016D917D91C0
:101990008D919C9120813181428153810E946425E7
:1019A000F60120813181428153810E946425D70153
:1019B0006D937D938D939C9313970F5F1F4FE4E07E
:1019C000F0E0AE0EBF1ECE0EDF1EEE0EFF1E033089
:1019D000110511F608C08CE0EAEFF5E0DF011D9279
:1019E0008A95E9F701C0992442FC03C0992009F4C3
:1019F000A3C280911801882399F06DA17EA18FA1C7
:101A000098A520E030E040E050E00E943E26882388
:101A10003CF480911701843019F086E08093160120
:101A2000BCA1BB2339F080911701823018F086E009
:101A30008093160180911601882309F089C28E01D6
:101A40000A5F1F4F9AEFA92E95E0B92E85E2C82EA6
:101A500081E0D82EEE24FF24692C7724C3010E2CBC
:101A600002C0959587950A94E2F780FF45C0ECA1E6
:101A7000EE2309F04BC080911A01882359F180911F
:101A8000ED0590E0FC01EE0FFF1FE80FF91FEE0DD2
:101A9000FF1DEE0FFF1FEE0FFF1FE251FA4F608197
:101AA000718182819381D5012D913D914D915C9100
:101AB0000E9465259B01AC01F801608171818281E2
:101AC00093810E946525D8016D937D938D939C939E
:101AD00013971CC0F8016081718182819381D601C6
:101AE0002D913D914D915C910E946525F801608397
:101AF0007183828393830AC0F60180819181A281E0
:101B0000B381F80180839183A283B3830894E11C9D
:101B1000F11C0C5F1F4F44E050E0A40EB51EC40E34
:101B2000D51E53E0E516F10409F098CF8091170116
:101B3000843048F4823008F04CC0882359F081305A
:101B400009F0EDC120C0843009F0E9C1992009F401
:101B5000E6C18BC0992009F488C06E817F81888599
:101B600099852A853B854C855D85EE84FF840889AF
:101B70001989A090DA06B090DB06C090DC06D09000
:101B8000DD06882423C0992009F46FC06E817F810F
:101B9000888599852A853B854C855D85EE84FF8403
:101BA0000889198980901801882061F4A0911D018D
:101BB000ADA3B0911E01BEA3E0911F01EFA3F09170
:101BC0002001F8A7ADA0BEA0CFA0D8A40E94990480
:101BD000A6C181E090E00090360102C0880F991FF5
:101BE0000A94E2F78095982209F43FC06F8D78A19E
:101BF00089A19AA120E030E040E050E00E943E261A
:101C0000882309F043C0E0913401F0E0EE0FFF1F9C
:101C1000EE0FFF1F8E010F5F1F4FE00FF11FC188F6
:101C2000D288E388F488C701B60120E030E040E0C4
:101C300050E00E943E268823E1F48091350190E037
:101C4000880F991F880F991F080F191FD8015196E7
:101C50006D917D918D919C91549720E030E040E012
:101C600050E00E943E26882321F486E080931601EE
:101C700056C16F8D78A189A19AA120E030E040E0A3
:101C800050E00E943E26882309F4F2C0E09134011E
:101C9000F0E0EE0FFF1FEE0FFF1F8E010F5F1F4FD3
:101CA000D801AE0FBF1FEA5EFE4F15966D917D9174
:101CB0008D919C91189727853089418952890E947E
:101CC00064251B012C01E0913501F0E0EE0FFF1FB0
:101CD000EE0FFF1F0E0F1F1FEA5EFE4FD801159675
:101CE0006D917D918D919C911897278530894189BF
:101CF00052890E9464253B014C018CE0FE017296E2
:101D0000DF011D928A95E9F76F8D78A189A19AA1CB
:101D100020E030E040E850E40E941E292F8D38A1D9
:101D200049A15AA10E941E297B018C01C201B10167
:101D3000A20191010E941E299B01AC01C801B701BB
:101D40000E9464257B018C01C401B301A4019301AD
:101D50000E941E299B01AC01C801B7010E946425A5
:101D60000E94AB297B018C01C201B101A401930146
:101D70000E9459289B01AC0117FB109517F910958B
:101D8000C801B7010E9445266B017C01A70196019D
:101D90000E94FF29882321F084E080931601D8C097
:101DA00080911701833021F4F7FAF094F7F8F0945A
:101DB0006F8D78A189A19AA120E030E040E050E049
:101DC0000E943E2688236CF4F7FAF094F7F8F0941A
:101DD0004F8D58A169A17AA170584F8F58A369A35C
:101DE0007AA300913401A02EBB24AA0CBB1CAA0C20
:101DF000BB1C8E010F5F1F4FA00EB11EC401B301AB
:101E0000A70196010E941E299B01AC01C201B101EC
:101E10000E94642520E030E040E05FE30E941E293C
:101E2000D50151966D937D938D939C93549780919A
:101E3000350190E0880F991F880F991F080F191F0F
:101E4000C201B101A70196010E941E299B01AC01AC
:101E5000C401B3010E94652520E030E040E05FE36B
:101E60000E941E29F801618B728B838B948B15C0A5
:101E7000E0913501F0E0EE0FFF1FEE0FFF1FEC0FBA
:101E8000FD1F2289338944895589C701B6010E9403
:101E900059286F8F78A389A39AA390911701209155
:101EA000340100913501E0903601809018018820BE
:101EB00061F4F0911D01FDA340911E014EA35091CC
:101EC0001F015FA36091200168A700D000D00F928E
:101ED000EDB7FEB731964F8D58A169A17AA1ADB784
:101EE000BEB711964D935D936D937C93149780E0EC
:101EF000923009F481E0848385E291E0BE016A5F5B
:101F00007F4FAE014E5E5F4FADA0BEA0CFA0D8A464
:101F10000E94DE040F900F900F900F900F90809111
:101F200016018823A9F4A5E2B1E0FE0136968CE003
:101F300001900D928150E1F780911B01882331F0CF
:101F40000E9402231092E00510921B01809116015D
:101F5000A8960FB6F894DEBF0FBECDBFCF91DF912C
:101F60001F910F91FF90EF90DF90CF90BF90AF90B7
:101F70009F908F907F906F905F904F903F902F90A9
:101F80000895CA80DB80EC80FD80C701B6010E9405
:101F9000F8290E94AD269B01173409F4E9C81D34C5
:101FA00009F051CA01CA123509F4F9CA133584F48B
:101FB0001C343CF419340CF0C0CA163409F087CB39
:101FC00081CA1C3409F4DCCA103509F080CBE2CA9E
:101FD000183509F432CB19353CF4133509F4FBCA32
:101FE000143509F074CB10CB193509F43FCB1A35F1
:101FF00009F06DCB54CB10923701389A279A40984C
:10200000089540980895CF93DF93EC0180913701B4
:1020100090E0C817D90779F00E940223209741F079
:102020001C161D0614F42F9801C02F9A409A01C067
:102030004098C0933701DF91CF910895EF92FF92BE
:102040000F931F937B018C0122E030E040E050E0D1
:102050000E945C2A205C3D4B404F5F4FCA01B90192
:10206000A80197010E945C2A215030403093C5009E
:102070002093C400E0ECF0E080818D7F8083E1EC70
:10208000F0E08081806180838081886080838081AE
:10209000806880831F910F91FF90EF900895282F03
:1020A000E0913A019E2F9F5F903431F490E004C09C
:1020B0008091070684FD0FC080913B019817C1F302
:1020C000F0E0E857F94F208390933A018091C100E6
:1020D00080628093C10008951F920F920FB60F92F5
:1020E00011248F939F93EF93FF9380913B01E82FEF
:1020F000F0E0E857F94F90819093C600982F9F5FCA
:10210000903409F490E090933B0180913A01981744
:1021100029F48091C1008F7D8093C100FF91EF91E0
:102120009F918F910F900FBE0F901F9018959091D7
:10213000390180913801891711F4EFEF0DC0E92FB3
:10214000F0E0E85FF94FE081892F8F5F80933901DC
:10215000803811F4109239018E2F08958091380142
:102160008093390108951F920F920FB60F92112498
:102170002F933F934F935F936F937F938F939F938F
:10218000AF93BF93EF93FF932091C6002132A1F04C
:10219000223218F4283101F513C02F3319F02E37ED
:1021A000D9F404C080910706816003C080910706BE
:1021B00082608093070621C0809107068860F9CF6E
:1021C0008091070684FD04C00E94F0120E94011055
:1021D000809107068061EDCFE09138019E2F9F5FCF
:1021E000903809F490E080913901981731F0F0E0CF
:1021F000E85FF94F208390933801FF91EF91BF91F1
:10220000AF919F918F917F916F915F914F913F918E
:102210002F910F900FBE0F901F9018958BE691E0B5
:102220000E9449258AE491E00E94492510926E019E
:1022300010926F010895CF93DF93EC01009719F48A
:1022400085E491E036C08DE391E00E944925C330DA
:10225000D105D1F0C430D1053CF4C130D10571F0C5
:10226000C230D105E9F40DC0C530D10599F0C530B3
:10227000D1056CF0C630D10599F40FC089E291E028
:1022800018C08FE091E015C087EF90E012C080EE9B
:1022900090E00FC088EC90E00CC086EB90E009C0A5
:1022A000BE01882777FD8095982F0E94FC2483EB40
:1022B00090E00E944925DF91CF910895FC01808133
:1022C000843221F4CF010E94031B0895CF010E94A4
:1022D0007A080895DF93CF93CDB7DEB72C970FB66A
:1022E000F894DEBF0FBECDBFDE011196E1EEF5E042
:1022F0008CE001900D928150E1F780E091E00E9426
:10230000572569817A818B819C810E94E0262091EA
:10231000C8063091C9064091CA065091CB060E946A
:1023200045260E948D2487E091E00E9457256D810B
:102330007E818F8198850E94E0262091CC06309185
:10234000CD064091CE065091CF060E9445260E94B0
:102350008D2487E091E00E94572569857A858B85D9
:102360009C850E94E0262091D0063091D1064091B4
:10237000D2065091D3060E9445260E948D2489E002
:1023800091E00E94572569817A818B819C810E940E
:10239000E0262091C8063091C9064091CA065091A6
:1023A000CB060E9445262091ED0530E0F901EE0FA5
:1023B000FF1FE20FF31FEE0FFF1FEE0FFF1FE25292
:1023C000FA4F20893189428953890E9464252091DE
:1023D000FA053091FB054091FC055091FD050E94E6
:1023E00064250E948D2487E091E00E9457256D812D
:1023F0007E818F8198850E94E0262091CC063091C5
:10240000CD064091CE065091CF060E9445262091E0
:10241000ED0530E0F901EE0FFF1FE20FF31FEE0FA5
:10242000FF1FEE0FFF1FE252FA4F248935894689BC
:1024300057890E9464252091FE053091FF05409147
:102440000006509101060E9464250E948D2487E0B9
:1024500091E00E94572569857A858B859C850E942D
:10246000E0262091D0063091D1064091D2065091BD
:10247000D3060E9445262091ED0530E0F901EE0FCC
:10248000FF1FE20FF31FEE0FFF1FEE0FFF1FE252C1
:10249000FA4F208D318D428D538D0E9464252091FD
:1024A00002063091030640910406509105060E94F1
:1024B00064250E948D2482E191E00E9457252C968C
:1024C0000FB6F894DEBF0FBECDBFCF91DF91089558
:1024D0001F9380910706882381F180910706182FAA
:1024E00084FF04C081E08093DE0527C080FF07C021
:1024F0000E946A11809107068E7F8093070613FF62
:1025000007C00E94F41380910706877F8093070617
:1025100012FF07C00E940214809107068B7F8093F0
:10252000070611FF0AC00E94CF1381E08093E005E7
:10253000809107068D7F809307061F9108951F9352
:1025400011E046C02A3011F02D30E1F40E946812EB
:102550008091DE05882309F041C0E0916E01EE23F1
:1025600051F0F0E0E45CFE4F10828CE391E00E94B9
:102570005E1190E002C080E090E00E941B1110927A
:102580006E0106C080916F01882329F0293201F580
:1025900010926F011DC02132D8F02F32C9F02832BD
:1025A00019F410936F0114C090916E01913380F46F
:1025B000822F8156E92FF0E09F5F8A3120F4E45C9E
:1025C000FE4F205202C0E45CFE4F208390936E01C8
:1025D0000E949710282F8F3F09F0B4CF1F910895C4
:1025E00080916F008D7F80936F008AEF90E020E9EB
:1025F00031E0F9013197F1F70197D9F78091EB06B6
:10260000882311F4289A0895289808951F920F920C
:102610000FB60F9211248F939F939BB18091DE068A
:1026200084759B7A892B8BB91092B1009F918F9101
:102630000F900FBE0F901F9018958AB18C6F8AB9BA
:102640008BB183709091DE06892B8BB9209A809193
:1026500081008F7E809381008091810088608093CB
:102660008100809180008D7F809380008091800028
:102670008E7F80938000809180008F738093800094
:10268000809180008F7C809380001092B000109227
:10269000B1008091700081608093700080916F0024
:1026A0008D7F80936F008AEF90E020E931E0F9019F
:1026B0003197F1F70197D9F78091EB06882311F450
:1026C000289A0895289808959B01AC01203283E050
:1026D000380780E0480780E0580720F420E233E024
:1026E00040E050E060E070E788E399E30E943A2A16
:1026F000C901DA01803020E0920721E0A20720E042
:10270000B20738F4FC019C0140E050E060E070E06A
:1027100031C0803020E0920728E0A20720E0B20715
:10272000A8F473E0B695A795979587957A95D1F714
:10273000FC019C0140E050E063E0220F331F441F86
:10274000551F6A95D1F761E070E014C026E0B69598
:10275000A795979587952A95D1F7FC019C0140E0B4
:1027600050E086E0220F331F441F551F8A95D1F792
:1027700062E070E080918100962F9F5F887F982BA8
:1027800090938100F0938900E09388002093840166
:10279000309385014093860150938701089580917D
:1027A0000606882301F58091DF058823E1F481E0A6
:1027B000809306068091DE06809397018091D5066E
:1027C00090E0A0E0B0E00297A109B109880F991F3D
:1027D000AA1FBB1F819580939601289880916F0056
:1027E000826080936F0008958091DF05882349F40B
:1027F00080910606882329F01092E00581E08093FD
:10280000DF050895E0919401F09195013097A1F1D1
:102810006585768587859089209180013091810139
:102820004091820150918301621B730B840B950BC5
:102830000E94C71E10928C0110928D0110928E0181
:1028400010928F0160E070E080E090E00E946413DD
:1028500080E091E7A2E0B0E0809388019093890145
:10286000A0938A01B0938B01109280011092810194
:1028700010928201109283011092DF05089584E284
:10288000E0E7F1E0DF011D928A95E9F760E273E08D
:1028900080E090E00E9464131092950110929401E0
:1028A0001092980108951F920F920FB60F92112463
:1028B000EF92FF920F931F932F933F934F935F934A
:1028C0006F937F938F939F93AF93BF93CF93DF9338
:1028D000EF93FF9380919801882309F076C39BB111
:1028E00020919701822F887A9775892B8BB98BB1AC
:1028F0008B7A822B8BB9809196018093B20082E013
:102900008093B10081E08093980178948091940144
:1029100090919501892B09F094C00E94731BEC01E2
:102920009093950180939401009709F46EC0809173
:10293000DF058823D1F46BA17CA18DA19EA16093BA
:102940008C0170938D0180938E0190938F010E9472
:10295000641380E091E7A2E0B0E080938801909357
:102960008901A0938A01B0938B012BA53CA54DA5AD
:102970005EA5DA01C901B595A79597958795820F50
:10298000931FA41FB51F8093900190939101A09372
:102990009201B09393012D853E854F855889DA01C8
:1029A000C901B595A79597958795B095A0959095F0
:1029B00081959F4FAF4FBF4F8093700190937101EE
:1029C000A0937201B0937301809374019093750189
:1029D000A0937601B0937701809378019093790169
:1029E000A0937A01B0937B0120937C0130937D0109
:1029F00040937E0150937F011092800110928101DB
:102A000010928201109283011CC080916F008D7F13
:102A100080936F008AEF90E020E931E0F90131976F
:102A2000F1F70197D9F78091EB06882311F4289AE2
:102A300001C0289810920606809107068460809352
:102A40000706E0919401F0919501309709F4B4C222
:102A50002081209397014091700150917101609104
:102A600072017091730181819281A381B481480FB9
:102A7000591F6A1F7B1F409370015093710160932F
:102A80007201709373011416150616061706C4F525
:102A900024602093970180917C0190917D01A09109
:102AA0007E01B0917F01481B590B6A0B7B0B409351
:102AB000700150937101609372017093730123FF51
:102AC0000CC08091E1059091E205A091E305B091E1
:102AD000E4050197A109B1090BC08091E10590912E
:102AE000E205A091E305B091E4050196A11DB11D99
:102AF0008093E1059093E205A093E305B093E4058C
:102B00004091740150917501609176017091770147
:102B100085819681A781B085480F591F6A1F7B1F49
:102B2000409374015093750160937601709377011F
:102B30001416150616061706D4F520919701206184
:102B40002093970180917C0190917D01A0917E015D
:102B5000B0917F01481B590B6A0B7B0B40937401AA
:102B600050937501609376017093770125FF0CC037
:102B70008091E5059091E605A091E705B091E80503
:102B80000197A109B1090BC08091E5059091E60577
:102B9000A091E705B091E8050196A11DB11D8093B4
:102BA000E5059093E605A093E705B093E80540910D
:102BB00078015091790160917A0170917B01818552
:102BC0009285A385B485480F591F6A1F7B1F4093C8
:102BD00078015093790160937A0170937B01141608
:102BE000150616061706D4F5209197012064209348
:102BF000970180917C0190917D01A0917E01B0911F
:102C00007F01481B590B6A0B7B0B40937801509353
:102C1000790160937A0170937B0127FF0CC080914A
:102C2000E9059091EA05A091EB05B091EC050197BB
:102C3000A109B1090BC08091E9059091EA05A09125
:102C4000EB05B091EC050196A11DB11D8093E9053E
:102C50009093EA05A093EB05B093EC0520918001D9
:102C60003091810140918201509183012F5F3F4F4C
:102C70004F4F5F4F20938001309381014093820139
:102C80005093830185859685A785B08928173907D4
:102C90004A075B0708F08AC18091DF05882309F4A1
:102CA00070C020918401309185014091860150913E
:102CB00087018091880190918901A0918A01B0914A
:102CC0008B01280F391F4A1F5B1F20938801309307
:102CD000890140938A0150938B01213002EE300725
:102CE00004E0400700E0500708F466C12050324E6F
:102CF00044405040209388013093890140938A01D9
:102D000050938B0120918C0130918D0140918E0167
:102D100050918F0163A574A585A596A562177307C9
:102D200084079507E8F080916F008D7F80936F0096
:102D30008AEF90E020E931E0F9013197F1F701974E
:102D4000D9F78091EB06882311F4289A01C02898BE
:102D500010920606809107068460809307062CC1B6
:102D600079018A01E61AF70A080B190BC801B701A5
:102D7000E0928C01F0928D0100938E0110938F01EF
:102D80006CC087A590A9A1A9B2A9281739074A073D
:102D90005B0708F065C02091840130918501409166
:102DA0008601509187018091880190918901A091BD
:102DB0008A01B0918B01280F391F4A1F5B1F209396
:102DC00088013093890140938A0150938B0121300F
:102DD00002EE300704E0400700E0500708F4ECC0C2
:102DE0002050324E44405040209388013093890156
:102DF00040938A0150938B0183A594A5A5A5B6A500
:102E000020918C0130918D0140918E0150918F0164
:102E1000820F931FA41FB51F80938C0190938D0187
:102E2000A0938E01B0938F0127A930AD41AD52AD73
:102E300082179307A407B50740F020938C013093C5
:102E40008D0140938E0150938F0160918C017091A0
:102E50008D0180918E0190918F010E946413ACC00E
:102E600083A994A9A5A9B6A9281739074A075B071A
:102E700008F480C0281739074A075B0769F480E027
:102E800091E7A2E0B0E08093880190938901A0933C
:102E90008A01B0938B0190C020918401309185010B
:102EA000409186015091870180918801909189011C
:102EB000A0918A01B0918B01280F391F4A1F5B1F17
:102EC000209388013093890140938A0150938B01AC
:102ED000213012EE310714E0410710E0510708F4E9
:102EE0006BC02050324E44405040209388013093B4
:102EF000890140938A0150938B0120918C0130917C
:102F00008D0140918E0150918F018091900190919F
:102F10009101A0919201B091930182179307A407A8
:102F2000B50748F483A594A5A5A5B6A5281B390B1C
:102F30004A0B5B0B04C05695479537952795209310
:102F40008C0130938D0140938E0150938F0127A106
:102F500030A541A552A580918C0190918D01A09141
:102F60008E01B0918F0182179307A407B50708F06F
:102F70006CCF63CF27A930AD41AD52AD80918C01AC
:102F800090918D01A0918E01B0918F0182179307CE
:102F9000A407B50789F020938C0130938D014093ED
:102FA0008E0150938F01CA01B90157CF109295013C
:102FB000109294010E94641B809197019091DE060B
:102FC00089278093970110929801FF91EF91DF91EB
:102FD000CF91BF91AF919F918F917F916F915F91B1
:102FE0004F913F912F911F910F91FF90EF900F9074
:102FF0000FBE0F901F901895F999FECF92BD81BD1D
:1030000081E08FBB80B50895F894F999FECF92BD09
:1030100081BD81E08FBB40B54627842F992787FD6E
:103020009095262F30E082239323892B39F06F3F30
:1030300019F060BD84E006C084E104C0442321F09F
:1030400060BD84E28FBBF99A789408958F929F9225
:10305000AF92BF92CF92DF92EF92FF920F93DF93E6
:10306000CF9300D0CDB7DEB75C016B017A014A0186
:1030700000E01EC0002319F021E030E008C0202F3E
:10308000332727FD30952227330F221F3327F601E0
:1030900061916F01062F020F9C012F5F3F4F3A8312
:1030A00029830E94041808948108910889819A81D3
:1030B00081149104F9F6C7018A0D9B1D602F0E94AF
:1030C00004180F900F90CF91DF910F91FF90EF9028
:1030D000DF90CF90BF90AF909F908F900895CF9347
:1030E000DF93EC01FB019A0190E0B1E019C0F9997E
:1030F000FECFF2BDE1BDBFBBA0B5992319F081E0C1
:1031000090E008C0892F992787FD90958827990F0F
:10311000881F992731969A2F980FA99321503040F4
:103120002115310521F7460F571FF999FECF52BDE2
:1031300041BD81E08FBB80B520E030E0981711F4ED
:1031400021E030E0C901DF91CF91089580E090E067
:1031500064E00E94041881E090E068EC76E044E2CC
:1031600050E00E9426180895EF92FF920F931F934C
:10317000CF93DF93EC017A018B018530910509F43F
:103180005DC08630910554F483309105C1F18430DF
:1031900091050CF04AC097FF1AC095C08830910580
:1031A00009F467C0893091054CF48630910509F423
:1031B0004EC08730910509F086C052C08930910514
:1031C00009F46EC08336910509F07DC075C0CB014E
:1031D000BA0120E030E040E050E00E943E261816A0
:1031E0001CF082E092E076C0CC0FDD1FCC0FDD1F1B
:1031F000C853D94FE882F9820A831B8367C0CB0189
:10320000BA0120E030E040E450E40E943E268823EA
:103210001CF48BED91E05EC0C801B7010E948129CA
:103220000E94B2266093D50651C04093D6065093B3
:10323000D7066093D8067093D90648C04093DA0643
:103240005093DB066093DC067093DD063FC040932D
:10325000DF065093E0066093E1067093E20636C005
:10326000CB01BA010E94F8290E94B2266093DE06C3
:103270002DC0CB01BA0120E030E040E752E40E94CB
:103280001E2920E030E040E752E40E941E296093AE
:10329000E3067093E4068093E5069093E60616C075
:1032A000DB01CA01BF778093E7069093E806A093FD
:1032B000E906B093EA060AC0CB01BA010E94B22621
:1032C0006093EB0603C087EC91E004C00E94A6184F
:1032D00082EB91E00E944925DF91CF911F910F91E0
:1032E000FF90EF9008951F9380E090E00E94FC17FC
:1032F000182F843081F488EC96E061E070E044E2BD
:1033000050E00E946F1820E0892B09F421E081E051
:10331000282730E05EC0813021F588EC96E061E03E
:1033200070E04CE150E00E946F18892B09F44FC007
:1033300080E098ECAFE2B8E48093E3069093E40673
:10334000A093E506B093E6068DEC9CECACE4BDE3FF
:103350008093E7069093E806A093E906B093EA0607
:1033600031C08250823098F588EC96E061E070E0E0
:1033700044E250E00E946F18892B49F1123061F449
:103380008DEC9CECACE4BDE38093E7069093E806FB
:10339000A093E906B093EA066091E3067091E40613
:1033A0008091E5069091E60620E030E041E655E4A4
:1033B0000E941E296093E3067093E4068093E5065D
:1033C0009093E6060E94A61821E030E002C020E0BB
:1033D00030E0C9011F91089583EC93E00E944925D4
:1033E0006091C8067091C9068091CA069091CB067B
:1033F0000E948D248EEA93E00E9449256091CC06BC
:103400007091CD068091CE069091CF060E948D24BA
:1034100089E993E00E9449256091D0067091D10618
:103420008091D2069091D3060E948D2484E893E087
:103430000E9449256091D50670E080E090E00E94EE
:10344000FC2482E693E00E9449256091D6067091A3
:10345000D7068091D8069091D9060E948D248FE3DB
:1034600093E00E9449256091DA067091DB06809115
:10347000DC069091DD060E948D248CE193E00E9491
:1034800049256091DF067091E0068091E1069091F8
:10349000E2060E948D2483E093E00E94492560911A
:1034A000DE0670E080E090E00E94FC2480EE92E076
:1034B0000E9449258091DE060E94182587ED92E042
:1034C0000E9449256091E3067091E4068091E5062B
:1034D0009091E60620E030E041E655E40E94452662
:1034E0000E948D2484EB92E00E9449256091E706BA
:1034F0007091E8068091E9069091EA060E948D2479
:103500008EE892E00E94492584E892E00E944925D5
:1035100080E692E00E9449256091EB0670E080E031
:1035200090E00E94FC248BE192E00E9449250895DE
:103530000E947319892B09F065C087E791E00E940A
:10354000492584EF99EFACE3B4E48093C8069093E7
:10355000C906A093CA06B093CB068093CC0690937D
:10356000CD06A093CE06B093CF068093D00690935D
:10357000D106A093D206B093D3068EE18093D506F0
:1035800080E090E0AAEFB3E48093D6069093D7064C
:10359000A093D806B093D9068093DA069093DB0601
:1035A000A093DC06B093DD0680E098ECAFE2B8E4CF
:1035B0008093E3069093E406A093E506B093E606B5
:1035C0008DEC9CECACECBDE38093DF069093E006C1
:1035D000A093E106B093E20684E58093DE068DECCD
:1035E0009CECACE4BDE38093E7069093E806A093DF
:1035F000E906B093EA0681E08093EB060E94A618E4
:103600000E94EC190895EF92FF920F931F93DF939E
:10361000CF93CDB7DEB729970FB6F894DEBF0FBEB4
:10362000CDBF8C0181E08983F80180818432E1F58E
:103630008181882319F40E94EC1934C0C8017E01ED
:103640000894E11CF11CB701AE014E5F5F4F0E9470
:103650004623892B59F19981F801E90FF11D8081E9
:103660008D3311F59F5F9983C801B701AE014A5FA1
:103670005F4F0E944623892BC9F08981080F111DD5
:10368000F8018081882381F46A817B818C819D810E
:103690000E94AD26DC01CB014E815F816885798572
:1036A0000E94B41880E003C083E001C081E0299645
:1036B0000FB6F894DEBF0FBECDBFCF91DF911F9143
:1036C0000F91FF90EF9008959091BF058091C005F4
:1036D000981741F08091C0058F5F823109F480E036
:1036E0008093C00508959091BF058091C0059817FB
:1036F00019F420E030E008C09091C0058BE3989F5A
:103700009001112427563E4FC90108959091C0059C
:1037100020E08091C105981709F421E0822F0895D7
:10372000EF92FF920F931F936093C2057093C305AE
:103730008093C4059093C5052093C6053093C705B3
:103740004093C8055093C905E092CA05F092CB0595
:103750000093CC051093CD051F910F91FF90EF9032
:1037600008958F929F92AF92BF92CF92DF92EF9285
:10377000FF920F931F93CF93DF93EC016B010097A0
:1037800009F460C08AA1882309F05CC0ED88FE8836
:103790000F89188DFB01B588A6889788808CC80191
:1037A000B7012B2D3A2D492D582D0E943E268823F6
:1037B0000CF048C0C801B701A80197010E941E295A
:1037C0007B018C016091E3067091E4068091E5062F
:1037D0009091E606905820E030E040E050EC0E94E6
:1037E0001E292D8D3E8D4F8D58A10E941E299B01B3
:1037F000AC01C801B7010E9465250E94AB297B017D
:103800008C016B2D7A2D892D982D9701A8010E948E
:103810003E26882324F4EB2CFA2C092D182D6B2D31
:103820007A2D892D982D9701A8010E943E26882384
:1038300049F0C701D801F601858B968BA78BB08F15
:1038400081E081A3DF91CF911F910F91FF90EF90C5
:10385000DF90CF90BF90AF909F908F9008952F9260
:103860003F924F925F926F927F928F929F92AF9210
:10387000BF92CF92DF92EF92FF920F931F93DF934D
:10388000CF93CDB7DEB768970FB6F894DEBF0FBE03
:10389000CDBF1C016A017B0128013901DC01D796EB
:1038A0006D917D918D919C91DA970E94DE264B015E
:1038B0005C01A70196010E941E290E942B260E94EE
:1038C000B2267B018C01F10163A374A385A396A3A7
:1038D000C501B401A30192010E941E290E942B265A
:1038E0000E94B22669877A878B879C87D101979639
:1038F0006D937D938D939C939A979B966D917D91FB
:103900008D919C919E9722E330E040E050E00E9430
:103910001B2A0E94E02620E030E040E752E40E94AB
:103920001E290E94AD262B013C01C801B7010E944F
:10393000DE267B018C01C301B2010E94E0266D836B
:103940007E838F839887C501B401A50194010E94ED
:103950001E295B016C01C801B701A80197010E94F3
:103960001E296D877E878F87988B6D817E818F81E1
:1039700098859B01AC010E946525698B7A8B8B8BA6
:103980009C8BC601B5012D853E854F8558890E94C7
:10399000642529893A894B895C890E9445260E94C1
:1039A0002B260E94AD2669837A838B839C8369854D
:1039B0007A858B859C850E94DE269B01AC010E9446
:1039C0001E296D8B7E8B8F8B988FA60195010E948F
:1039D00064257B018C017094609450944094411C48
:1039E000511C611C711CC301B2010E94E0269B01A5
:1039F000AC010E9465259B01AC01C801B7010E9482
:103A000045260E941B27F101A584B684C784D0886F
:103A10008601750129813A814B815C81E21AF30AA2
:103A2000040B150B0E94AD26A8019701261B370B2E
:103A3000480B590BDA01C90157FF4AC0C601B5014D
:103A40000E94E0269B01AC0169897A898B899C8957
:103A50000E941E292D853E854F8558890E94642528
:103A60002D893E894F89588D0E9465257B018C01E7
:103A70006D817E818F81988520E030E040E850E4C0
:103A80000E941E299B01AC01C801B7010E94452676
:103A90000E942B260E94AD26AC01CB01DA01BC01AD
:103AA000CD0197FF04C060E070E080E090E06983A2
:103AB0007A838B839C83A616B706C806D90624F49E
:103AC000A982BA82CB82DC8280E090E0A0E0B0E004
:103AD00029813A814B815C81F10127A730AB41AB51
:103AE00052AB820F931FA41FB51F83AB94ABA5AB42
:103AF000B6AB68960FB6F894DEBF0FBECDBFCF91C0
:103B0000DF911F910F91FF90EF90DF90CF90BF90CA
:103B1000AF909F908F907F906F905F904F903F906D
:103B20002F9008952F923F924F925F927F928F92A3
:103B30009F92AF92BF92CF92DF92EF92FF920F933C
:103B40001F93CF93DF93D090BF058091E3069091B0
:103B5000E406A091E506B091E6061C012D0157FA96
:103B6000509457F8509400E010E0C0E0D0E0BB243F
:103B7000B3943BE3C32E72C0DD2011F422E1D22EB8
:103B8000DA94209709F463C00115110509F45FC0A8
:103B9000A98C9A8C8B8C7C8C6D897E898F89988D71
:103BA0002A2D392D482D572D0E943E26882309F4B1
:103BB0004EC08AA1882309F041C0F801E588F68843
:103BC0000789108D6A2D792D882D972DA8019701D1
:103BD0000E944C28181694F5C801B701A801970156
:103BE0000E941E297B018C01C201B10120E030E05E
:103BF00040E050EC0E941E292D8D3E8D4F8D58A126
:103C00000E941E299B01AC01C801B7010E946525D5
:103C10000E94AB29162F072FF82EE92E6A2D792D39
:103C2000882D972D212F302F4F2D5E2D0E943E265F
:103C300087FD04C0A12E902E8F2C7E2C8A2D992DCD
:103C4000A82DB72D8D8B9E8BAF8BB88FB9A2DC9C26
:103C5000C00111248E01EC01C756DE4F8091C005D2
:103C6000D81609F089CFF090C00520E030E000E0E0
:103C700010E09BE3E92E11C0FE9CE0011124C75621
:103C8000DE4FC901B801AE010E94B11BF394F2E10D
:103C9000FF1609F4FF2498018E018091BF05F816E4
:103CA00059F7C901B80140E050E00E94B11B709083
:103CB000C005C0E0D0E08BE3582E35C0759C4001B4
:103CC000112489E991E0880E991E209731F189A18C
:103CD000882321F4F40181A18823F9F0E988FA8886
:103CE0000B891C896D897E898F89988DA801970120
:103CF0000E9445265B016C01F401658976898789FC
:103D0000908DA80197010E9445268B019C01CE0150
:103D1000B601A5010E942F1C19A27394F2E17F162F
:103D200009F47724E4018091BF05781639F6E98813
:103D3000FA880B891C896D897E898F89988DA801E5
:103D400097010E9445265B016C0160E070E080E015
:103D500090E0A80197010E9445268B019C01CE01AD
:103D6000B601A5010E942F1C19A2DF91CF911F91CE
:103D70000F91FF90EF90DF90CF90BF90AF909F900A
:103D80008F907F905F904F903F902F900895AF92CB
:103D9000BF92CF92DF92EF92FF920F931F93CF9338
:103DA000DF935B016C019091C0058BE3989FE0016C
:103DB0001124C756DE4FC601B5010E94E0262D8DA5
:103DC0003E8D4F8D58A10E941E297B018C016D856F
:103DD0007E858F8598890E94E0269B01AC01C801F1
:103DE000B7010E9445266D8F7E8F8F8F98A3AD8679
:103DF000BE86CF86D88A80E090E0A0E0B0E08D8BD0
:103E00009E8BAF8BB88F898F9A8FAB8FBC8F1AA286
:103E100081E089A30E94921DDF91CF911F910F91A4
:103E2000FF90EF90DF90CF90BF90AF9008952F92CA
:103E30003F924F925F926F927F928F929F92AF923A
:103E4000BF92CF92DF92EF92FF920F931F93DF9377
:103E5000CF93CDB7DEB7C355D0400FB6F894DEBFD1
:103E60000FBECDBF29013A012396ACAEBDAECEAE9A
:103E7000DFAE239724968FAE24973091BF052BE3B6
:103E8000329FA001112447565E4F5A8F498F2091CF
:103E9000C8063091C9064091CA065091CB062BAF97
:103EA0003CAF4DAF5EAF0E941E290E94EE282996BE
:103EB0006FAF29972A967FAF2A972B968FAF2B97B4
:103EC0002C969FAF2C978091CC069091CD06A09117
:103ED000CE06B091CF068FAB98AFA9AFBAAFC301F2
:103EE000B2012FA938AD49AD5AAD0E941E290E94DA
:103EF000EE282D966FAF2D972E967FAF2E972F968B
:103F00008FAF2F9760969FAF60972091D00630912A
:103F1000D1064091D2065091D3062BAB3CAB4DABB2
:103F20005EABC801B7010E941E290E94EE2861966F
:103F30006FAF619762967FAF629763968FAF63971B
:103F400064969FAF6497A98DBA8D1C922091C2058B
:103F50003091C3054091C4055091C5052C968CAD98
:103F60009DADAEADBFAD2C9782179307A407B507E3
:103F700024F488E0A98DBA8D8C934090C6055090AA
:103F8000C7056090C8057090C90560968CAD9DAD61
:103F9000AEADBFAD609784159505A605B7052CF4A9
:103FA000A98DBA8D8C9180628C93E090CA05F090B7
:103FB000CB050091CC051091CD0564968CAD9DADDF
:103FC000AEADBFAD64978E159F05A007B1072CF469
:103FD000A98DBA8D8C9180688C932C96ACACBDACBD
:103FE000CEACDFAC2C97A21AB30AC40AD50AE98D6D
:103FF000FA8DA182B282C382D482D7FE0BC08827F9
:104000009927DC018A199B09AC09BD098183928338
:10401000A383B48360962CAD3DAD4EAD5FAD60978C
:10402000241935094609570939014A01A98DBA8D64
:1040300015962D933D934D935C93189757FF0DC0A4
:1040400088279927DC01821B930BA40BB50BE98D04
:10405000FA8D85839683A783B08764962CAC3DAC9C
:104060004EAC5FAC64972E183F08400A510AA2017B
:10407000910157FE07C022273327A90122193309CE
:1040800044095509A98DBA8D19962D933D934D93E9
:104090005C931C971596ED90FD900D911C911897CF
:1040A000FD0181819281A381B4818E159F05A007B6
:1040B000B10710F4D801C70182179307A407B50709
:1040C00010F4DA01C901E98DFA8D85879687A787F3
:1040D000B08B0097A105B10509F47AC2C601B501FC
:1040E0000E94E0262BAD3CAD4DAD5EAD0E94452655
:1040F0006FA778AB89AB9AABC401B3010E94E026ED
:104100002FA938AD49AD5AAD0E9445266BA77CA7B3
:104110008DA79EA7C201B1010E94E0262BA93CA950
:104120004DA95EA90E9445266FA378A789A79AA7E3
:104130006FA578A989A99AA99B01AC010E941E29A3
:104140007B018C016BA57CA58DA59EA59B01AC0177
:104150000E941E299B01AC01C801B7010E94652580
:104160007B018C016FA178A589A59AA59B01AC0163
:104170000E941E299B01AC01C801B7010E94652560
:104180000E94AB297B018C01A98DBA8D5D966D9340
:104190007D938D939C93909760E070E080E89FE31F
:1041A000A80197010E9445262B013C012496BFAD32
:1041B0002497BB2359F423966CAD7DAD8EAD9FAD96
:1041C0002397A30192010E941E290CC060E070E0B9
:1041D00080E89FE323962CAD3DAD4EAD5FAD2397B8
:1041E0000E9445265B016C01C801B701A60195013B
:1041F0000E941E2928966CAF7DAF8EAF9FAF289787
:10420000E98DFA8D618B728B838B948B65857685B6
:10421000878590890E94E0267B018C01A60195018B
:104220000E941E290E942B260E94B226A98DBA8DBB
:10423000D7966D937D938D939C93DA972091E306A7
:104240003091E4064091E5065091E6062BA33CA38D
:104250004DA35EA3C801B701A30192010E941E29CC
:104260002BA13CA14DA15EA10E941E2920E030E8B7
:104270004BE355E40E9445260E942B260E94AD2662
:10428000A98DBA8D9B966D937D938D939C939E97EC
:104290006FA578A989A99AA9A30192010E941E2954
:1042A0006F8F78A389A39AA36BA57CA58DA59EA5E6
:1042B000A30192010E941E296B8F7C8F8D8F9E8F90
:1042C0006FA178A589A59AA5A30192010E941E2934
:1042D0001B012C019091BF058091C005981709F42E
:1042E000B7C06090DA057090DB058090DC05909097
:1042F000DD05B301C40120E030E040E050E00E9461
:104300004C2818160CF0A4C06091CE057091CF0512
:104310008091D0059091D10590582F8D38A149A159
:104320005AA10E941E297B018C016B8D7C8D8D8D85
:104330009E8D2091D2053091D3054091D4055091A6
:10434000D5050E941E299B01AC01C801B7010E943E
:1043500064257B018C01C201B1012091D605309109
:10436000D7054091D8055091D9050E941E299B017F
:10437000AC01C801B7010E9464257B018C0123E3D5
:1043800033E343E75FE30E943E2688230CF060C0DE
:10439000B301C40128962CAD3DAD4EAD5FAD28975D
:1043A0000E943E2687FD08C028968CAD9DADAEAD1F
:1043B000BFAD28973C014D01C801B70123E333E3AA
:1043C00043E75FEB0E944C2818160CF046C060E0F3
:1043D00070E080E89FE3A80197010E94642520E037
:1043E00030E040E05FE30E941E290E94AB295B01A0
:1043F0006C016BA17CA18DA19EA12091E70630915B
:10440000E8064091E9065091EA060E941E29A6019D
:1044100095010E941E297B018C0160E070E080E81C
:104420009FE3A60195010E9464259B01AC01C80190
:10443000B7010E9445260E94AB297B018C01B30184
:10444000C4019701A8010E943E2687FD06C007C04F
:10445000EE24FF2400E010E002C073018401C701D4
:10446000D801E98DFA8D818F928FA38FB48F6BA1C4
:104470007CA18DA19EA1905820E030E040E050EC5E
:104480000E941E29A98DBA8D5D962D913D914D9169
:104490005C9190970E941E2920E030E040E050E0BF
:1044A0000E9465250E94AB29D62EC72EB82EA92EB4
:1044B000B701C8012D2D3C2D4B2D5A2D0E943E26B3
:1044C00087FD04C0ED2CFC2C0B2D1A2DC701D80143
:1044D000E98DFA8D858B968BA78BB08F6189728958
:1044E000838994892D2D3C2D4B2D5A2D0E943E26DB
:1044F000181634F081E0A98DBA8D92968C9303C082
:10450000E98DFA8D12A281E0A98DBA8D91968C93D6
:104510002D8A3E8A4F8A588E2B8D3C8D4D8D5E8D17
:10452000298B3A8B4B8B5C8B8F8D98A1A9A1BAA15B
:104530008D879E87AF87B88B64962CAD3DAD4EAD11
:104540005FAD649729873A874B875C8760968CAD0F
:104550009DADAEADBFAD60978D839E83AF83B887B1
:104560002C962CAD3DAD4EAD5FAD2C9729833A8393
:104570004B835C83AEECB5E0FE013D968CE0019090
:104580000D928150E1F7E98DFA8D81899289A38995
:10459000B4898093DA059093DB05A093DC05B09392
:1045A000DD058091C1058093BF058091BF058F5FB8
:1045B000823109F480E08093C105A2ECB5E0FE01F0
:1045C00031968CE001900D928150E1F70E94921D8E
:1045D000CD5ADF4F0FB6F894DEBF0FBECDBFCF91DF
:1045E000DF911F910F91FF90EF90DF90CF90BF90E0
:1045F000AF909F908F907F906F905F904F903F9083
:104600002F9008951F931BE306C00E9468128091AB
:10461000DE05882391F49091BF058091C00598171D
:1046200041F08091C005819FC001112487569E4FA3
:1046300061F780910606882341F71F9108958091C4
:10464000BF058093C0058091BF058F5F823109F45B
:1046500080E08093C1058CE1E2ECF5E0DF011D9282
:104660008A95E9F7089520EA3FE004C0F9013197FF
:10467000F1F701970097D1F7089535E004C0232F93
:104680002A95F1F701970097D1F70895AF92BF925D
:10469000CF92DF92EF92FF920F931F93DF93CF930E
:1046A00000D0CDB7DEB76C015B017A01FB018081E0
:1046B0008601080F111DC801BE016F5F7F4F0E9468
:1046C0002102F701608371838283938389819A81B8
:1046D0008017910719F420E030E005C08C19F5012E
:1046E000808321E030E0C9010F900F90CF91DF91DE
:1046F0001F910F91FF90EF90DF90CF90BF90AF9000
:10470000089584B18D7C84B908956F927F928F92C1
:104710009F92AF92BF92CF92DF92EF92FF920F9350
:104720001F93982EA62EB42E670178018091D5068E
:10473000C81AD108E108F108992011F09CEA01C0DB
:1047400098EAA1109061B1109064222311F088EAD8
:1047500098270091DE0609278BB1902F987A8775EC
:10476000982B9BB924E0622E90E1792E80E4882E6C
:1047700083B1992021F0199902C006259924AA2015
:1047800021F01C9902C00725AA24BB2021F01D9905
:1047900002C00825BB24992021F4AA2011F4BB20D3
:1047A00089F08BB1102F1475812B8BB98091D506B0
:1047B00090E00E943D238BB118271BB9C6010E94CF
:1047C0003D23D6CF1F910F91FF90EF90DF90CF90B8
:1047D000BF90AF909F908F907F906F900895DF92E1
:1047E000EF92FF920F931F930E940223D3B080E0B9
:1047F00060E041E020E0F0EAEF2EF6E8FF2EF1E085
:104800000F2F112D0E94852381E061E040E020E020
:104810000E94852383B18D25827390E0BC01E4E082
:1048200076956795EA95E1F76170AC0175E056956C
:1048300047957A95E1F7417096958795817021E0CB
:1048400030E2E32E31EAF32E37E0032F112D0E94E0
:1048500085231F910F91FF90EF90DF900895AF9205
:10486000BF92CF92DF92EF92FF920F93DF93CF939D
:10487000CDB7DEB7A2970FB6F894DEBF0FBECDBF9F
:104880006B017C01611571058105910521F480E3BF
:104890000E944F1032C000E05E010894A11CB11CC0
:1048A000C501800F911D9AA389A3C701B6012AE013
:1048B00030E040E050E00E943A2AE9A1FAA160838A
:1048C0000F5FC701B6012AE030E040E050E00E94EF
:1048D0003A2AC901DA016C017D01C114D104E10455
:1048E000F104F1F608C0FE01E00FF11D8081805D4A
:1048F0000E944F1001500023B1F7A2960FB6F89412
:10490000DEBF0FBECDBFCF91DF910F91FF90EF9033
:10491000DF90CF90BF90AF900895AF92BF92CF92AB
:10492000DF92EF92FF920F931F93CF93DF937B0160
:104930008C0120E030E040E050E00E943E268823D9
:104940003CF48DE20E944F1017FB109517F910955B
:10495000C801B7012AE037ED43EA5BE30E94652511
:104960007B018C010E94AD265B016C01CC24B7FC5D
:10497000C094DC2CC601B5010E942F248EE20E9457
:104980004F10C601B5010E94E0269B01AC01C80191
:10499000B7010E946425C2E0D0E01EC020E030E0F4
:1049A00040E251E40E941E295B016C010E94AD2689
:1049B0007B018C01862F805D0E944F106E2D70E070
:1049C000882777FD8095982F0E94E0269B01AC01F7
:1049D000C601B5010E94642521972FEFCF3FD20772
:1049E000E9F6DF91CF911F910F91FF90EF90DF904B
:1049F000CF90BF90AF900895EF92FF920F931F93C7
:104A00007B018C0197FF0BC08DE20E944F10109527
:104A10000095F094E094E11CF11C011D111DC801EA
:104A2000B7010E942F241F910F91FF90EF900895DE
:104A30000F931F93DF93CF93CDB7DEB728970FB6B1
:104A4000F894DEBF0FBECDBF982FFE0131969E01B8
:104A5000275F3F4F892F817081939695E217F30767
:104A6000C9F78E01085F1F4FF8018081805D0E94A9
:104A70004F10015010400C171D07B1F728960FB6C4
:104A8000F894DEBF0FBECDBFCF91DF911F910F9184
:104A90000895CF93DF93EC0102C00E944F10FE01F6
:104AA000219684918823C9F7DF91CF910895CF9300
:104AB000DF93EC0103C021960E944F108881882368
:104AC000D1F7DF91CF9108955058BB27AA270ED078
:104AD00081C241D230F046D220F031F49F3F11F430
:104AE0001EF411C20EF4E095E7FBDCC1E92F94D26D
:104AF00080F3BA17620773078407950718F071F4FB
:104B00009EF5C3C20EF4E0950B2EBA2FA02D0B011B
:104B1000B90190010C01CA01A0011124FF27591B02
:104B200099F0593F50F4503E68F11A16F040A22F08
:104B3000232F342F4427585FF3CF46953795279579
:104B4000A795F0405395C9F77EF41F16BA0B620B78
:104B5000730B840BBAF09150A1F0FF0FBB1F661FBF
:104B6000771F881FC2F70EC0BA0F621F731F841F02
:104B700048F4879577956795B795F7959E3F08F028
:104B8000B3CF9395880F08F09927EE0F97958795E7
:104B90000895E1D158F080E891E009F49EEFE2D168
:104BA00028F040E851E059F45EEF09C0ACC16DC295
:104BB000E92FE07831D268F3092E052AC1F32617D0
:104BC00037074807590738F00E2E07F8E02569F037
:104BD000E025E0640AC0EF6307F8009407FADB0100
:104BE000B9019D01DC01CA01AD01EF935DD0F2D1A5
:104BF0000AD05F91552331F02BED3FE049E450FDA1
:104C000049EC63CF0895DF93DD27B92FBF7740E8E4
:104C10005FE31616170648075B0710F4D92FA1D2D9
:104C20009F938F937F936F93E0D3E8E6F0E06ED18C
:104C3000D1D12F913F914F915F910CD3DD2349F05A
:104C40009058A2EA2AED3FE049EC5FE3D0785D2777
:104C50004DDFDF91BFC102D280F09F3740F4911148
:104C60000EF414C260E070E080E89FE3089526F03F
:104C70001B16611D711D811D1BC135C1EFD008F4CC
:104C800081E0089577D1E395B6C10CD0A3C16AD174
:104C900040F061D130F021F45F3F19F003C15111B0
:104CA000F5C131C1B9D198F39923C9F35523B1F3B3
:104CB000951B550BBB27AA2762177307840738F08B
:104CC0009F5F5F4F220F331F441FAA1FA9F333D0EA
:104CD0000E2E3AF0E0E830D091505040E695001C9E
:104CE000CAF729D0FE2F27D0660F771F881FBB1F5A
:104CF000261737074807AB07B0E809F0BB0B802D34
:104D0000BF01FF2793585F4F2AF09E3F510568F07F
:104D1000C9C0BCC15F3FECF3983EDCF38695779544
:104D20006795B795F7959F5FC9F7880F911D969581
:104D3000879597F90895E1E0660F771F881FBB1FDD
:104D4000621773078407BA0720F0621B730B840B8A
:104D5000BA0BEE1F88F7E095089504D06894B1115E
:104D600095C1089561D188F09F5790F0B92F992788
:104D7000B751A0F0D1F0660F771F881F991F1AF066
:104D8000BA95C9F712C0B13081F07FD1B1E0089572
:104D90007CC1672F782F8827B85F39F0B93FCCF3F3
:104DA000869577956795B395D9F73EF4909580955C
:104DB000709561957F4F8F4F9F4F0895E89409C07C
:104DC00097FB3EF490958095709561957F4F8F4F3E
:104DD0009F4F9923A9F0F92F96E9BB279395F69554
:104DE000879577956795B795F111F8CFFAF4BB0FD2
:104DF00011F460FF1BC06F5F7F4F8F4F9F4F16C036
:104E0000882311F096E911C0772321F09EE8872FBF
:104E1000762F05C0662371F096E8862F70E060E07B
:104E20002AF09A95660F771F881FDAF7880F9695F4
:104E3000879597F9089512D180F09F3740F491112A
:104E40000EF024C160E070E080E89FEB089526F446
:104E50001B16611D711D811D2BC045C0990F0008D7
:104E6000550FAA0BE0E8FEEF16161706E807F9073C
:104E7000C0F012161306E407F50798F0621B730BD7
:104E8000840B950B39F40A2661F0232B242B252B58
:104E900021F408950A2609F4A140A6958FEF811DFB
:104EA000811D089597F99F6780E870E060E008959C
:104EB000882371F4772321F09850872B762F07C031
:104EC000662311F499270DC09051862B70E060E0A5
:104ED0002AF09A95660F771F881FDAF7880F969544
:104EE000879597F908959F3F49F0915028F486954A
:104EF00077956795B7959F5F80389F4F880F9695F8
:104F0000879597F908959FEF80EC0895DF93CF93ED
:104F10001F930F93FF92EF92DF927B018C016894B5
:104F200005C0DA2EEF0196D1FE01E894A5912591F6
:104F3000359145915591AEF3EF01D8DDFE01970112
:104F4000A801DA9479F7DF90EF90FF900F911F910D
:104F5000CF91DF91089500240A94161617061806BB
:104F60000906089500240A9412161306140605066D
:104F70000895C9CF59D0E8F3E894EFEFBB273FE09D
:104F800048EC5FE76B3D73078407950708F1FF273F
:104F90009F57B25A6A4D7F40894CF04032F4BE555B
:104FA0006542704F8643FF4F0894EE1F915030F0DA
:104FB000BB0F661F771F881FFF1FEBCF9EE788235D
:104FC00032F0BB0F661F771F881F9A95C1F7939524
:104FD000E09589CF092E0394000C11F4882352F038
:104FE000BB0F40F4BF2B11F460FF04C06F5F7F4F15
:104FF0008F4F9F4F0895EF93E0FF06C0A2EA2AED7E
:105000003FE049EC5FEB72DDE5DF0F90039401FCBC
:105010009058E5E9F0E0FEC157FD9058440F551F48
:1050200059F05F3F71F04795880F97FB991F61F02A
:105030009F3F79F087950895121613061406551FA1
:10504000F2CF4695F1DF08C0161617061806991F0D
:10505000F1CF86957105610508940895E5DFA0F00C
:10506000BEE7B91788F4BB279F3860F41616B11D48
:10507000672F782F8827985FF7CF86957795679564
:10508000B11D93959639C8F30895E894BB27662718
:105090007727CB0197F90895E1DE08F48FEF0895A3
:1050A0005ADF19F05FDF09F02ECFFCCEB901CA013B
:1050B0001ACF9F775F77B0DF98F39923B9F3552321
:1050C000B9F3FF27951758F4E52FE91BED3070F77A
:1050D0005E3B10F0F1E41CC09034E0F40AC0E92F0C
:1050E000E51BED3028F79E3B10F0F1E411C0503481
:1050F00088F4F9EA88232AF09A95660F771F881FAB
:10510000DAF744232AF05A95220F331F441FDAF7A7
:105110009F1B5F1BFF931F930F93FF92EF927901E9
:105120008A01BB27AB2F9B01AC0196D09701A80148
:10513000BF937B018C01AA27BA2FB901CA018CD079
:10514000AF919701A801EF90FF900F911F91CEDCD6
:1051500041DF01D14F9140FF0895552747FD5095FC
:1051600009C09B01AC0160E070E080E89FE38DCD59
:1051700099CEB9CE59DFE8F39923D9F3940F511D95
:10518000BBF39150504094F059F0882332F0660FF1
:10519000771F881F91505040C1F79E3F510544F73B
:1051A000880F911D9695879597F908955F3FACF00C
:1051B000983E9CF0BB27869577956795B79508F440
:1051C000B1609395C1F7BB0F58F711F460FFE8CFBA
:1051D0006F5F7F4F8F4F9F4FE3CF58CF25DF58F141
:1051E0009E5758F19851A0F0E9F0983020F5092E1B
:1051F0009927660F771F881F991F0A94D1F712C04D
:10520000062E672F782F8827985F11F4000C07C0AF
:10521000993FB4F38695779567959395D9F7611D76
:10522000711D811D3EF490958095709561957F4F1D
:105230008F4F9F4F0895689429CF27CF0BD0CACEA8
:105240008ADE28F08FDE18F0952309F02BCE5BCE96
:1052500011241CCFE1DEA0F3959FD1F3950F50E010
:10526000551F629FF001729FBB27F00DB11D639F18
:10527000AA27F00DB11DAA1F649F6627B00DA11DBE
:10528000661F829F2227B00DA11D621F739FB00D64
:10529000A11D621F839FA00D611D221F749F3327D4
:1052A000A00D611D231F849F600D211D822F762F6D
:1052B0006A2F11249F5750408AF0E1F088234AF06A
:1052C000EE0FFF1FBB1F661F771F881F91505040B6
:1052D000A9F79E3F510570F0E5CDD8CE5F3FECF3C6
:1052E000983EDCF3869577956795B795F795E795A2
:1052F0009F5FC1F7FE2B880F911D9695879597F9B3
:10530000089592DEE0F09E37D8F09639B8F49E38D2
:1053100048F4672F782F8827985FF9CF869577957F
:10532000679593959539D0F3B62FB1706B0F711DBA
:10533000811D20F48795779567959395B9CDD3CD49
:10534000A5CE9F9317DE0F9007FCEE5F54CE11F4AD
:105350000EF4D9CDC8CD68DED0F39923D9F3CEF3BE
:105360009F57550B87FF4FD056959795B0E020F487
:10537000660F771F881FBB1F1F930F930024900198
:10538000A0018001F001A0E80E0F1F1F0A1E511D91
:10539000601B710B8009B50B48F4600F711F801DF5
:1053A000B51F0E1B1F0B0A0A510907C02E0F3F1F06
:1053B0004A1F0E0F1F1F0A1E511D660F771F881FE1
:1053C000BB1FA695F795E795F8F606171707080689
:1053D0005B07211D311D411D0F911F91B901842FC4
:1053E0009158880F9695879508959B01AC0126CF1B
:1053F00035DE20F09F3708F449CE5ACD74CD2EDD2E
:10540000880B990B089591505040660F771F881FA5
:10541000D2F708959F938F937F936F93FF93EF93AA
:105420009B01AC010BDFEF91FF9170DD2F913F915C
:105430004F915F9103CF629FD001739FF001829FD4
:10544000E00DF11D649FE00DF11D929FF00D839F13
:10545000F00D749FF00D659FF00D9927729FB00DB0
:10546000E11DF91F639FB00DE11DF91FBD01CF01C3
:1054700011240895A1E21A2EAA1BBB1BFD010DC029
:10548000AA1FBB1FEE1FFF1FA217B307E407F507F4
:1054900020F0A21BB30BE40BF50B661F771F881FD0
:1054A000991F1A9469F760957095809590959B0166
:1054B000AC01BD01CF01089597FB092E05260ED042
:1054C00057FD04D0D7DF0AD0001C38F45095409522
:1054D000309521953F4F4F4F5F4F0895F6F79095C8
:1054E0008095709561957F4F8F4F9F4F08959111D3
:1054F00006C0803219F089508550D0F70895992759
:10550000882708952F923F924F925F926F927F92D9
:105510008F929F92AF92BF92CF92DF92EF92FF92C3
:105520000F931F93CF93DF93CDB7DEB7CA1BDB0B6F
:105530000FB6F894DEBF0FBECDBF09942A88398814
:1055400048885F846E847D848C849B84AA84B9841B
:10555000C884DF80EE80FD800C811B81AA81B98127
:10556000CE0FD11D0FB6F894DEBF0FBECDBFED013B
:065570000895F894FFCF3E
:105576004D506F733A5B002C005D2C57506F733A99
:065586005B005D0D0A0050
:00000001FF
