:100000000C9402020C941F020C941F020C941F0209
:100010000C941F020C941F020C941F020C941F02DC
:100020000C941F020C94B1110C941F020C94E31257
:100030000C941F020C941F020C941F020C941F02BC
:100040000C941F020C941F020C945E0F0C94170F5B
:100050000C941F020C941F020C941F020C941F029C
:100060000C941F020C941F02084AD73B3BCE016E32
:1000700084BCBFFDC12F3D6C74319ABD56833DDAFF
:100080003D00C77F11BED9E4BB4C3E916BAAAABE0E
:10009000000000803F05A84CCDB2D44EB93836A937
:1000A000020C50B9918688083CA6AAAA2ABE000074
:1000B00000803F0D0A00496E76616C696420636FB1
:1000C0006D6D616E640D0A004D6F64616C20677226
:1000D0006F75702076696F6C6174696F6E0D0A00C0
:1000E000466C6F6174696E6720706F696E7420650D
:1000F00072726F720D0A00556E737570706F727444
:1001000065642073746174656D656E740D0A0045D5
:100110007870656374656420636F6D6D616E6420D3
:100120006C65747465720D0A00426164206E756DB1
:1001300062657220666F726D61740D0A006572727D
:100140006F723A20006F6B0D0A000D0A27242720DA
:10015000746F2064756D702063757272656E7420A3
:1001600073657474696E67730D0A000D0A477262D5
:100170006C20302E3861005761726E696E673A20CC
:100180004661696C656420746F2072656164204506
:100190004550524F4D2073657474696E67732E20FD
:1001A0005573696E672064656661756C74732E0D96
:1001B0000A0053746F726564206E657720736574EE
:1001C00074696E670D0A00556E6B6E6F776E2070E6
:1001D0006172616D657465720D0A005374657020FB
:1001E00070756C7365206D757374206265203E3D7B
:1001F0002033206D6963726F7365636F6E64730D76
:100200000A0053746570732F6D6D206D75737420C3
:100210006265203E20302E300D0A000D0A2724781A
:100220003D76616C75652720746F2073657420704E
:100230006172616D65746572206F72206A75737486
:100240002027242720746F2064756D7020637572D9
:1002500072656E742073657474696E67730D0A003D
:10026000202846756C6C204C6F636B2028312D65FF
:100270006E61626C652F302D44697361626C652913
:10028000203D2000290D0A243939203D2000202856
:10029000636F726E6572696E67206A756E637469EA
:1002A0006F6E20646576696174696F6E20696E2077
:1002B0006D6D29002028616363656C6572617469E6
:1002C0006F6E20696E206D6D2F7365635E32290D30
:1002D0000A2439203D2000290D0A2438203D200021
:1002E00020287374657020706F727420696E766553
:1002F0007274206D61736B2E2062696E6172792059
:100300003D200020286D6D2F617263207365676D3D
:10031000656E74290D0A2437203D200020286D6D5C
:100320002F6D696E2064656661756C7420736565F8
:100330006B2072617465290D0A2436203D2000204F
:10034000286D6D2F6D696E2064656661756C742013
:10035000666565642072617465290D0A2435203D47
:10036000200020286D6963726F7365636F6E64731C
:1003700020737465702070756C7365290D0A2434C0
:10038000203D2000202873746570732F6D6D207AD6
:10039000290D0A2433203D200020287374657073D2
:1003A0002F6D6D2079290D0A2432203D2000202850
:1003B00073746570732F6D6D2078290D0A243120B8
:1003C0003D20002430203D2000494E46494E4954EE
:1003D000594E414ECDCCCC3D0AD7233C17B7D1382E
:1003E00077CC2B329595E6241FB14F0A00002041AF
:1003F0000000C84200401C4620BCBE4CCA1B0E5A1E
:10040000AEC59D7411241FBECFEFD8E0DEBFCDBFB7
:1004100011E0A0E0B1E0E4E8F4E502C005900D923F
:10042000A631B107D9F716E0A6E1B1E001C01D92EF
:10043000AE3EB107E1F70E9421020C94402A0C94D1
:1004400000006F927F928F929F92AF92BF92CF9255
:10045000DF92EF92FF920F931F93DF93CF93CDB76D
:10046000DEB768970FB6F894DEBF0FBECDBF60E869
:1004700075E280E090E00E94C90E0E94C811789455
:10048000EEEDF5E08AE2DF011D928A95E9F781E061
:100490008093DE055E010894A11CB11C9DE0C92E6D
:1004A000D12CCC0EDD1E4F018AE2682E7724739486
:1004B0008091DE05882309F453C0D501E1EEF5E013
:1004C0008CE001900D928150E1F7D601EEEEF5E05F
:1004D0008CE001900D928150E1F7F401862D11928C
:1004E0008A95E9F70E94590F0E9460190E94B90F7E
:1004F0000E9445210E94E0060E94A60E0E94A721AC
:100500000E94CF12A1EEB5E0F5018CE001900D92B2
:100510008150E1F7AEEEB5E0F6018CE001900D926E
:100520008150E1F769817A818B819C812D813E81A7
:100530004F815885E984FA840B851C850E948D06BD
:1005400069817A818B819C812D813E814F81588583
:10055000E984FA840B851C850E94FC197092E005E1
:100560000E9413110E944A11A3CFEF92FF920F93A2
:100570001F930E94152260E070E080E090E020E090
:1005800030E040E050E0EE24FF2487010E94FC1997
:100590001F910F91FF90EF900895EF92FF920F93AC
:1005A0001F93CF93DF937B018C0120E030E040EA82
:1005B00051E40E9439270E9441250E94D824EB0172
:1005C0000E942821C801B70120E030E04AE754E446
:1005D0000E9439277B018C0182E390E0C89FB00123
:1005E000C99F700DD89F700D112480E090E00E948B
:1005F00004259B01AC01C801B7010E948A230E9417
:1006000041250E94D824DC01CB010E94592100E938
:1006100011E00EC00E9413118091DE05882351F471
:1006200084EF91E0F8013197F1F70197D9F721971D
:10063000209781F7DF91CF911F910F91FF90EF905D
:1006400008954F925F926F927F928F92AF92BF9276
:10065000CF92DF92EF92FF920F931F93DF93CF938E
:1006600000D000D0CDB7DEB72B013C0129833A83FF
:100670004B835C830E9413118091DE05882391F4E3
:100680000E94F2198823B1F7C301B20129813A818E
:100690004B815C810E94831D8091E005882311F0CD
:1006A0000E945F120F900F900F900F90CF91DF91EB
:1006B0001F910F91FF90EF90DF90CF90BF90AF9080
:1006C0008F907F906F905F904F9008952F923F9200
:1006D0004F925F926F927F928F929F92AF92BF9252
:1006E000CF92DF92EF92FF920F931F93DF93CF93FE
:1006F000CDB7DEB7CE54D0400FB6F894DEBF0FBEF4
:10070000CDBF3C017EAF6DAF21965FAF4EAF21975D
:1007100022962FAF229723960FAF23972496EFAE02
:1007200024972896ACAEBDAECEAEDFAE2897299604
:100730008FAE2997E22EFF24EE0CFF1CEE0CFF1C5F
:100740004E0D5F1D5CAF4BAFDA012D903D904D908B
:100750005C90FC01EE0DFF1DC201B10120813181D1
:10076000428153810E948B2369AB7AAB8BAB9CABEC
:1007700010E0000F111F000F111F2196EEADFFAD0D
:100780002197E00FF11FFAAFE9AFA080B180C280DE
:10079000D380F301E00FF11FC601B5012081318143
:1007A000428153810E948B236DA77EA78FA798ABB0
:1007B00024962FAD2497E22FF0E0EE0FFF1FEE0FEF
:1007C000FF1F6E0E7F1ED3018D919D910D90BC91E8
:1007D000A02D8DAB9EABAFABB8AF2DAD3EADE20F54
:1007E000F31F60817181828193812DA93EA94FA958
:1007F00058AD0E948A2369A77AA78BA79CA7D2012C
:10080000C101B0588DA39EA3AFA3B8A7A6019501BF
:10081000505829A33AA34BA35CA34DAD5EADE40EA3
:10082000F51ED7016D917D918D919C9129A93AA9D1
:100830004BA95CA90E948A233B014C01EDADFEADA2
:100840000E0F1F1FD8016D917D918D919C912DA54B
:100850003EA54FA558A90E948A235B016C016DA19A
:100860007EA18FA198A5A60195010E9439277B0141
:100870008C0169A17AA18BA19CA1A40193010E9482
:1008800039279B01AC01C801B7010E948A231B01D3
:100890002C016DA17EA18FA198A5A40193010E94B6
:1008A00039277B018C0169A17AA18BA19CA1A601AA
:1008B00095010E9439279B01AC01C801B7010E9434
:1008C0008B239B01AC01C201B1010E94FE235B019D
:1008D0006C0120E030E040E050E00E946424882376
:1008E00054F4C601B5012BED3FE049EC50E40E9401
:1008F0008B235B016C01A8968FADA897882351F0DC
:10090000C601B5012BED3FE049EC50E40E948A237B
:100910005B016C01C601B501A7962CAD3DAD4EAD96
:100920005FADA7970E94392729A53AA54BA55CA5DD
:100930000E9474267B018C0120E030E040E050E012
:100940000E946424882309F4CEC1C801B701209114
:10095000DF063091E0064091E1065091E2060E94E8
:100960006B240E9441250E94D82478A36F8F29967A
:10097000BFAD2997BB23A1F080E090E00E94042541
:100980009B01AC0128966CAD7DAD8EAD9FAD2897D7
:100990000E94392728966CAF7DAF8EAF9FAF289706
:1009A0002F8D38A1B90180E090E00E9404257B01E1
:1009B0008C01C601B501A80197010E946B246B8FC1
:1009C0007C8F8D8F9E8F69A57AA58BA59CA5A8018C
:1009D00097010E946B246F8B788F898F9A8F6B8D14
:1009E0007C8D8D8D9E8D20E030E040E05FEB0E949D
:1009F00039272B8D3C8D4D8D5E8D0E94392720E04F
:100A000030E040E85FE30E948B236B8B7C8B8D8B07
:100A10009E8B24963FAD2497E32FF0E0EE0FFF1F4F
:100A2000EE0FFF1FCE010196E80FF91F2DA93EA979
:100A30004FA958AD208331834283538341E050E076
:100A40005E874D8766242296BFAD2297AB2FB0E01C
:100A5000AA0FBB1FAA0FBB1FA80FB91F2B96BFAFB2
:100A6000AEAF2B9723963FAD2397232F30E0220F75
:100A7000331F220F331F280F391F2D963FAF2EAF84
:100A80002D972F96FFAFEEAF2F9707C148E1461580
:100A90000CF446C06DA17EA18FA198A52B8D3C8D35
:100AA0004D8D5E8D0E9439277B018C0169A17AA151
:100AB0008BA19CA12B893C894D895E890E94392795
:100AC0009B01AC01C801B7010E948B237B018C0103
:100AD0006DA17EA18FA198A52B893C894D895E8946
:100AE0000E9439275B016C0169A17AA18BA19CA1AD
:100AF0002B8D3C8D4D8D5E8D0E9439279B01AC0165
:100B0000C601B5010E948A236DA37EA38FA398A777
:100B10006394C701D80189A39AA3ABA3BCA361C006
:100B2000AD85BE85BD0180E090E00E9404252B8D3F
:100B30003C8D4D8D5E8D0E9439277B018C01C80153
:100B40000E9468246F87788B898B9A8BB701C801C4
:100B50000E94BC273B014C01EBADFCADE080F18075
:100B60000281138117FB109517F91095A9ADBAAD45
:100B70002D903D904D905C90C801B7012F8538892C
:100B800049895A890E9439275B016C01C201B10170
:100B9000A40193010E9439279B01AC01C601B50154
:100BA0000E948B236DA37EA38FA398A7C801B701D2
:100BB000A40193010E9439277B018C01C201B1017C
:100BC0002F85388949895A890E9439279B01AC01B0
:100BD000C801B7010E948A2369A37AA38BA39CA3AF
:100BE000662469A97AA98BA99CA92DA13EA14FA130
:100BF00058A50E948B232B96EEADFFAD2B976083FB
:100C00007183828393836DA57EA58FA598A929A161
:100C10003AA14BA15CA10E948B232D96AEADBFAD36
:100C20002D976D937D938D939C9313972F96EEAD97
:100C3000FFAD2F9760817181828193812F89388DDB
:100C4000498D5A8D0E948B232F96AEADBFAD2F9745
:100C50006D937D938D939C93139769817A818B819A
:100C60009C812D813E814F815885E984FA840B85D2
:100C70001C852896ACACBDACCEACDFAC28972996D1
:100C80008FAC29970E9421038091DE05882359F5B6
:100C9000ED85FE853196FE87ED872D853E854F8D4E
:100CA00058A12417350708F4F1CEADADBEAD6D9156
:100CB0007D918D919C91139714962D913D914D911D
:100CC0005C9117971896ED90FD900D911C911B97D4
:100CD0002896ACACBDACCEACDFAC289729968FACD7
:100CE00029970E942103C25BDF4F0FB6F894DEBF45
:100CF0000FBECDBFCF91DF911F910F91FF90EF906D
:100D0000DF90CF90BF90AF909F908F907F906F902B
:100D10005F904F903F902F900895AF92BF92CF92E7
:100D2000DF92EF92FF920F931F9359016A010E9485
:100D300006252091C8063091C9064091CA065091F7
:100D4000CB060E946B24609325017093260180934B
:100D5000270190932801C601B5010E940625209124
:100D6000CC063091CD064091CE065091CF060E9420
:100D70006B246093290170932A0180932B01909337
:100D80002C01C801B7010E9406252091D0063091A0
:100D9000D1064091D2065091D3060E946B246093F5
:100DA0002D0170932E0180932F01909330011F919C
:100DB0000F91FF90EF90DF90CF90BF90AF9008958C
:100DC00081E2E6E1F1E0DF011D928A95E9F7809189
:100DD000D6069091D706A091D806B091D9068093F7
:100DE0001D0190931E01A0931F01B093200110924A
:100DF000340191E09093350182E080933601909325
:100E00001A0108950F931F93CF93DF93EC018B0189
:100E1000D9018C91FA01E80FF11DE081EE23B1F0C8
:100E2000E883E154EA3110F082E00EC08C918F5FCC
:100E30008C93CA01B901A8010E946C21892B19F079
:100E400021E030E005C081E08093160120E030E031
:100E5000C901DF91CF911F910F9108952F923F9279
:100E60004F925F926F927F928F929F92AF92BF92BA
:100E7000CF92DF92EF92FF920F931F93DF93CF9366
:100E8000CDB7DEB7AC970FB6F894DEBF0FBECDBFBF
:100E90002C0119828CE0FE013796DF01482F1D924C
:100EA0004A95E9F7FE017396DF011D928A95E9F7ED
:100EB000109216012224332418A61FA262E0862E67
:100EC000912C8C0E9D1E53E0652E712C6C0E7D1E98
:100ED00043E0A42E01E032E0B32E7EC1CB80DC8063
:100EE000ED80FE80C701B6010E9407280E94D3242E
:100EF0009B014A81473421F04D3409F06DC11CC17A
:100F00006E317105C9F16F317105D4F46431710529
:100F100084F461317105A4F56430710569F16530BF
:100F200071051CF4772354F525C06A30710511F55D
:100F300023C06631710554F16C317105D9F41CC0C0
:100F40006C3571058CF46A357105E4F46C33710508
:100F50003CF466337105E4F46533710559F40CC053
:100F60006035710539F40AC06C35710529F06F35AB
:100F7000710554F010E00DC011E00BC012E009C083
:100F800013E007C014E005C016E003C017E001C07D
:100F900019E02531310509F495C026313105A4F554
:100FA0002430310509F467C025303105A4F421301F
:100FB000310509F466C02230310524F4232B09F4ED
:100FC0005DC0F4C02230310509F45EC02330310524
:100FD00009F0ECC05CC02231310509F462C0233154
:100FE00031054CF42A30310509F443C02131310573
:100FF00009F0DCC04FC02331310509F459C0243158
:10100000310509F0D3C05BC02035310509F46AC051
:1010100021353105ACF42533310509F459C02633A7
:1010200031054CF42C31310509F44FC02E31310516
:1010300009F0BCC04AC02C3331050CF0B7C04BC01E
:101040002C35310509F458C02D3531054CF42A35BD
:10105000310509F44BC02B35310509F0A7C049C053
:101060002D35310509F462C02E35310509F09EC0D9
:1010700060C0B2E059C0E1E0EFA39AC0109217013E
:1010800097C00093170194C0B092170191C0A0922D
:1010900017018EC01092340100933501B0923601D1
:1010A00087C010923401B09235010093360180C0A0
:1010B00000933401B09235011092360179C000934B
:1010C000190176C01092190173C0F3E0FFA370C03C
:1010D00041E048A76DC02633310509F067C0109282
:1010E000ED0566C054E05093170162C000931A01E9
:1010F0005FC010921A015CC0C701B60120E030E069
:1011000040E251E40E9439270E9407280E94D3241C
:1011100083E06839780739F06959734009F046C0AF
:10112000A5E0AFA345C0B4E0BFA342C0009318013F
:101130003FC0109218013CC06630710534F4633032
:10114000710554F4772334F403C06E31710511F046
:1011500010E003C015E001C018E023303105E1F0D4
:10116000243031054CF42130310581F02230310535
:1011700084F4232B59F01AC025303105A1F0253015
:1011800031056CF02E31310589F403C000931B0149
:101190000FC0B0921B010CC000931C0109C0EFEFFF
:1011A000E0931C0105C010921C0102C0A092160120
:1011B000112391F021E030E002C0220F331F1A9575
:1011C000E2F7C90182219321892B21F0F5E0F09308
:1011D000160102C0222A332AC401B301A2019E01D2
:1011E0002F5F3F4F0E940207892B09F077CE809135
:1011F0001601882309F091C51982772419A61AA629
:1012000040E84BA75FEB5CA70F2EF0E0AF2EF0E0BD
:10121000BF2EF0E0CF2EF0E0DF2EF02DABA2BCA26F
:10122000CDA2DEA2882426E0922E3EC11A8112357C
:1012300009F496C0133584F41C343CF419340CF0D2
:1012400059C0163409F030C11AC01C3409F479C0F1
:10125000103509F029C17FC0183509F4CFC0193500
:101260003CF4133509F498C0143509F01DC1ADC024
:10127000193509F4DCC01A3509F016C1F1C0EB804C
:10128000FC800D811E81C801B70120E030E040E004
:1012900050E00E946424181614F090921601809178
:1012A0001801882381F080911901882309F4F8C07E
:1012B000C801B70123E333E34BEC51E40E94392723
:1012C0007B018C01EDC080911901882351F0C80188
:1012D000B70123E333E34BEC51E40E9439277B0150
:1012E0008C01E0921D01F0921E0100931F011093EA
:1012F0002001CEC02B813C814D815E8180911901FE
:10130000882351F0CA01B90123E333E34BEC51E4E4
:101310000E9439279B01AC01E12FFF27E7FDF095E3
:10132000E954F040EE0FFF1FEE0FFF1F61E070E089
:101330006C0F7D1FE60FF71F228B338B448B558B71
:10134000A7C06B817C818D819E810E9407280E94AD
:10135000D824862E9DC0AB80BC80CD80DE8098C016
:101360008B819C81AD81BE818BA39CA3ADA3BEA3C9
:1013700080911901882309F48BC06BA17CA18DA1F8
:101380009EA123E333E34BEC51E40E9439276BA386
:101390007CA38DA39EA37CC0EB80FC800D811E816D
:1013A000C801B70120E030E040E050E00E94642432
:1013B000882314F490921601C801B7010E94D32427
:1013C000709333016093320163C0EB80FC800D8128
:1013D0001E81C801B70120E030E040E050E00E94EB
:1013E0006424882314F490921601C801B7010E9466
:1013F00007280E94D824609331014AC02B813C8188
:101400004D815E8180911901882351F0CA01B90193
:1014100023E333E34BEC51E40E9439279B01AC01F9
:101420002F83388749875A8791E0792A31C02B81E9
:101430003C814D815E8180911901882351F0CA0160
:10144000B90123E333E34BEC51E40E9439279B01BC
:10145000AC012B873C874D875E87A2E07A2A18C0B3
:101460002B813C814D815E8180911901882351F04F
:10147000CA01B90123E333E34BEC51E40E9439275D
:101480009B01AC012F87388B498B5A8BB4E07B2AA8
:1014900029A53AA54BA55CA5C901DA017C018D01FE
:1014A000E9A6FAA60BA71CA7CE010296BE016D5FA6
:1014B0007F4FA2019E012F5F3F4F0E940207892BA1
:1014C00009F0B4CE972C29A53AA54BA55CA5C90176
:1014D000DA018F8F98A3A9A3BAA38091160188235C
:1014E00009F01BC480911C014091320150913301DD
:1014F000662757FD6095762F992787FD90950E9466
:10150000AE0EEFA1E33009F457C0E43028F4E13027
:1015100061F0E23041F419C0FFA1F43009F4E0C0F9
:10152000F53009F433C1972C3AC1C601B50120E06A
:1015300030E040E050E00E94642488230CF4D2C0E4
:10154000C601B5010E94CD022AC142E0841649F4C9
:10155000C601B5010E9407280E94D324613071059D
:1015600021F083E08093160119C1772009F4BAC0F5
:10157000AE01495F5F4FEEEEF5E020E030E0672D11
:1015800070E0CB01022E02C0959587950A94E2F790
:1015900080FF09C0DA01ED90FD900D911C91E08271
:1015A000F182028313832F5F3F4F4C5F5F4F34966E
:1015B0002330310531F7F2C0772009F487C050900D
:1015C0001A018E01095F1F4F85E2A82E81E0B82E17
:1015D0009091ED058CE0989F70011124EEEEF5E0FE
:1015E000EE0EFF1EBAEF8B2EB5E09B2ECC24DD2431
:1015F000672C7724C3010C2C02C0959587950A941B
:10160000E2F780FF30C05520D9F0D7016D917D9170
:101610008D919C91F40120813181428153810E94FE
:101620008B239B01AC01D8016D917D918D919C9193
:101630000E948B23F80160837183828393831DC092
:10164000D8016D917D918D919C91F5012081318121
:10165000428153810E948B23D8016D937D938D939A
:101660009C9313970AC0F50180819181A281B38177
:10167000F80180839183A283B3830894C11CD11C99
:101680000C5F1F4F44E050E0A40EB51EE40EF51EA3
:10169000840E951E53E0C516D10409F0ABCF6F81BF
:1016A000788589859A852B853C854D855E85EF8477
:1016B000F88809891A89A090DA06B090DB06C090F4
:1016C000DC06D090DD0688240E9421030E94B5022A
:1016D0008CE0E5E2F1E0DF011D928A95E9F75EC05A
:1016E000772021F486E08093160159C0A5E2AA2E46
:1016F000A1E0BA2EF7E0CF2ED12CCC0EDD1EEAEF02
:10170000EE2EE5E0FE2E00E010E0872C9924C401C7
:10171000002E02C0959587950A94E2F780FF28C0B5
:101720008091ED0590E0FC01EE0FFF1FE80FF91F1F
:10173000E00FF11FEE0FFF1FEE0FFF1FE251FA4FF8
:10174000D5016D917D918D919C9120813181428156
:1017500053810E948A23F601208131814281538185
:101760000E948A23D7016D937D938D939C93139749
:101770000F5F1F4FE4E0F0E0AE0EBF1ECE0EDF1E87
:10178000EE0EFF1E0330110511F608C08CE0EAEFE3
:10179000F5E0DF011D928A95E9F701C0992422FC4A
:1017A00003C0992009F4ADC280901801882099F0F7
:1017B0006F8D78A189A19AA120E030E040E050E04F
:1017C0000E94642488233CF480911701843019F02E
:1017D00086E080931601B8A5BB2339F080911701EC
:1017E000823018F086E080931601809116018823DC
:1017F00009F093C230901A018E01095F1F4F90913A
:10180000ED058CE0989F70011124EEEEF5E0EE0EF0
:10181000FF1E5AEF652E55E0752E45E2A42E41E0DD
:10182000B42ECC24DD24492C5524C2010C2C02C03A
:10183000959587950A94E2F780FF33C0F8A5FF23BA
:10184000D1F53320D9F0D7016D917D918D919C9187
:10185000F30120813181428153810E948B239B01BE
:10186000AC01D8016D917D918D919C910E948B234B
:10187000F80160837183828393831DC0D8016D91C9
:101880007D918D919C91F50120813181428153811F
:101890000E948B23D8016D937D938D939C93139716
:1018A0000AC0F50180819181A281B381F801808312
:1018B0009183A283B3830894C11CD11C0C5F1F4F7A
:1018C00044E050E0E40EF51E640E751EA40EB51E35
:1018D00053E0C516D10409F0A8CF809117018430D8
:1018E00048F4823008F04CC0882359F0813009F068
:1018F000FBC120C0843009F0F7C1992009F4F4C17C
:1019000087C0992009F484C06F81788589859A857C
:101910002B853C854D855E85EF84F88809891A8979
:10192000A090DA06B090DB06C090DC06D090DD0611
:10193000882423C0992009F46BC06F81788589853C
:101940009A852B853C854D855E85EF84F8880989CD
:101950001A89882061F4A0911D01A9A7B0911E01E8
:10196000BAA7E0911F01EBA7F0912001FCA7E9A520
:10197000FAA5ABA5BCA55F016D010E942103B4C10E
:1019800081E090E00090360102C0880F991F0A9410
:10199000E2F780958921E1F16BA17CA18DA19EA147
:1019A00020E030E040E050E00E9464248823A1F56C
:1019B000E0913401F0E0EE0FFF1FEE0FFF1F8E01EC
:1019C0000F5F1F4FE00FF11F62897389848995892A
:1019D00020E030E040E050E00E9464248823E1F4FD
:1019E0008091350190E0880F991F880F991F080F8B
:1019F000191FD80152966D917D918D919C915597AB
:101A000020E030E040E050E00E946424882321F48C
:101A100086E08093160168C16BA17CA18DA19EA177
:101A200020E030E040E050E00E9464248E010F5F2F
:101A30001F4F882309F4EFC0E0913401F0E0EE0F6E
:101A4000FF1FEE0FFF1FD801AE0FBF1FEA5EFE4F54
:101A500016966D917D918D919C911997278530896E
:101A6000418952890E948A231B012C01E091350192
:101A7000F0E0EE0FFF1FEE0FFF1F0E0F1F1FEA5EBD
:101A8000FE4FD80116966D917D918D919C9119977D
:101A900027853089418952890E948A233B014C0164
:101AA0008CE0FE017396DF011D928A95E9F76BA128
:101AB0007CA18DA19EA120E030E040E850E40E948E
:101AC00039272BA13CA14DA15EA10E9439277B01A2
:101AD0008C01C201B101A20191010E9439279B0131
:101AE000AC01C801B7010E948A237B018C01C401AB
:101AF000B301A40193010E9439279B01AC01C801E5
:101B0000B7010E948A230E94C6277B018C01C20173
:101B1000B101A40193010E9474269B01AC0117FB43
:101B2000109517F91095C801B7010E946B246B013D
:101B30007C01A70196010E940E28882321F084E0F1
:101B400080931601EAC080911701833021F4F7FADF
:101B5000F094F7F8F0946BA17CA18DA19EA120E0F8
:101B600030E040E050E00E94642488236CF4F7FAEF
:101B7000F094F7F8F0944BA15CA16DA17EA1705890
:101B80004BA35CA36DA37EA300913401A02EBB24C4
:101B9000AA0CBB1CAA0CBB1C8E010F5F1F4FA00E12
:101BA000B11EC401B301A70196010E9439279B0110
:101BB000AC01C201B1010E948A2320E030E040E084
:101BC0005FE30E943927D50152966D937D938D93E3
:101BD0009C9355978091350190E0880F991F880F4D
:101BE000991F080F191FC201B101A70196010E9498
:101BF00039279B01AC01C401B3010E948B2320E073
:101C000030E040E05FE30E943927F801628B738B7C
:101C1000848B958B23C0E0913401F0E0EE0FFF1F21
:101C2000EE0FFF1FE00FF11F628973898489958988
:101C30002091350130E0220F331F220F331F020F96
:101C4000131FD80152962D913D914D915C9155975E
:101C50000E9474266BA37CA38DA39EA39091170171
:101C60002091340100913501E090360180901801F7
:101C7000882061F4B0911D01B9A7E0911E01EAA787
:101C8000F0911F01FBA7409120014CA700D000D08C
:101C90000F92EDB7FEB731964BA15CA16DA17EA16D
:101CA000ADB7BEB711964D935D936D937C9314972A
:101CB00080E0923009F481E0848385E291E0BE0106
:101CC000695F7F4FAE014D5E5F4F39A5EAA5FBA569
:101CD000ACA5A32EBE2ECF2EDA2E0E9466030F9047
:101CE0000F900F900F900F90809116018823A9F408
:101CF000A5E2B1E0FE0137968CE001900D92815093
:101D0000E1F780911B01882331F00E942821109275
:101D1000E00510921B0180911601AC960FB6F89465
:101D2000DEBF0FBECDBFCF91DF911F910F91FF900E
:101D3000EF90DF90CF90BF90AF909F908F907F906B
:101D40006F905F904F903F902F90089510923701C1
:101D5000389A279A4098089540980895CF93DF9332
:101D6000EC018091370190E0C817D90779F00E9403
:101D70002821209741F01C161D0614F42F9801C04D
:101D80002F9A409A01C04098C0933701DF91CF91BC
:101D90000895EF92FF920F931F937B018C0122E035
:101DA00030E040E050E00E946B28205C3D4B404F0B
:101DB0005F4FCA01B901A80197010E946B28215009
:101DC00030403093C5002093C400E0ECF0E0808107
:101DD0008D7F8083E1ECF0E0808180618083808171
:101DE000886080838081806880831F910F91FF903D
:101DF000EF900895282FE0913A019E2F9F5F903435
:101E000031F490E004C08091070684FD0FC08091FA
:101E10003B019817C1F3F0E0E857F94F2083909306
:101E20003A018091C10080628093C10008951F92A1
:101E30000F920FB60F9211248F939F93EF93FF93FE
:101E400080913B01E82FF0E0E857F94F90819093A3
:101E5000C600982F9F5F903409F490E090933B0167
:101E600080913A01981729F48091C1008F7D809369
:101E7000C100FF91EF919F918F910F900FBE0F9036
:101E80001F9018959091390180913801891711F4AC
:101E9000EFEF0DC0E92FF0E0E85FF94FE081892F07
:101EA0008F5F80933901803811F4109239018E2FA1
:101EB0000895809138018093390108951F920F92FF
:101EC0000FB60F9211242F933F934F935F936F930D
:101ED0007F938F939F93AF93BF93EF93FF93209143
:101EE000C6002132A1F0223218F4283101F513C0C6
:101EF0002F3319F02E37D9F404C080910706816082
:101F000003C08091070682608093070621C08091FC
:101F100007068860F9CF8091070684FD04C00E94FF
:101F20009B110E94AC0E809107068061EDCFE0917D
:101F300038019E2F9F5F903809F490E0809139011D
:101F4000981731F0F0E0E85FF94F20839093380163
:101F5000FF91EF91BF91AF919F918F917F916F9181
:101F60005F914F913F912F910F900FBE0F901F9057
:101F700018958BE691E00E946F238AE491E00E941D
:101F80006F2310926E0110926F010895CF93DF932B
:101F9000EC01009719F485E491E036C08DE391E0FF
:101FA0000E946F23C330D105D1F0C430D1053CF479
:101FB000C130D10571F0C230D105E9F40DC0C53092
:101FC000D10599F0C530D1056CF0C630D10599F432
:101FD0000FC089E291E018C08FE091E015C087EF53
:101FE00090E012C080EE90E00FC088EC90E00CC052
:101FF00086EB90E009C0BE01882777FD8095982F79
:102000000E94222383EB90E00E946F23DF91CF9107
:102010000895FC018081843221F4CF010E946F1960
:102020000895CF010E942E070895DF93CF93CDB777
:10203000DEB72C970FB6F894DEBF0FBECDBFDE0122
:102040001196E1EEF5E08CE001900D928150E1F700
:1020500080E091E00E947D2369817A818B819C815F
:102060000E9406252091C8063091C9064091CA06F3
:102070005091CB060E946B240E94B32287E091E02E
:102080000E947D236D817E818F8198850E94062527
:102090002091CC063091CD064091CE065091CF06CE
:1020A0000E946B240E94B32287E091E00E947D236E
:1020B00069857A858B859C850E9406252091D006AE
:1020C0003091D1064091D2065091D3060E946B24E4
:1020D0000E94B32289E091E00E947D2369817A8188
:1020E0008B819C810E9406252091C8063091C906EB
:1020F0004091CA065091CB060E946B242091ED05B9
:1021000030E0F901EE0FFF1FE20FF31FEE0FFF1F8C
:10211000EE0FFF1FE252FA4F20893189428953891D
:102120000E948A232091FA053091FB054091FC051D
:102130005091FD050E948A230E94B32287E091E01E
:102140000E947D236D817E818F8198850E94062566
:102150002091CC063091CD064091CE065091CF060D
:102160000E946B242091ED0530E0F901EE0FFF1F76
:10217000E20FF31FEE0FFF1FEE0FFF1FE252FA4FA9
:1021800024893589468957890E948A232091FE0532
:102190003091FF0540910006509101060E948A236C
:1021A0000E94B32287E091E00E947D2369857A85B1
:1021B0008B859C850E9406252091D0063091D10602
:1021C0004091D2065091D3060E946B242091ED05D8
:1021D00030E0F901EE0FFF1FE20FF31FEE0FFF1FBC
:1021E000EE0FFF1FE252FA4F208D318D428D538D3D
:1021F0000E948A2320910206309103064091040632
:10220000509105060E948A230E94B32282E191E048
:102210000E947D232C960FB6F894DEBF0FBECDBF73
:10222000CF91DF9108951F9380910706882381F154
:1022300080910706182F84FF04C081E08093DE059B
:1022400027C080FF07C00E941510809107068E7F6F
:102250008093070613FF07C00E948412809107062F
:10226000877F8093070612FF07C00E949212809119
:1022700007068B7F8093070611FF0AC00E945F123A
:1022800081E08093E005809107068D7F80930706AB
:102290001F9108951F9311E046C02A3011F02D3090
:1022A000E1F40E9413118091DE05882309F041C0FA
:1022B000E0916E01EE2351F0F0E0E45CFE4F1082FD
:1022C0008CE391E00E94091090E002C080E090E071
:1022D0000E94C60F10926E0106C080916F01882384
:1022E00029F0293201F510926F011DC02132D8F07A
:1022F0002F32C9F0283219F410936F0114C0909155
:102300006E01913380F4822F8156E92FF0E09F5FB8
:102310008A3120F4E45CFE4F205202C0E45CFE4FA0
:10232000208390936E010E94420F282F8F3F09F067
:10233000B4CF1F91089580916F008D7F80936F00BF
:102340008AEF90E020E931E0F9013197F1F7019748
:10235000D9F78091EB06882311F4289A08952898DC
:1023600008951F920F920FB60F9211248F939F938F
:102370009BB18091DE0684759B7A892B8BB9109274
:10238000B1009F918F910F900FBE0F901F901895E5
:102390008AB18C6F8AB98BB183709091DE06892BDC
:1023A0008BB9209AE1E8F0E080818F7E8083808184
:1023B00088608083E0E8F0E080818D7F8083808189
:1023C0008E7F808380818F73808380818F7C8083E8
:1023D0001092B0001092B100E0E7F0E080818160DF
:1023E00080830E949B1108959B01AC01203283E001
:1023F000380780E0480780E0580720F420E233E007
:1024000040E050E060E070E788E399E30E944928EB
:10241000C901DA01803020E0920721E0A20720E024
:10242000B20738F4FC019C0140E050E060E070E04D
:1024300031C0803020E0920728E0A20720E0B207F8
:10244000A8F473E0B695A795979587957A95D1F7F7
:10245000FC019C0140E050E063E0220F331F441F69
:10246000551F6A95D1F761E070E014C026E0B6957B
:10247000A795979587952A95D1F7FC019C0140E097
:1024800050E086E0220F331F441F551F8A95D1F775
:1024900062E070E080918100962F9F5F887F982B8B
:1024A00090938100F0938900E09388002093840149
:1024B0003093850140938601509387010895809160
:1024C0000606882301F58091DF058823E1F481E089
:1024D000809306068091DE06809397018091D50651
:1024E00090E0A0E0B0E00297A109B109880F991F20
:1024F000AA1FBB1F819580939601289880916F0039
:10250000826080936F0008958091DF05882349F4ED
:1025100080910606882329F01092E00581E08093DF
:10252000DF050895E0919401F09195013097A1F1B4
:10253000658576858785908920918001309181011C
:102540004091820150918301621B730B840B950BA8
:102550000E94331D10928C0110928D0110928E01F9
:1025600010928F0160E070E080E090E00E94F41132
:1025700080E091E7A2E0B0E0809388019093890128
:10258000A0938A01B0938B01109280011092810177
:1025900010928201109283011092DF05089584E267
:1025A000E0E7F1E0DF011D928A95E9F760E273E070
:1025B00080E090E00E94F411109295011092940135
:1025C0001092980108951F920F920FB60F92112446
:1025D000EF92FF920F931F932F933F934F935F932D
:1025E0006F937F938F939F93AF93BF93CF93DF931B
:1025F000EF93FF9380919801882309F050C39BB11A
:1026000020919701822F887A9775892B8BB98BB18E
:102610008B7A822B8BB9809196018093B20082E0F5
:102620008093B10081E08093980178948091940127
:1026300090919501892B09F081C00E94DF19EC016E
:102640009093950180939401009709F46EC0809156
:10265000DF058823D1F46BA17CA18DA19EA160939D
:102660008C0170938D0180938E0190938F010E9455
:10267000F41180E091E7A2E0B0E0809388019093AC
:102680008901A0938A01B0938B012BA53CA54DA590
:102690005EA5DA01C901B595A79597958795820F33
:1026A000931FA41FB51F8093900190939101A09355
:1026B0009201B09393012D853E854F855889DA01AB
:1026C000C901B595A79597958795B095A0959095D3
:1026D00081959F4FAF4FBF4F8093700190937101D1
:1026E000A0937201B093730180937401909375016C
:1026F000A0937601B093770180937801909379014C
:10270000A0937A01B0937B0120937C0130937D01EB
:1027100040937E0150937F011092800110928101BD
:10272000109282011092830109C00E949B111092A5
:10273000060680910706846080930706E091940165
:10274000F0919501309709F4A1C22081209397015F
:10275000409170015091710160917201709173010B
:1027600081819281A381B481480F591F6A1F7B1F09
:1027700040937001509371016093720170937301E3
:102780001416150616061706C4F524602093970143
:1027900080917C0190917D01A0917E01B0917F019B
:1027A000481B590B6A0B7B0B4093700150937101CE
:1027B000609372017093730123FF0CC08091E10557
:1027C0009091E205A091E305B091E4050197A1097C
:1027D000B1090BC08091E1059091E205A091E3055C
:1027E000B091E4050196A11DB11D8093E105909380
:1027F000E205A093E305B093E40540917401509184
:102800007501609176017091770185819681A7812C
:10281000B085480F591F6A1F7B1F40937401509366
:1028200075016093760170937701141615061606EC
:102830001706D4F52091970120612093970180918C
:102840007C0190917D01A0917E01B0917F01481B98
:10285000590B6A0B7B0B4093740150937501609385
:1028600076017093770125FF0CC08091E50590916A
:10287000E605A091E705B091E8050197A109B10926
:102880000BC08091E5059091E605A091E705B09118
:10289000E8050196A11DB11D8093E5059093E6051D
:1028A000A093E705B093E805409178015091790134
:1028B00060917A0170917B0181859285A385B485B1
:1028C000480F591F6A1F7B1F40937801509379016D
:1028D00060937A0170937B0114161506160617068D
:1028E000D4F52091970120642093970180917C0179
:1028F00090917D01A0917E01B0917F01481B590B01
:102900006A0B7B0B409378015093790160937A01B5
:1029100070937B0127FF0CC08091E9059091EA0537
:10292000A091EB05B091EC050197A109B1090BC08D
:102930008091E9059091EA05A091EB05B091EC0535
:102940000196A11DB11D8093E9059093EA05A0931E
:10295000EB05B093EC05209180013091810140910D
:102960008201509183012F5F3F4F4F4F5F4F209364
:1029700080013093810140938201509383018585CA
:102980009685A785B089281739074A075B0708F09D
:1029900077C18091DF05882309F45DC0209184010F
:1029A0003091850140918601509187018091880185
:1029B00090918901A0918A01B0918B01280F391F54
:1029C0004A1F5B1F209388013093890140938A013D
:1029D00050938B01213002EE300704E0400700E005
:1029E000500708F453C12050324E444050402093C9
:1029F00088013093890140938A0150938B01209183
:102A00008C0130918D0140918E0150918F0163A511
:102A100074A585A596A5621773078407950750F0DE
:102A20000E949B1110920606809107068460809395
:102A300007062CC179018A01E61AF70A080B190B5F
:102A4000C801B701E0928C01F0928D0100938E01D4
:102A500010938F016CC087A590A9A1A9B2A92817CE
:102A600039074A075B0708F065C02091840130915F
:102A70008501409186015091870180918801909154
:102A80008901A0918A01B0918B01280F391F4A1F3B
:102A90005B1F209388013093890140938A015093F2
:102AA0008B01213002EE300704E0400700E05007C0
:102AB00008F4ECC02050324E44405040209388012E
:102AC0003093890140938A0150938B0183A594A58B
:102AD000A5A5B6A520918C0130918D0140918E0164
:102AE00050918F01820F931FA41FB51F80938C01FB
:102AF00090938D01A0938E01B0938F0127A930ADE3
:102B000041AD52AD82179307A407B50740F020935B
:102B10008C0130938D0140938E0150938F01609111
:102B20008C0170918D0180918E0190918F010E9496
:102B3000F411ACC083A994A9A5A9B6A9281739078F
:102B40004A075B0708F480C0281739074A075B0764
:102B500069F480E091E7A2E0B0E08093880190936F
:102B60008901A0938A01B0938B0190C020918401C8
:102B700030918501409186015091870180918801B3
:102B800090918901A0918A01B0918B01280F391F82
:102B90004A1F5B1F209388013093890140938A016B
:102BA00050938B01213012EE310714E0410710E001
:102BB000510708F46BC02050324E444050402093DF
:102BC00088013093890140938A0150938B012091B1
:102BD0008C0130918D0140918E0150918F01809137
:102BE000900190919101A0919201B091930182176F
:102BF0009307A407B50748F483A594A5A5A5B6A592
:102C0000281B390B4A0B5B0B04C05695479537952B
:102C1000279520938C0130938D0140938E01509322
:102C20008F0127A130A541A552A580918C019091DB
:102C30008D01A0918E01B0918F0182179307A40797
:102C4000B50708F06CCF63CF27A930AD41AD52ADC9
:102C500080918C0190918D01A0918E01B0918F0196
:102C600082179307A407B50789F020938C0130934E
:102C70008D0140938E0150938F01CA01B90157CF46
:102C800010929501109294010E94D01980919701A1
:102C90009091DE0689278093970110929801FF9109
:102CA000EF91DF91CF91BF91AF919F918F917F91E4
:102CB0006F915F914F913F912F911F910F91FF90D5
:102CC000EF900F900FBE0F901F901895F999FECFBF
:102CD00092BD81BD81E08FBB80B50895F894F999CC
:102CE000FECF92BD81BD81E08FBB40B54627842FCA
:102CF000992787FD9095262F30E082239323892BF7
:102D000039F06F3F19F060BD84E006C084E104C073
:102D1000442321F060BD84E28FBBF99A7894089532
:102D20008F929F92AF92BF92CF92DF92EF92FF92DB
:102D30000F93DF93CF9300D0CDB7DEB75C016B016B
:102D40007A014A0100E01EC0002319F021E030E0C2
:102D500008C0202F332727FD30952227330F221F4D
:102D60003327F60161916F01062F020F9C012F5F3F
:102D70003F4F3A8329830E946E1608948108910878
:102D800089819A8181149104F9F6C7018A0D9B1DEE
:102D9000602F0E946E160F900F90CF91DF910F91D0
:102DA000FF90EF90DF90CF90BF90AF909F908F906B
:102DB0000895CF93DF93EC01FB019A0190E0B1E01D
:102DC00019C0F999FECFF2BDE1BDBFBBA0B59923F3
:102DD00019F081E090E008C0892F992787FD909530
:102DE0008827990F881F992731969A2F980FA993B2
:102DF000215030402115310521F7460F571FF99911
:102E0000FECF52BD41BD81E08FBB80B520E030E0F8
:102E1000981711F421E030E0C901DF91CF910895B6
:102E200084EF99EFACE3B4E48093C8069093C906AD
:102E3000A093CA06B093CB068093CC069093CD06A0
:102E4000A093CE06B093CF068093D0069093D10680
:102E5000A093D206B093D3068EE18093D50680E08E
:102E600090E0AAEFB3E48093D6069093D706A093A0
:102E7000D806B093D9068093DA069093DB06A09328
:102E8000DC06B093DD0680E098ECAFE2B8E4809316
:102E9000E3069093E406A093E506B093E6068DEC76
:102EA0009CECACECBDE38093DF069093E006A0932E
:102EB000E106B093E20684E58093DE068DEC9CEC9F
:102EC000ACE4BDE38093E7069093E806A093E9069F
:102ED000B093EA0681E08093EB06089580E090E0ED
:102EE00064E00E946E1681E090E068EC76E044E2D7
:102EF00050E00E9490160895EF92FF920F931F9357
:102F0000CF93DF93EC017A018B018530910509F4B1
:102F10005DC08630910554F483309105C1F1843051
:102F200091050CF04AC097FF1AC095C088309105F2
:102F300009F467C0893091054CF48630910509F495
:102F40004EC08730910509F086C052C08930910586
:102F500009F46EC08336910509F07DC075C0CB01C0
:102F6000BA0120E030E040E050E00E9464241816EE
:102F70001CF082E092E076C0CC0FDD1FCC0FDD1F8D
:102F8000C853D94FE882F9820A831B8367C0CB01FB
:102F9000BA0120E030E040E450E40E946424882339
:102FA0001CF48BED91E05EC0C801B7010E949C2724
:102FB0000E94D8246093D50651C04093D606509302
:102FC000D7066093D8067093D90648C04093DA06B6
:102FD0005093DB066093DC067093DD063FC04093A0
:102FE000DF065093E0066093E1067093E20636C078
:102FF000CB01BA010E9407280E94D8246093DE0604
:103000002DC0CB01BA0120E030E040E752E40E943D
:10301000392720E030E040E752E40E9439276093EE
:10302000E3067093E4068093E5069093E60616C0E7
:10303000DB01CA01BF778093E7069093E806A0936F
:10304000E906B093EA060AC0CB01BA010E94D8246F
:103050006093EB0603C087EC91E004C00E946E17FA
:1030600082EB91E00E946F23DF91CF911F910F912E
:10307000FF90EF9008951F9380E090E00E94661605
:10308000182F843081F488EC96E061E070E044E22F
:1030900050E00E94D91620E0892B09F421E081E05C
:1030A000282730E05EC0813021F588EC96E061E0B1
:1030B00070E04CE150E00E94D916892B09F44FC012
:1030C00080E098ECAFE2B8E48093E3069093E406E6
:1030D000A093E506B093E6068DEC9CECACE4BDE372
:1030E0008093E7069093E806A093E906B093EA067A
:1030F00031C08250823098F588EC96E061E070E053
:1031000044E250E00E94D916892B49F1123061F453
:103110008DEC9CECACE4BDE38093E7069093E8066D
:10312000A093E906B093EA066091E3067091E40685
:103130008091E5069091E60620E030E041E655E416
:103140000E9439276093E3067093E4068093E506B6
:103150009093E6060E946E1721E030E002C020E066
:1031600030E0C9011F91089583EC93E00E946F2322
:103170006091C8067091C9068091CA069091CB06ED
:103180000E94B3228EEA93E00E946F236091CC06E6
:103190007091CD068091CE069091CF060E94B32209
:1031A00089E993E00E946F236091D0067091D10667
:1031B0008091D2069091D3060E94B32284E893E0D6
:1031C0000E946F236091D50670E080E090E00E943D
:1031D000222382E693E00E946F236091D6067091CD
:1031E000D7068091D8069091D9060E94B3228FE32A
:1031F00093E00E946F236091DA067091DB06809164
:10320000DC069091DD060E94B3228CE193E00E94DF
:103210006F236091DF067091E0068091E106909146
:10322000E2060E94B32283E093E00E946F23609144
:10323000DE0670E080E090E00E94222380EE92E0C3
:103240000E946F238091DE060E943E2387ED92E06C
:103250000E946F236091E3067091E4068091E50679
:103260009091E60620E030E041E655E40E946B24B0
:103270000E94B32284EB92E00E946F236091E706E4
:103280007091E8068091E9069091EA060E94B322C7
:103290008EE892E00E946F2384E892E00E946F2300
:1032A00080E692E00E946F236091EB0670E080E080
:1032B00090E00E9422238BE192E00E946F23089508
:1032C0000E943B18892B51F487E791E00E946F23FD
:1032D0000E9410170E946E170E94B4180895EF9272
:1032E000FF920F931F93DF93CF93CDB7DEB729974C
:1032F0000FB6F894DEBF0FBECDBF8C0181E089838D
:10330000F80180818432E1F58181882319F40E94DB
:10331000B41834C0C8017E010894E11CF11CB70147
:10332000AE014E5F5F4F0E946C21892B59F199814C
:10333000F801E90FF11D80818D3311F59F5F9983AD
:10334000C801B701AE014A5F5F4F0E946C21892B13
:10335000C9F08981080F111DF8018081882381F44B
:103360006A817B818C819D810E94D324DC01CB0109
:103370004E815F81688579850E947C1780E003C05B
:1033800083E001C081E029960FB6F894DEBF0FBE3E
:10339000CDBFCF91DF911F910F91FF90EF900895D6
:1033A0009091BF058091C005981741F08091C005AC
:1033B0008F5F823109F480E08093C0050895909179
:1033C000BF058091C005981719F420E030E008C0CF
:1033D0009091C0058BE3989F9001112427563E4F92
:1033E000C90108959091C00520E08091C10598170A
:1033F00009F421E0822F0895EF92FF920F931F931B
:103400006093C2057093C3058093C4059093C5056E
:103410002093C6053093C7054093C8055093C9054E
:10342000E092CA05F092CB050093CC051093CD0530
:103430001F910F91FF90EF9008958F929F92AF92FE
:10344000BF92CF92DF92EF92FF920F931F93CF9391
:10345000DF93EC016B01009709F460C08AA1882317
:1034600009F05CC0ED88FE880F89188DFB01B588D6
:10347000A6889788808CC801B7012B2D3A2D492D3D
:10348000582D0E94642488230CF048C0C801B7015D
:10349000A80197010E9439277B018C016091E30606
:1034A0007091E4068091E5069091E606905820E040
:1034B00030E040E050EC0E9439272D8D3E8D4F8D3D
:1034C00058A10E9439279B01AC01C801B7010E9495
:1034D0008B230E94C6277B018C016B2D7A2D892DB1
:1034E000982D9701A8010E946424882324F4EB2CD2
:1034F000FA2C092D182D6B2D7A2D892D982D9701D9
:10350000A8010E946424882349F0C701D801F6016C
:10351000858B968BA78BB08F81E081A3DF91CF91B4
:103520001F910F91FF90EF90DF90CF90BF90AF90E1
:103530009F908F9008952F923F924F925F926F923B
:103540007F928F929F92AF92BF92CF92DF92EF9233
:10355000FF920F931F93DF93CF93CDB7DEB768979A
:103560000FB6F894DEBF0FBECDBF1C016A017B0110
:1035700028013901DC01D7966D917D918D919C9147
:10358000DA970E9404254B015C01A70196010E9475
:1035900039270E9451240E94D8247B018C01F1011B
:1035A00063A374A385A396A3C501B401A3019201EB
:1035B0000E9439270E9451240E94D82469877A8763
:1035C0008B879C87D10197966D937D938D939C9368
:1035D0009A979B966D917D918D919C919E9722E3F8
:1035E00030E040E050E00E942A280E94062520E0BA
:1035F00030E040E752E40E9439270E94D3242B0197
:103600003C01C801B7010E9404257B018C01C30164
:10361000B2010E9406256D837E838F839887C50142
:10362000B401A50194010E9439275B016C01C80116
:10363000B701A80197010E9439276D877E878F8780
:10364000988B6D817E818F8198859B01AC010E9452
:103650008B23698B7A8B8B8B9C8BC601B5012D8557
:103660003E854F8558890E948A2329893A894B894A
:103670005C890E946B240E9451240E94D324698398
:103680007A838B839C8369857A858B859C850E9450
:1036900004259B01AC010E9439276D8B7E8B8F8B9B
:1036A000988FA60195010E948A237B018C0170945A
:1036B000609450944094411C511C611C711CC301C6
:1036C000B2010E9406259B01AC010E948B239B0145
:1036D000AC01C801B7010E946B240E944125F10191
:1036E000A584B684C784D0888601750129813A8172
:1036F0004B815C81E21AF30A040B150B0E94D32460
:10370000A8019701261B370B480B590BDA01C90199
:1037100057FF4AC0C601B5010E9406259B01AC01B6
:1037200069897A898B899C890E9439272D853E85F4
:103730004F8558890E948A232D893E894F89588D4B
:103740000E948B237B018C016D817E818F81988506
:1037500020E030E040E850E40E9439279B01AC01B2
:10376000C801B7010E946B240E9451240E94D324F7
:10377000AC01CB01DA01BC01CD0197FF04C060E0D0
:1037800070E080E090E069837A838B839C83A61647
:10379000B706C806D90624F4A982BA82CB82DC8295
:1037A00080E090E0A0E0B0E029813A814B815C812B
:1037B000F10127A730AB41AB52AB820F931FA41F7F
:1037C000B51F83AB94ABA5ABB6AB68960FB6F894B8
:1037D000DEBF0FBECDBFCF91DF911F910F91FF9044
:1037E000EF90DF90CF90BF90AF909F908F907F90A1
:1037F0006F905F904F903F902F9008952F923F923F
:103800004F925F927F928F929F92AF92BF92CF9290
:10381000DF92EF92FF920F931F93CF93DF93D0909D
:10382000BF058091E3069091E406A091E506B09172
:10383000E6061C012D0157FA509457F8509400E009
:1038400010E0C0E0D0E0BB24B3943BE3C32E72C0D1
:10385000DD2011F422E1D22EDA94209709F463C01E
:103860000115110509F45FC0A98C9A8C8B8C7C8C96
:103870006D897E898F89988D2A2D392D482D572D58
:103880000E946424882309F44EC08AA1882309F089
:1038900041C0F801E588F6880789108D6A2D792DD9
:1038A000882D972DA80197010E946726181694F578
:1038B000C801B701A80197010E9439277B018C013B
:1038C000C201B10120E030E040E050EC0E94392715
:1038D0002D8D3E8D4F8D58A10E9439279B01AC0143
:1038E000C801B7010E948B230E94C627162F072FFD
:1038F000F82EE92E6A2D792D882D972D212F302F26
:103900004F2D5E2D0E94642487FD04C0A12E902EB1
:103910008F2C7E2C8A2D992DA82DB72D8D8B9E8BCB
:10392000AF8BB88FB9A2DC9CC00111248E01EC01D1
:10393000C756DE4F8091C005D81609F089CFF090A8
:10394000C00520E030E000E010E09BE3E92E11C06C
:10395000FE9CE0011124C756DE4FC901B801AE013B
:103960000E941D1AF394F2E1FF1609F4FF24980156
:103970008E018091BF05F81659F7C901B80140E0E2
:1039800050E00E941D1A7090C005C0E0D0E08BE3AB
:10399000582E35C0759C4001112489E991E0880EAC
:1039A000991E209731F189A1882321F4F40181A186
:1039B0008823F9F0E988FA880B891C896D897E894A
:1039C0008F89988DA80197010E946B245B016C017F
:1039D000F401658976898789908DA80197010E94F5
:1039E0006B248B019C01CE01B601A5010E949B1A9C
:1039F00019A27394F2E17F1609F47724E40180910F
:103A0000BF05781639F6E988FA880B891C896D8913
:103A10007E898F89988DA80197010E946B245B0194
:103A20006C0160E070E080E090E0A80197010E94E6
:103A30006B248B019C01CE01B601A5010E949B1A4B
:103A400019A2DF91CF911F910F91FF90EF90DF901E
:103A5000CF90BF90AF909F908F907F905F904F904E
:103A60003F902F900895AF92BF92CF92DF92EF9246
:103A7000FF920F931F93CF93DF935B016C019091A3
:103A8000C0058BE3989FE0011124C756DE4FC601A5
:103A9000B5010E9406252D8D3E8D4F8D58A10E94A7
:103AA00039277B018C016D857E858F8598890E94E1
:103AB00006259B01AC01C801B7010E946B246D8FE4
:103AC0007E8F8F8F98A3AD86BE86CF86D88A80E002
:103AD00090E0A0E0B0E08D8B9E8BAF8BB88F898F8C
:103AE0009A8FAB8FBC8F1AA281E089A30E94FE1B24
:103AF000DF91CF911F910F91FF90EF90DF90CF90CA
:103B0000BF90AF9008952F923F924F925F926F9225
:103B10007F928F929F92AF92BF92CF92DF92EF925D
:103B2000FF920F931F93DF93CF93CDB7DEB7AF977D
:103B30000FB6F894DEBF0FBECDBF29013A01ADA28A
:103B4000BEA2CFA2D8A689A63091BF052BE3329F93
:103B50001001112429E931E0220E331E2091C806FC
:103B60003091C9064091CA065091CB060E94392770
:103B70000E94092769837A838B839C83C301B201E6
:103B80002091CC063091CD064091CE065091CF06C3
:103B90000E9439270E9409276D837E838F8398872F
:103BA000C801B7012091D0063091D1064091D206CC
:103BB0005091D3060E9439270E94092769877A8786
:103BC0008B879C87D1011C9229813A814B815C8132
:103BD0008091C2059091C305A091C405B091C5051F
:103BE000281739074A075B071CF488E0F101808336
:103BF0002D813E814F8158858091C6059091C705E2
:103C0000A091C805B091C905281739074A075B0775
:103C100024F4D1018C9180628C9329853A854B855F
:103C20005C858091CA059091CB05A091CC05B0919F
:103C3000CD05281739074A075B0724F4F101808175
:103C40008068808329813A814B815C818091C205A3
:103C50009091C305A091C405B091C505281B390BEF
:103C60004A0B5B0B57FF07C0509540953095219547
:103C70003F4F4F4F5F4FD10111962D933D934D9381
:103C80005C931497AD80BE80CF80D8848091C605A8
:103C90009091C705A091C805B091C905A81AB90AA5
:103CA000CA0ADB0AF101A582B682C782D086D7FE96
:103CB0000BC088279927DC018A199B09AC09BD092B
:103CC00085839683A783B08729853A854B855C8554
:103CD0008091CA059091CB05A091CC05B091CD05FE
:103CE000281B390B4A0B5B0B57FF07C050954095BB
:103CF000309521953F4F4F4F5F4FD10119962D932E
:103D00003D934D935C931C971596ED90FD900D910E
:103D10001C91189711968D919D910D90BC91A02D9D
:103D20008E159F05A007B10710F4D801C7018217AF
:103D30009307A407B50710F4DA01C901F1018587DB
:103D40009687A787B08B0097A105B10509F467C2D4
:103D500069817A818B819C812091C2053091C30554
:103D60004091C4055091C505621B730B840B950BE4
:103D70000E9406252091C8063091C9064091CA06C6
:103D80005091CB060E946B2469A37AA38BA39CA3BA
:103D9000C601B5010E9406252091CC063091CD06C2
:103DA0004091CE065091CF060E946B246D8F7E8F7E
:103DB0008F8F98A369857A858B859C852091CA050C
:103DC0003091CB054091CC055091CD05621B730B12
:103DD000840B950B0E9406252091D0063091D106C8
:103DE0004091D2065091D3060E946B24698F7A8F3E
:103DF0008B8F9C8F69A17AA18BA19CA19B01AC01A7
:103E00000E9439277B018C016D8D7E8D8F8D98A14D
:103E10009B01AC010E9439279B01AC01C801B7018D
:103E20000E948B237B018C01698D7A8D8B8D9C8DFB
:103E30009B01AC010E9439279B01AC01C801B7016D
:103E40000E948B230E94C6277B018C01D1015D96C5
:103E50006D937D938D939C93909760E070E080E8E4
:103E60009FE3A80197010E946B243B014C01B9A577
:103E7000BB2349F46DA17EA18FA198A5A401930154
:103E80000E9439270AC060E070E080E89FE32DA11E
:103E90003EA14FA158A50E946B245B016C01C80193
:103EA000B701A60195010E9439276AA77BA78CA7B5
:103EB0009DA7F101618B728B838B948B65857685D1
:103EC000878590890E9406257B018C01A6019501BA
:103ED0000E9439270E9451240E94D824D101D796EC
:103EE0006D937D938D939C93DA97C801B701A401DC
:103EF00093010E9439272091E3063091E406409116
:103F0000E5065091E6060E94392720E030E84BE3B1
:103F100055E40E946B240E9451240E94D324F10195
:103F200063A774A785A796A769A17AA18BA19CA175
:103F3000A40193010E9439277B018C016D877E8744
:103F40008F87988B6D8D7E8D8F8D98A1A4019301A5
:103F50000E9439275B016C01698B7A8B8B8B9C8B60
:103F6000698D7A8D8B8D9C8DA40193010E943927D8
:103F70003B014C016D8B7E8B8F8B988F9091BF0591
:103F80008091C005981709F4BDC0F091DA05FEA72D
:103F90002091DB052FA75090DC054090DD056F2FA9
:103FA000722F852D942D20E030E040E050E00E94FB
:103FB000672618160CF0A6C06091CE057091CF054B
:103FC0008091D0059091D1059058A80197010E9449
:103FD00039277B018C016091D2057091D3058091C6
:103FE000D4059091D505A60195010E9439279B0122
:103FF000AC01C801B7010E948A237B018C01C40176
:10400000B3012091D6053091D7054091D805509144
:10401000D9050E9439279B01AC01C801B7010E9454
:104020008A237B018C0123E333E343E75FE30E94B0
:10403000642488230CF066C06EA57FA5852D942D81
:104040002AA53BA54CA55DA50E94642487FD08C058
:104050008AA59BA5ACA5BDA58EA79FA75A2E4B2EC2
:10406000C801B70123E333E343E75FEB0E94672610
:1040700018160CF04CC060E070E080E89FE3A801E7
:1040800097010E948A2320E030E040E05FE30E9435
:1040900039270E94C6275B016C016091E30670918D
:1040A000E4068091E5069091E6062091E7063091BE
:1040B000E8064091E9065091EA060E943927A601D8
:1040C00095010E9439277B018C0160E070E080E857
:1040D0009FE3A60195010E948A239B01AC01C801C0
:1040E000B7010E946B240E94C6277B018C016EA53C
:1040F0007FA5852D942D9701A8010E94642487FD3A
:1041000006C009C0EE24FF2400E010E004C0EEA4C5
:10411000FFA4052D142DC701D801F101818F928FC5
:10412000A38FB48F6091E3067091E4068091E50659
:104130009091E606905820E030E040E050EC0E947C
:104140003927D1015D962D913D914D915C919097CC
:104150000E94392720E030E040E050E00E948B23AD
:104160000E94C627D62EC72EB82EA92EB701C80189
:104170002D2D3C2D4B2D5A2D0E94642487FD04C00B
:10418000ED2CFC2C0B2D1A2DC701D801F101858BCC
:10419000968BA78BB08F61897289838994892D2D25
:1041A0003C2D4B2D5A2D0E94642418162CF081E0D2
:1041B000D10192968C9302C0F10112A281E0D1014B
:1041C00091968C93AEECB5E0FE013D968CE00190AB
:1041D0000D928150E1F7F10181899289A389B48917
:1041E0008093DA059093DB05A093DC05B093DD05A1
:1041F0008091C1058093BF058091BF058F5F82319B
:1042000009F480E08093C105A2ECB5E0FE0131968F
:104210008CE001900D928150E1F70E94FE1BAF9659
:104220000FB6F894DEBF0FBECDBFCF91DF911F91C7
:104230000F91FF90EF90DF90CF90BF90AF909F9045
:104240008F907F906F905F904F903F902F90089548
:104250001F931BE306C00E9413118091DE05882383
:1042600091F49091BF058091C005981741F080911D
:10427000C005819FC001112487569E4F61F7809130
:104280000606882341F71F9108958091BF0580930A
:10429000C0058091BF058F5F823109F480E0809373
:1042A000C1058CE1E2ECF5E0DF011D928A95E9F7AA
:1042B000089520EA3FE004C0F9013197F1F7019732
:1042C0000097D1F7089535E004C0232F2A95F1F720
:1042D00001970097D1F70895AF92BF92CF92DF92E6
:1042E000EF92FF920F931F93DF93CF9300D0CDB740
:1042F000DEB76C015B017A01FB0180818601080F4A
:10430000111DC801BE016F5F7F4F0E948628F70113
:10431000608371838283938389819A818017910757
:1043200019F420E030E005C08C19F501808321E00C
:1043300030E0C9010F900F90CF91DF911F910F9145
:10434000FF90EF90DF90CF90BF90AF90089584B131
:104350008D7C84B908956F927F928F929F92AF92D5
:10436000BF92CF92DF92EF92FF920F931F93982EFE
:10437000A62EB42E670178018091D506C81AD108FF
:10438000E108F108992011F09CEA01C098EAA11017
:104390009061B1109064222311F088EA982700916F
:1043A000DE0609278BB1902F987A8775982B9BB9D9
:1043B00024E0622E90E1792E80E4882E83B199204A
:1043C00021F0199902C006259924AA2021F01C99F0
:1043D00002C00725AA24BB2021F01D9902C0082590
:1043E000BB24992021F4AA2011F4BB2089F08BB1C1
:1043F000102F1475812B8BB98091D50690E00E9407
:1044000063218BB118271BB9C6010E946321D6CF47
:104410001F910F91FF90EF90DF90CF90BF90AF90E2
:104420009F908F907F906F900895DF92EF92FF9210
:104430000F931F930E942821D3B080E060E041E0F9
:1044400020E0F0EAEF2EF6E8FF2EF1E00F2F112D1D
:104450000E94AB2181E061E040E020E00E94AB21BE
:1044600083B18D25827390E0BC01E4E07695679579
:10447000EA95E1F76170AC0175E0569547957A953C
:10448000E1F7417096958795817021E030E2E32E47
:1044900031EAF32E37E0032F112D0E94AB211F913B
:1044A0000F91FF90EF90DF900895AF92BF92CF925F
:1044B000DF92EF92FF920F93DF93CF93CDB7DEB7EA
:1044C000A2970FB6F894DEBF0FBECDBF6B017C0183
:1044D000611571058105910521F480E30E94FA0EB2
:1044E00032C000E05E010894A11CB11CC501800F20
:1044F000911D9AA389A3C701B6012AE030E040E0EC
:1045000050E00E944928E9A1FAA160830F5FC7012A
:10451000B6012AE030E040E050E00E944928C9019D
:10452000DA016C017D01C114D104E104F104F1F65A
:1045300008C0FE01E00FF11D8081805D0E94FA0E2F
:1045400001500023B1F7A2960FB6F894DEBF0FBE5C
:10455000CDBFCF91DF910F91FF90EF90DF90CF9083
:10456000BF90AF900895AF92BF92CF92DF92EF923B
:10457000FF920F931F93CF93DF937B018C0120E079
:1045800030E040E050E00E94642488233CF48DE257
:104590000E94FA0E17FB109517F91095C801B70184
:1045A0002AE037ED43EA5BE30E948B237B018C0119
:1045B0000E94D3245B016C01CC24B7FCC094DC2C9A
:1045C000C601B5010E9455228EE20E94FA0EC60174
:1045D000B5010E9406259B01AC01C801B7010E94EC
:1045E0008A23C2E0D0E01EC020E030E040E251E487
:1045F0000E9439275B016C010E94D3247B018C014E
:10460000862F805D0E94FA0E6E2D70E0882777FD60
:104610008095982F0E9406259B01AC01C601B5012B
:104620000E948A2321972FEFCF3FD207E9F6DF912F
:10463000CF911F910F91FF90EF90DF90CF90BF909F
:10464000AF900895EF92FF920F931F937B018C011F
:1046500097FF0BC08DE20E94FA0E10950095F09422
:10466000E094E11CF11C011D111DC801B7010E945D
:1046700055221F910F91FF90EF9008950F931F9374
:10468000DF93CF93CDB7DEB728970FB6F894DEBF90
:104690000FBECDBF982FFE0131969E01275F3F4F81
:1046A000892F817081939695E217F307C9F78E01E0
:1046B000085F1F4FF8018081805D0E94FA0E015053
:1046C00010400C171D07B1F728960FB6F894DEBFFF
:1046D0000FBECDBFCF91DF911F910F910895CF9362
:1046E000DF93EC0102C00E94FA0EFE012196849134
:1046F0008823C9F7DF91CF910895CF93DF93EC0121
:1047000003C021960E94FA0E88818823D1F7DF9199
:10471000CF9108955058BB27AA270ED076C23FD21A
:1047200030F044D220F031F49F3F11F41EF40FC258
:104730000EF4E095E7FBDCC1E92F89D280F3BA17CC
:10474000620773078407950718F071F49EF5B8C2E5
:104750000EF4E0950B2EBA2FA02D0B01B90190019C
:104760000C01CA01A0011124FF27591B99F0593FE0
:1047700050F4503E68F11A16F040A22F232F342F28
:104780004427585FF3CF469537952795A795F04076
:104790005395C9F77EF41F16BA0B620B730B840B8B
:1047A000BAF09150A1F0FF0FBB1F661F771F881F43
:1047B000C2F70EC0BA0F621F731F841F48F487959B
:1047C00077956795B795F7959E3F08F0B3CF93958A
:1047D000880F08F09927EE0F979587950895DFD1F8
:1047E00058F080E891E009F49EEFE0D128F040E82D
:1047F00051E059F45EEF09C0AAC162C2E92FE07826
:1048000026D268F3092E052AC1F326173707480771
:10481000590738F00E2E07F8E02569F0E025E0642E
:104820000AC0EF6307F8009407FADB01B9019D01A4
:10483000DC01CA01AD01EF935DD0E7D10AD05F91F1
:10484000552331F02BED3FE049E450FD49EC63CFB7
:104850000895DF93DD27B92FBF7740E85FE3161691
:10486000170648075B0710F4D92F96D29F938F93B2
:104870007F936F93C9D3E8E6F0E06CD1C6D12F9156
:104880003F914F915F9101D3DD2349F09058A2EA07
:104890002AED3FE049EC5FE3D0785D274DDFDF9103
:1048A000B4C1F7D180F09F3740F491110EF409C2E2
:1048B00060E070E080E89FE3089526F01B16611D1C
:1048C000711D811D1BC135C1EFD008F481E0089531
:1048D00075D1E395ABC10CD098C168D140F05FD1E0
:1048E00030F021F45F3F19F003C15111EAC12FC12B
:1048F000AED198F39923C9F35523B1F3951B550B0A
:10490000BB27AA2762177307840738F09F5F5F4FA2
:10491000220F331F441FAA1FA9F333D00E2E3AF0E3
:10492000E0E830D091505040E695001CCAF729D0FD
:10493000FE2F27D0660F771F881FBB1F261737074C
:104940004807AB07B0E809F0BB0B802DBF01FF277C
:1049500093585F4F2AF09E3F510568F0C9C0B1C11E
:104960005F3FECF3983EDCF3869577956795B795B6
:10497000F7959F5FC9F7880F911D9695879597F9D1
:104980000895E1E0660F771F881FBB1F621773074A
:104990008407BA0720F0621B730B840BBA0BEE1F5F
:1049A00088F7E095089504D06894B1118AC10895FC
:1049B00056D188F09F5790F0B92F9927B751A0F0A2
:1049C000D1F0660F771F881F991F1AF0BA95C9F7A3
:1049D00012C0B13081F074D1B1E0089571C1672F78
:1049E000782F8827B85F39F0B93FCCF38695779553
:1049F0006795B395D9F73EF490958095709561953C
:104A00007F4F8F4F9F4F0895E89409C097FB3EF466
:104A100090958095709561957F4F8F4F9F4F99230B
:104A2000A9F0F92F96E9BB279395F6958795779589
:104A30006795B795F111F8CFFAF4BB0F11F460FF49
:104A40001BC06F5F7F4F8F4F9F4F16C0882311F0A1
:104A500096E911C0772321F09EE8872F762F05C0B5
:104A6000662371F096E8862F70E060E02AF09A9550
:104A7000660F771F881FDAF7880F9695879597F945
:104A8000089507D180F09F3740F491110EF019C1BD
:104A900060E070E080E89FEB089526F41B16611D2E
:104AA000711D811D2BC045C0990F0008550FAA0B21
:104AB000E0E8FEEF16161706E807F907C0F0121631
:104AC0001306E407F50798F0621B730B840B950B34
:104AD00039F40A2661F0232B242B252B21F4089589
:104AE0000A2609F4A140A6958FEF811D811D089526
:104AF00097F99F6780E870E060E00895882371F47B
:104B0000772321F09850872B762F07C0662311F466
:104B100099270DC09051862B70E060E02AF09A959D
:104B2000660F771F881FDAF7880F9695879597F994
:104B300008959F3F31F0915020F4879577956795C0
:104B4000B795880F911D9695879597F908959FEFD2
:104B500080EC0895DF93CF931F930F93FF92EF9212
:104B6000DF927B018C01689405C0DA2EEF018DD1B4
:104B7000FE01E894A5912591359145915591AEF3AB
:104B8000EF01DADDFE019701A801DA9479F7DF90F1
:104B9000EF90FF900F911F91CF91DF910895002426
:104BA0000A941616170618060906089500240A9492
:104BB00012161306140605060895C9CF50D0E8F35F
:104BC000E894E0E0BB279F57F0F02AED3FE049EC86
:104BD00006C0EE0FBB0F661F771F881F28F0B23A82
:104BE00062077307840728F0B25A620B730B840BB9
:104BF000E3959A9572F7803830F49A95BB0F661F4B
:104C0000771F881FD2F7904896CF092E0394000C87
:104C100011F4882352F0BB0F40F4BF2B11F460FF56
:104C200004C06F5F7F4F8F4F9F4F0895EF93E0FF5A
:104C300006C0A2EA2AED3FE049EC5FEB7DDDE5DF4F
:104C40000F90039401FC9058E5E9F0E0F2C157FDA4
:104C50009058440F551F59F05F3F71F04795880FEA
:104C600097FB991F61F09F3F79F087950895121681
:104C700013061406551FF2CF4695F1DF08C016162D
:104C800017061806991FF1CF8695710561050894DE
:104C90000895E5DFA0F0BEE7B91788F4BB279F3879
:104CA00060F41616B11D672F782F8827985FF7CF0D
:104CB000869577956795B11D93959639C8F30895B4
:104CC000E894BB2766277727CB0197F90895ECDE98
:104CD00008F48FEF089563DF19F068DF09F037CF2C
:104CE00007CFB901CA0125CF9F775F77B0DF98F36F
:104CF0009923B9F35523B9F3FF27951758F4E52FF6
:104D0000E91BED3070F75E3B10F0F1E41CC090340D
:104D1000E0F40AC0E92FE51BED3028F79E3B10F0C8
:104D2000F1E411C0503488F4F9EA88232AF09A9506
:104D3000660F771F881FDAF744232AF05A95220F4F
:104D4000331F441FDAF79F1B5F1BFF931F930F93C3
:104D5000FF92EF9279018A01BB27AB2F9B01AC0137
:104D600096D09701A801BF937B018C01AA27BA2F87
:104D7000B901CA018CD0AF919701A801EF90FF90C3
:104D80000F911F91D9DC41DF01D14F9140FF089570
:104D9000552747FD509509C09B01AC0160E070E0CC
:104DA00080E89FE398CDA4CEC4CE59DFE8F39923E1
:104DB000D9F3940F511DBBF39150504094F059F02A
:104DC000882332F0660F771F881F91505040C1F73B
:104DD0009E3F510544F7880F911D9695879597F949
:104DE00008955F3FACF0983E9CF0BB278695779581
:104DF0006795B79508F4B1609395C1F7BB0F58F765
:104E000011F460FFE8CF6F5F7F4F8F4F9F4FE3CF6D
:104E100058CF25DF58F19E5758F19851A0F0E9F08E
:104E2000983020F5092E9927660F771F881F991F44
:104E30000A94D1F712C0062E672F782F8827985F23
:104E400011F4000C07C0993FB4F3869577956795E8
:104E50009395D9F7611D711D811D3EF49095809544
:104E6000709561957F4F8F4F9F4F0895689429CF1C
:104E700027CF0BD0CACE93DE28F098DE18F095230A
:104E800009F036CE64CE11241CCFE1DEA0F3959F4D
:104E9000D1F3950F50E0551F629FF001729FBB2721
:104EA000F00DB11D639FAA27F00DB11DAA1F649FCD
:104EB0006627B00DA11D661F829F2227B00DA11D80
:104EC000621F739FB00DA11D621F839FA00D611D06
:104ED000221F749F3327A00D611D231F849F600D27
:104EE000211D822F762F6A2F11249F5750408AF060
:104EF000E1F088234AF0EE0FFF1FBB1F661F771FEC
:104F0000881F91505040A9F79E3F510570F0F0CD99
:104F1000D8CE5F3FECF3983EDCF3869577956795A6
:104F2000B795F795E7959F5FC1F7FE2B880F911D09
:104F30009695879597F9089592DEE0F09E37D8F020
:104F40009639B8F49E3848F4672F782F8827985FF1
:104F5000F9CF86957795679593959539D0F3B62FC8
:104F6000B1706B0F711D811D20F487957795679542
:104F70009395C4CDDECDA5CE9F9320DE0F9007FC88
:104F8000EE5F54CE11F40EF4E2CDD3CD68DED0F353
:104F90009923D9F3CEF39F57550B87FF43D00024B5
:104FA000A0E640EA900180585695979528F4805CD9
:104FB000660F771F881F20F026173707480730F441
:104FC000621B730B840B202931294A2BA695179459
:104FD0000794202531254A2758F7660F771F881F29
:104FE00020F026173707480730F4620B730B840B49
:104FF000200D311D411DA09581F7B901842F9158D5
:10500000880F9695879508959B01AC0132CF41DEBC
:1050100020F09F3708F455CE71CD8BCD45DD880B40
:10502000990B089591505040660F771F881FD2F753
:1050300008959F938F937F936F93FF93EF939B01BB
:10504000AC0117DFEF91FF9185DD2F913F914F91DB
:105050005F910FCF629FD001739FF001829FE00D9F
:10506000F11D649FE00DF11D929FF00D839FF00DE7
:10507000749FF00D659FF00D9927729FB00DE11D93
:10508000F91F639FB00DE11DF91FBD01CF01112470
:105090000895A1E21A2EAA1BBB1BFD010DC0AA1F79
:1050A000BB1FEE1FFF1FA217B307E407F50720F091
:1050B000A21BB30BE40BF50B661F771F881F991F0C
:1050C0001A9469F760957095809590959B01AC0155
:1050D000BD01CF01089597FB092E05260ED057FD7F
:1050E00004D0D7DF0AD0001C38F450954095309595
:1050F00021953F4F4F4F5F4F0895F6F7909580955C
:10510000709561957F4F8F4F9F4F0895A0E0B0E05D
:10511000ECE8F8E20C940F2AEC015B0161157105D3
:1051200019F0FB0191838083F9908F2D90E00E940C
:10513000E629892BC9F7FDE2FF1621F4F990EE2448
:10514000E39405C02BE2F21609F4F990EE248E01E7
:1051500001501040C80169EC73E043E050E00E9448
:10516000EE29892B01F58E010E5F1F4FC8016CECF3
:1051700073E045E050E00E94EE29892B19F48E017E
:10518000095F1F4FA114B10419F0F50111830083C9
:10519000E0FC04C070E090E080E814C070E090E0B3
:1051A00080E86FEF08C1C80161ED73E043E050E0B3
:1051B0000E94EE29892B69F4A114B10429F470E04E
:1051C00090E080EC6FE7F7C02296F501D183C083B1
:1051D000F6CF8824992440E050E060E070E0EF2DA5
:1051E000E053EA30A0F5F2E0EF2A8E2D90E09C012A
:1051F00028703070E2FE06C0232B79F50894811CDC
:10520000911C2BC0232B19F0089481089108DB0115
:10521000CA0112E0880F991FAA1FBB1F1A95D1F768
:10522000480F591F6A1F7B1F440F551F661F771FAA
:105230004E0F511D611D711D483929E9520729E999
:10524000620729E1720748F084E0E82A06C0EE3FD1
:1052500031F4E3FC39C098E0E92AF990C0CFE53396
:1052600011F0E53189F529912D3219F4E0E1EE2AAA
:1052700005C02B3219F081E090E003C0299182E053
:1052800090E0E22FE053EA3018F0C81BD90B1CC0A5
:1052900020E030E0FCE020383F075CF4C901880FD3
:1052A000991F880F991F280F391F220F331F2E0FA8
:1052B000311DE991E053EA3068F3E4FE03C0309514
:1052C00021953F4F820E931ECE2CDD24E1FE07C0B8
:1052D000A114B10421F02197F501D183C083CB0142
:1052E000BA010E9404257B018C01F3E0CF22DD246A
:1052F00023E0C216D10421F417FB109517F910957D
:1053000057016801C801B70120E030E040E050E0FB
:105310000E946424882309F44AC097FE0DC028EE39
:10532000E22E23E0F22E9094819491089394C0E2AF
:10533000D0E000E010E012C090E0E92E94E0F92EF9
:10534000F6CFF7012591359145915491C601B501EC
:105350000E9439275B016C018C1A9D0A8C169D06F0
:1053600084F7D595C7950F5F1F4F0630110529F0BB
:105370008CEF9FEFE80EF91EF1CFC501D6017C013D
:105380008D018C2D880F8D2D881F8F3F51F0C60108
:10539000B50120E030E040E050E00E946424882322
:1053A00031F482E290E09093ED068093EC067E2D3E
:1053B0009F2D802F612F272F392F482F562FB9016E
:1053C000CA01CDB7DEB7ECE00C942B2A91111EC0B8
:1053D000803219F089508550D0F70895FB01DC0127
:1053E0004150504088F08D9181341CF08B350CF485
:1053F000805E659161341CF06B350CF4605E861B39
:10540000611171F3990B0895881BFCCF99278827A8
:1054100008952F923F924F925F926F927F928F9258
:105420009F92AF92BF92CF92DF92EF92FF920F9333
:105430001F93CF93DF93CDB7DEB7CA1BDB0B0FB63D
:10544000F894DEBF0FBECDBF09942A8839884888FA
:105450005F846E847D848C849B84AA84B984C88490
:10546000DF80EE80FD800C811B81AA81B981CE0F87
:10547000D11D0FB6F894DEBF0FBECDBFED0108956C
:04548000F894FFCFCE
:105484004D506F733A5B002C005D2C57506F733A8C
:065494005B005D0D0A0043
:00000001FF
