:100000000C94D7010C94F4010C94F4010C94F401B9
:100010000C94F4010C94F4010C94F4010C94F4018C
:100020000C94F4010C94D30C0C94F4010C94E00D9A
:100030000C94F4010C94F4010C94F4010C94F4016C
:100040000C94F4010C94F4010C94180C0C94DC0B3B
:100050000C94F4010C94F4010C94F4010C94F4014C
:100060000C94F4010C94F401084AD73B3BCE016E8A
:1000700084BCBFFDC12F3D6C74319ABD56833DDAFF
:100080003D00C77F11BED9E4BB4C3E916BAAAABE0E
:10009000000000803F05A84CCDB2D44EB93836A937
:1000A000020C50B9918688083CA6AAAA2ABE000074
:1000B00000803F0D0A00466C6F6174696E672070A6
:1000C0006F696E74206572726F720D0A00556E73DF
:1000D0007570706F727465642073746174656D659A
:1000E0006E740D0A00457870656374656420636FF3
:1000F0006D6D616E64206C65747465720D0A0042EA
:100100006164206E756D62657220666F726D6174D8
:100110000D0A006572726F723A20006F6B0D0A0053
:100120000D0A000D0A4772626C20302E37640057AA
:1001300061726E696E673A204661696C656420740D
:100140006F207265616420454550524F4D207365A4
:100150007474696E67732E205573696E67206465C9
:100160006661756C74732E0D0A0027242720746F46
:100170002064756D702063757272656E742073658E
:100180007474696E67730D0A0053746F726564202E
:100190006E65772073657474696E670D0A00556E1D
:1001A0006B6E6F776E20706172616D657465720D34
:1001B0000A00537465702070756C7365206D7573DB
:1001C00074206265203E3D2033206D6963726F7339
:1001D00065636F6E64730D0A0053746570732F6DE1
:1001E0006D206D757374206265203E20302E300DB9
:1001F0000A000D0A2724783D76616C756527207406
:100200006F2073657420706172616D657465722012
:100210006F72206A7573742027242720746F2064FE
:10022000756D702063757272656E74207365747479
:10023000696E67730D0A002028636F726E657269BC
:100240006E67206A756E6374696F6E206465766987
:100250006174696F6E20696E206D6D2900202861C0
:100260006363656C65726174696F6E20696E206D81
:100270006D2F7365635E32290D0A2439203D2000FD
:10028000290D0A2438203D20002028737465702031
:10029000706F727420696E76657274206D61736B15
:1002A0002E2062696E617279203D200020286D6DDC
:1002B0002F617263207365676D656E74290D0A2462
:1002C00037203D200020286D6D2F6D696E206465FC
:1002D0006661756C74207365656B20726174652945
:1002E0000D0A2436203D200020286D6D2F6D696E8B
:1002F0002064656661756C74206665656420726152
:100300007465290D0A2435203D200020286D69637D
:10031000726F7365636F6E647320737465702070A1
:10032000756C7365290D0A2434203D200020287344
:10033000746570732F6D6D207A290D0A2433203D6A
:100340002000202873746570732F6D6D2079290D3E
:100350000A2432203D2000202873746570732F6DAD
:100360006D2078290D0A2431203D20002430203DC5
:100370002000494E46494E4954594E414ECDCCCCB1
:100380003D0AD7233C17B7D13877CC2B329595E669
:10039000241FB14F0A000020410000C84200401C49
:1003A0004620BCBE4CCA1B0E5AAEC59D740011241B
:1003B0001FBECFEFD8E0DEBFCDBF11E0A0E0B1E0BF
:1003C000E8EFF5E402C005900D92A030B107D9F72F
:1003D00016E0A0E0B1E001C01D92A93FB107E1F72E
:1003E0000E946E030C94FA220C940000A0E0B0E08E
:1003F000ECEFF1E00C94C922EC015B016115710591
:1004000019F0FB0191838083F9908F2D90E00E9479
:10041000B822892BC9F7FDE2FF1621F4F990EE24EA
:10042000E39405C02BE2F21609F4F990EE248E0154
:1004300001501040C80162E773E043E050E00E94C1
:100440005603892B01F58E010E5F1F4FC80165E72A
:1004500073E045E050E00E945603892B19F48E01A9
:10046000095F1F4FA114B10419F0F5011183008336
:10047000E0FC04C070E090E080E814C070E090E020
:1004800080E86FEF08C1C8016AE773E043E050E01D
:100490000E945603892B69F4A114B10429F470E079
:1004A00090E080EC6FE7F7C02296F501D183C0831E
:1004B000F6CF8824992440E050E060E070E0EF2D12
:1004C000E053EA30A0F5F2E0EF2A8E2D90E09C0197
:1004D00028703070E2FE06C0232B79F50894811C49
:1004E000911C2BC0232B19F0089481089108DB0183
:1004F000CA0112E0880F991FAA1FBB1F1A95D1F7D6
:10050000480F591F6A1F7B1F440F551F661F771F17
:100510004E0F511D611D711D483929E9520729E906
:10052000620729E1720748F084E0E82A06C0EE3F3E
:1005300031F4E3FC39C098E0E92AF990C0CFE53303
:1005400011F0E53189F529912D3219F4E0E1EE2A17
:1005500005C02B3219F081E090E003C0299182E0C0
:1005600090E0E22FE053EA3018F0C81BD90B1CC012
:1005700020E030E0FCE020383F075CF4C901880F40
:10058000991F880F991F280F391F220F331F2E0F15
:10059000311DE991E053EA3068F3E4FE03C0309581
:1005A00021953F4F820E931ECE2CDD24E1FE07C025
:1005B000A114B10421F02197F501D183C083CB01AF
:1005C000BA010E941F1F7B018C01F3E0CF22DD24C2
:1005D00023E0C216D10421F417FB109517F91095EA
:1005E00057016801C801B70120E030E040E050E069
:1005F0000E947F1E882309F44AC097FE0DC021E99E
:10060000E22E23E0F22E9094819491089394C0E21C
:10061000D0E000E010E012C099EAE92E93E0F92E54
:10062000F6CFF7012591359145915491C601B50159
:100630000E945F215B016C018C1A9D0A8C169D063D
:1006400084F7D595C7950F5F1F4F0630110529F028
:100650008CEF9FEFE80EF91EF1CFC501D6017C01AA
:100660008D018C2D880F8D2D881F8F3F51F0C60175
:10067000B50120E030E040E050E00E947F1E88237A
:1006800031F482E290E09093F8068093F7067E2D95
:100690009F2D802F612F272F392F482F562FB901DB
:1006A000CA01CDB7DEB7ECE00C94E522FB01DC011A
:1006B0004150504088F08D9181341CF08B350CF402
:1006C000805E659161341CF06B350CF4605E861BB6
:1006D000611171F3990B0895881BFCCF789460E841
:1006E00075E280E090E00E94930B0E943C0C0E9417
:1006F0001C130E947F140E94550D0E94880B0E94BB
:10070000E8060E94D41B0E948C0CFDCF0E94BE0DF7
:1007100008952F923F924F925F926F927F928F92A5
:100720009F92AF92BF92CF92DF92EF92FF920F9380
:100730001F93DF93CF93CDB7DEB7CE54D0400FB623
:10074000F894DEBF0FBECDBF3C017EAF6DAF2196EA
:100750005FAF4EAF219722962FAF229723960FAF10
:1007600023972496EFAE24972896ACAEBDAECEAEBE
:10077000DFAE289729968FAE2997E22EFF24EE0C44
:10078000FF1CEE0CFF1C4E0D5F1D5CAF4BAFDA0182
:100790002D903D904D905C90FC01EE0DFF1DC2012F
:1007A000B10120813181428153810E94A61D69AB34
:1007B0007AAB8BAB9CAB10E0000F111F000F111F29
:1007C0002196EEADFFAD2197E00FF11FFAAFE9AF33
:1007D000A080B180C280D380F301E00FF11FC60179
:1007E000B50120813181428153810E94A61D6DA7F0
:1007F0007EA78FA798AB24962FAD2497E22FF0E029
:10080000EE0FFF1FEE0FFF1F6E0E7F1ED3018D91A7
:100810009D910D90BC91A02D8DAB9EABAFABB8AFB1
:100820002DAD3EADE20FF31F608171818281938116
:100830002DA93EA94FA958AD0E94A51D69A77AA769
:100840008BA79CA7D201C101B0588DA39EA3AFA3D3
:10085000B8A7A6019501505829A33AA34BA35CA3BE
:100860004DAD5EADE40EF51ED7016D917D918D917C
:100870009C9129A93AA94BA95CA90E94A51D3B01FD
:100880004C01EDADFEAD0E0F1F1FD8016D917D9196
:100890008D919C912DA53EA54FA558A90E94A51DFF
:1008A0005B016C016DA17EA18FA198A5A6019501A8
:1008B0000E945F217B018C0169A17AA18BA19CA17F
:1008C000A40193010E945F219B01AC01C801B70103
:1008D0000E94A51D1B012C016DA17EA18FA198A5D1
:1008E000A40193010E945F217B018C0169A17AA17F
:1008F0008BA19CA1A60195010E945F219B01AC01E7
:10090000C801B7010E94A61D9B01AC01C201B10143
:100910000E94191E5B016C0120E030E040E050E0D5
:100920000E947F1E882354F4C601B5012BED3FE0E1
:1009300049EC50E40E94A61D5B016C01A8968FADA6
:10094000A897882351F0C601B5012BED3FE049EC93
:1009500050E40E94A51D5B016C01C601B501A7967C
:100960002CAD3DAD4EAD5FADA7970E945F2129A58F
:100970003AA54BA55CA50E949A207B018C0120E042
:1009800030E040E050E00E947F1E882309F4CAC195
:10099000C801B7012091EB063091EC064091ED06BD
:1009A0005091EE060E94861E0E945C1F0E94F31E5C
:1009B00078A36F8F2996BFAD2997BB23A1F080E064
:1009C00090E00E941F1F9B01AC0128966CAD7DAD8D
:1009D0008EAD9FAD28970E945F2128966CAF7DAFAA
:1009E0008EAF9FAF28972F8D38A1B90180E090E09E
:1009F0000E941F1F7B018C01C601B501A801970150
:100A00000E94861E6B8F7C8F8D8F9E8F69A57AA525
:100A10008BA59CA5A80197010E94861E6F8B788FDD
:100A2000898F9A8F6B8D7C8D8D8D9E8D20E030E02F
:100A300040E05FEB0E945F212B8D3C8D4D8D5E8DE4
:100A40000E945F2120E030E040E85FE30E94A61DA5
:100A50006B8B7C8B8D8B9E8B24963FAD2497E32FE5
:100A6000F0E0EE0FFF1FEE0FFF1FCE010196E80F23
:100A7000F91F2DA93EA94FA958AD20833183428388
:100A8000538341E050E05E874D8766242296BFADD8
:100A90002297AB2FB0E0AA0FBB1FAA0FBB1FA80F56
:100AA000B91F2B96BFAFAEAF2B9723963FAD2397C1
:100AB000232F30E0220F331F220F331F280F391F3F
:100AC0002D963FAF2EAF2D972F96FFAFEEAF2F97FE
:100AD00003C148E146150CF446C06DA17EA18FA16B
:100AE00098A52B8D3C8D4D8D5E8D0E945F217B01E5
:100AF0008C0169A17AA18BA19CA12B893C894D898C
:100B00005E890E945F219B01AC01C801B7010E9470
:100B1000A61D7B018C016DA17EA18FA198A52B89BB
:100B20003C894D895E890E945F215B016C0169A14E
:100B30007AA18BA19CA12B8D3C8D4D8D5E8D0E9449
:100B40005F219B01AC01C601B5010E94A51D6DA3EB
:100B50007EA38FA398A76394C701D80189A39AA302
:100B6000ABA3BCA361C0AD85BE85BD0180E090E0B4
:100B70000E941F1F2B8D3C8D4D8D5E8D0E945F212D
:100B80007B018C01C8010E94831E6F87788B898B43
:100B90009A8BB701C8010E94E2213B014C01EBADE9
:100BA000FCADE080F1800281138117FB109517F9ED
:100BB0001095A9ADBAAD2D903D904D905C90C801B7
:100BC000B7012F85388949895A890E945F215B01C5
:100BD0006C01C201B101A40193010E945F219B013C
:100BE000AC01C601B5010E94A61D6DA37EA38FA313
:100BF00098A7C801B701A40193010E945F217B015E
:100C00008C01C201B1012F85388949895A890E9416
:100C10005F219B01AC01C801B7010E94A51D69A31A
:100C20007AA38BA39CA3662469A97AA98BA99CA902
:100C30002DA13EA14FA158A50E94A61D2B96EEAD59
:100C4000FFAD2B9760837183828393836DA57EA50F
:100C50008FA598A929A13AA14BA15CA10E94A61D2C
:100C60002D96AEADBFAD2D976D937D938D939C93D7
:100C700013972F96EEADFFAD2F9760817181828122
:100C800093812F89388D498D5A8D0E94A61D2F96EC
:100C9000AEADBFAD2F976D937D938D939C931397BE
:100CA00069817A818B819C812D813E814F8158851C
:100CB000E984FA840B851C852896ACACBDACCEAC1F
:100CC000DFAC289729968FAC29970E947F16ED8577
:100CD000FE853196FE87ED872D853E854F8D58A187
:100CE0002417350708F4F5CEADADBEAD6D917D91FD
:100CF0008D919C91139714962D913D914D915C91FE
:100D000017971896ED90FD900D911C911B972896C2
:100D1000ACACBDACCEACDFAC289729968FAC299794
:100D20000E947F16C25BDF4F0FB6F894DEBF0FBE86
:100D3000CDBFCF91DF911F910F91FF90EF90DF908A
:100D4000CF90BF90AF909F908F907F906F905F906B
:100D50004F903F902F900895EF92FF920F931F9323
:100D6000CF93DF937B018C010E945C1F0E94F31ED6
:100D7000EB010E94D30DBE0180E090E00E941F1F96
:100D80009B01AC01C801B7010E94A51D20E030E025
:100D90004AE754E40E945F210E945C1F0E94F31EF8
:100DA000DC01CB010E94861B20E931E008C080E114
:100DB00097E2F9013197F1F70197D9F72197209739
:100DC000B1F7DF91CF911F910F91FF90EF900895B0
:100DD00081E2E0E0F1E0DF011D928A95E9F7809180
:100DE000E2069091E306A091E406B091E5068093B7
:100DF000070190930801A0930901B0930A01809123
:100E0000E6069091E706A091E806B091E906809386
:100E10000B0190930C01A0930D01B0930E01109261
:100E20001E0191E090931F0182E080932001909336
:100E3000040108952F923F924F925F926F927F929A
:100E40008F929F92AF92BF92CF92DF92EF92FF92DA
:100E50000F931F93DF93CF93CDB7DEB7AA970FB64B
:100E6000F894DEBF0FBECDBF2C0119821092000195
:100E70001BA21AA262E0662E712C6C0E7D1E4E0122
:100E80000894811C911C53E0A52ECC24C39442E00D
:100E9000B42E34E0332E22242A94DAC025313105D1
:100EA00009F489C02631310584F52430310509F46F
:100EB0005BC025303105A4F42130310509F45AC056
:100EC0002230310524F4232B09F451C0B4C0223060
:100ED000310509F452C02330310509F0ACC050C0CF
:100EE0002231310509F456C0233131052CF421316A
:100EF000310509F0A0C047C02331310509F451C0C4
:100F00002431310509F097C053C02A35310509F461
:100F10005BC02B353105A4F42E31310511F12F3191
:100F200031052CF42C31310509F085C01AC0253368
:100F3000310509F443C02035310509F07CC041C0BA
:100F40002C35310509F446C02C3531050CF43FC071
:100F50002D35310509F441C02E35310509F06BC03E
:100F60003FC042E04AA370C051E05AA36DC0109246
:100F700001016AC0C092010167C0B092010164C062
:100F8000A092010161C010921E01C0921F01B09297
:100F900020015AC010921E01B0921F01C092200180
:100FA00053C0C0921E01B0921F01109220014CC08C
:100FB000C092030149C01092030146C061E06BA3D7
:100FC00043C03092010140C0C09204013DC0109264
:100FD00004013AC073E07AA337C0C092020134C062
:100FE0001092020131C023303105E1F02430310587
:100FF00034F477FD20C02230310574F010C0253064
:101000003105B1F02530310584F02E31310539F04C
:101010002C33310581F403C0C092050115C0B09294
:10102000050112C0C09206010FC0209206010CC03B
:101030001092060109C0A092000106C0C801B701C4
:101040000E94F31E60931B01809100018823D1F45C
:101050009981F201E90FF11DD080DD2099F08D2DED
:1010600081548A3110F082E00BC09F5F9983C201E6
:10107000B401A3010E94991B892B09F007C381E0E9
:101080008093000180910001882309F0E6C2198253
:10109000FE0136968CE0DF01482F1D924A95E9F754
:1010A0009E012E5E3F4FD9011D928A95E9F7AFE070
:1010B000B1E08CE00D9001928150E1F71FA218A6DB
:1010C000B0E8B9A7EFEBEAA71CA21DA21EA222243A
:1010D000332440E050E060E070E04E8F5F8F68A303
:1010E00079A33E010894611C711CACC0C701B60114
:1010F00023E333E34BEC51E40E945F214B015C019D
:101100000035E1F001355CF40634E1F006340CF40E
:1011100099C0802F8954833008F094C03FC00335B4
:1011200009F454C0043524F4023509F08BC047C0DB
:10113000802F8855833008F085C051C0CDA2DEA233
:10114000170180C0C501B40120E030E040E050E06C
:101150000E947F1E18161CF051E0509300018091F0
:101160000201882329F08FA298A6A9A6BAA66AC070
:1011700080910101882349F480920B0190920C0127
:10118000A0920D01B0920E015DC080920701909275
:101190000801A0920901B0920A0154C0E02FFF2774
:1011A000E7FDF095E954F040EE0FFF1FEE0FFF1F33
:1011B000E60DF71D818A928AA38AB48A43C08E8E77
:1011C0009F8EA8A2B9A261E06CA33CC0C701B60182
:1011D0000E94EE1E70931D0160931C0133C080912C
:1011E0000401882319F47BA1772389F0E02FFF27DE
:1011F000E7FDF095E855F040EE0FFF1FEE0FFF1FE3
:10120000E60DF71D85829682A782B0861BC0112746
:1012100007FD109508551040000F111F000F111FFA
:10122000060D171DD80115966D917D918D919C919C
:101230001897A50194010E94A61DF8016583768385
:10124000878390879981F201E90FF11D00810023C6
:10125000A9F0802F81548A3110F082E00DC09F5F89
:101260009983C201B301AE014E5F5F4F0E94991B8B
:10127000892B09F023C281E0809300018091000155
:10128000882309F0EAC18091060140911C01509128
:101290001D01662757FD6095762F992787FD90954C
:1012A0000E946A0BFAA1F13091F0F13030F1F23086
:1012B00021F0F33009F0C6C111C00E9486038CE012
:1012C000FE013696DF011D928A95E9F7BBC12DA17B
:1012D0003EA1B901C1010E94AC06B4C16E817F81FB
:1012E000888599852A853B854C855D85EE84FF84BC
:1012F000088919890E940B14A5C1B0900101B1E0C1
:10130000BB16E9F0BB1628F0E3E0EB1508F49AC130
:101310003BC06E817F81888599852A853B854C8578
:101320005D85EE84FF8408891989A0900B01B09037
:101330000C01C0900D01D0900E01882422C06E8156
:101340007F81888599852A853B854C855D85EE84DE
:10135000FF840889198980900201882061F4F09146
:101360000701FFA3A0910801A8A7B0910901B9A79F
:10137000E0910A01EAA7EFA1F8A5A9A5BAA55F0126
:101380006D010E947F165EC18E010F5F1F4FFCA191
:10139000FF2309F4EEC0E0911E01F0E0EE0FFF1F05
:1013A000EE0FFF1FD801AE0FBF1FE050FF4F159685
:1013B0006D917D918D919C911897278530894189F8
:1013C00052890E94A51D1B012C01E0911F01F0E034
:1013D000EE0FFF1FEE0FFF1F0E0F1F1FE050FF4FFE
:1013E000D80115966D917D918D919C9118972785C7
:1013F0003089418952890E94A51D3B014C018CE036
:10140000FE017296DF011D928A95E9F76E8D7F8D40
:1014100088A199A120E030E040E850E40E945F21DB
:101420002E8D3F8D48A159A10E945F217B018C0127
:10143000C201B101A20191010E945F219B01AC0197
:10144000C801B7010E94A51D7B018C01C401B30135
:10145000A40193010E945F219B01AC01C801B70167
:101460000E94A51D0E94EC217B018C01C201B101EB
:10147000A40193010E949A209B01AC0117FB1095D7
:1014800017F91095C801B7010E94861E6B017C01F7
:10149000A70196010E944022882321F084E08093D6
:1014A0000001DBC0B3E0BB1621F4F7FAF094F7F8C3
:1014B000F0946E8D7F8D88A199A120E030E040E00E
:1014C00050E00E947F1E88236CF4F7FAF094F7F83E
:1014D000F0944E8D5F8D68A179A170584E8F5F8F0B
:1014E00068A379A300911E01A02EBB24AA0CBB1CEB
:1014F000AA0CBB1C8E010F5F1F4FA00EB11EC401B2
:10150000B301A70196010E945F219B01AC01C201BA
:10151000B1010E94A51D20E030E040E05FE30E94A1
:101520005F21D50151966D937D938D939C93549734
:1015300080911F0190E0880F991F880F991F080F55
:10154000191FC201B101A70196010E945F219B01F1
:10155000AC01C401B3010E94A61D20E030E040E0D0
:101560005FE30E945F21F801618B728B838B948B08
:1015700023C0E0911E01F0E0EE0FFF1FEE0FFF1FF2
:10158000E00FF11F618972898389948920911F017D
:1015900030E0220F331F220F331F020F131FD80119
:1015A00051962D913D914D915C9154970E949A20B6
:1015B0006E8F7F8F88A399A39091010120911E01C6
:1015C00000911F01E090200180900201882061F4C9
:1015D000B0910701BFA3E0910801E8A7F0910901CC
:1015E000F9A740910A014AA700D000D00F92EDB7A9
:1015F000FEB731964E8D5F8D68A179A1ADB7BEB7AC
:1016000011964D935D936D937C93149780E0923087
:1016100009F481E084838FE091E0BE016A5F7F4F2F
:10162000AE014E5E5F4F3FA1E8A5F9A5AAA5A32E86
:10163000BE2ECF2EDA2E0E9489030F900F900F90AE
:101640000F900F90AFE0B1E0FE0136968CE0019074
:101650000D928150E1F780910001AA960FB6F8949F
:10166000DEBF0FBECDBFCF91DF911F910F91FF90D5
:10167000EF90DF90CF90BF90AF909F908F907F9032
:101680006F905F904F903F902F9008956A817B817B
:101690008C819D810E9439227B018C010E94EE1E6B
:1016A0009B01BDE4DB1609F49ECCE4E5DE1609F4EB
:1016B000C5CCF7E4DF1609F0C7CCF0CBCA80DB80DD
:1016C000EC80FD8080910301882309F00FCD460155
:1016D000570116CDCF93DF93EC01809121019091BA
:1016E0002201C817D90789F00E94D30D209741F035
:1016F0001C161D0614F42C9801C02C9A409A01C0A7
:101700004098D0932201C0932101DF91CF91089599
:10171000389A249A80E090E040E050E060E070E089
:101720000E946A0B0895EF92FF920F931F937B0123
:101730008C0122E030E040E050E00E949D22205CDD
:101740003D4B404F5F4FCA01B901A80197010E946C
:101750009D22215030403093C5002093C400E0EC1E
:10176000F0E080818D7F8083E1ECF0E0808180611A
:1017700080838081886080838081806880831F91DE
:101780000F91FF90EF900895282FE09125019E2F53
:101790009F5F903109F490E0809126019817E1F362
:1017A000F0E0EC53F94F2083909325018091C10024
:1017B00080628093C10008951F920F920FB60F921E
:1017C00011248F939F93EF93FF9380912601E82F2D
:1017D000F0E0EC53F94F90819093C600982F9F5FF3
:1017E000903109F490E080912501981729F48091B7
:1017F000C1008F7D8093C10090932601FF91EF91EE
:101800009F918F910F900FBE0F901F901895909100
:10181000240180912301891711F48FEF0895E92F96
:10182000F0E0EC53FA4F80819F5F9093240108957C
:101830001F920F920FB60F9211242F938F939F93A5
:10184000EF93FF932091C600E09123019E2F9F5FAD
:1018500080912401981731F0F0E0EC53FA4F208387
:1018600090932301FF91EF919F918F912F910F9072
:101870000FBE0F901F9018951092590110925A01A7
:1018800083E291E00E94971D80E291E00E94971D03
:101890000895CF93DF93EC01009719F48BE191E069
:1018A0002AC083E191E00E94971DC230D10589F0E2
:1018B000C330D10524F4C130D105A1F407C0C33031
:1018C000D10551F0C430D10569F409C08FEF90E023
:1018D00012C085EE90E00FC08DEC90E00CC086EB5E
:1018E00090E009C0BE01882777FD8095982F0E945F
:1018F000771D83EB90E00E94971DDF91CF910895B3
:10190000FC018081843221F4CF010E948813089564
:10191000CF010E941A0708951F9311E03DC02D309A
:10192000A9F4E0915901EE2351F0F0E0E95DFE4F9A
:10193000108287E291E00E94800C90E002C080E07B
:1019400090E00E94490C1092590106C080915A0102
:10195000882329F0293201F510925A011DC0213245
:10196000DCF02F32C9F0283219F410935A0114C058
:1019700090915901913380F4822F8156E92FF0E044
:101980009F5F8A3120F4E95DFE4F205202C0E95D7D
:10199000FE4F2083909359010E94070C282F8A3014
:1019A00009F4BFCFBCCF1F920F920FB60F92112434
:1019B0008F939F939BB18091EA0684759B7A892BC4
:1019C0008BB91092B1009F918F910F900FBE0F9025
:1019D0001F9018959B01AC01203283E0380780E00E
:1019E000480780E0580720F420E233E040E050E070
:1019F00060E070E788E399E30E947B22C901DA0185
:101A0000803020E0920721E0A20720E0B20738F4FE
:101A1000FC019C0140E050E060E070E031C08030AB
:101A200020E0920728E0A20720E0B207A8F473E0C4
:101A3000B695A795979587957A95D1F7FC019C0166
:101A400040E050E063E0220F331F441F551F6A95AA
:101A5000D1F761E070E014C026E0B695A7959795A0
:101A600087952A95D1F7FC019C0140E050E086E083
:101A7000220F331F441F551F8A95D1F762E070E093
:101A800080918100962F9F5F887F982B9093810093
:101A9000F0938900E093880020936F0130937001E8
:101AA000409371015093720108958AB18C6F8AB985
:101AB0008BB183709091EA06892B8BB9209A809123
:101AC00081008F7E80938100809181008860809367
:101AD0008100809180008D7F8093800080918000C4
:101AE0008E7F80938000809180008F738093800030
:101AF000809180008F7C809380001092B0001092C3
:101B0000B1008091700081608093700060E273E0AA
:101B100080E090E00E94EA0C109273011092740130
:101B2000109275011092760110925C0110925B0187
:101B300010926E0110927F0180916F008D7F8093D3
:101B40006F008AEF90E020E931E0F9013197F1F779
:101B50000197D9F7289A089580917F01882369F425
:101B600081E080937F018091EA0680935D0128984F
:101B700080916F00826080936F000895EF92FF92D2
:101B80000F931F930E94441C60E070E080E090E09F
:101B90009B01AC017B018C010E940B141F910F91E2
:101BA000FF90EF90089507C083B7816083BF889549
:101BB00083B78E7F83BF0E94F813892BA9F70895FE
:101BC0001F920F920FB60F921124EF92FF920F9374
:101BD0001F932F933F934F935F936F937F938F93B5
:101BE0009F93AF93BF93CF93DF93EF93FF93809136
:101BF0006E01882309F084C29BB120915D01822F80
:101C0000887A9775892B8BB98BB18B7A822B8BB99C
:101C10008091E10690E0A0E0B0E00297A109B1094F
:101C2000880F991FAA1FBB1F81958093B20082E085
:101C30008093B10081E080936E01789480915B0184
:101C400090915C01892B09F07BC00E94F813EC0194
:101C500090935C0180935B01009709F460C06BA1D5
:101C60007CA18DA19EA160937701709378018093F0
:101C7000790190937A01EBA4FCA40DA51EA5A801FF
:101C8000970155954795379527952E0D3F1D401F78
:101C9000511F20937B0130937C0140937D01509331
:101CA0007E0120E031E742E050E020937301309361
:101CB000740140937501509376010E94EA0C8D8562
:101CC0009E85AF85B889B595A79597958795B09569
:101CD000A095909581959F4FAF4FBF4F80935E0128
:101CE00090935F01A0936001B093610180936201C2
:101CF00090936301A0936401B093650180936601A2
:101D000090936701A0936801B093690110926A01F2
:101D100010926B0110926C0110926D0111C0109223
:101D20007F0180916F008D7F80936F008AEF90E03C
:101D300020E931E0F9013197F1F70197D9F7289AB5
:101D4000E0915B01F0915C01309709F4D0C16081B2
:101D500060935D0120915E0130915F0140916001CF
:101D60005091610181819281A381B481280F391F33
:101D70004A1F5B1F20935E0130935F014093600117
:101D80005093610112161306140615069CF4646044
:101D900060935D0185859685A785B089281B390BE1
:101DA0004A0B5B0B20935E0130935F01409360010F
:101DB000509361012091620130916301409164016F
:101DC0005091650185819681A781B085280F391FC3
:101DD0004A1F5B1F209362013093630140936401AB
:101DE000509365011216130614061506ACF4809183
:101DF0005D01806180935D0185859685A785B089A9
:101E0000281B390B4A0B5B0B209362013093630153
:101E10004093640150936501209166013091670100
:101E2000409168015091690181859285A385B485AF
:101E3000280F391F4A1F5B1F2093660130936701EB
:101E40004093680150936901121613061406150693
:101E5000ACF480915D01806480935D0185859685F9
:101E6000A785B089281B390B4A0B5B0B20936601B1
:101E700030936701409368015093690120916A0192
:101E800030916B0140916C0150916D012F5F3F4F7C
:101E90004F4F5F4F20936A0130936B0140936C0169
:101EA00050936D0185859685A785B08928173907D8
:101EB0004A075B0708F015C187A590A9A1A9B2A997
:101EC000281739074A075B0708F054C020916F01B3
:101ED00030917001409171015091720180917301B4
:101EE00090917401A0917501B0917601280F391F6E
:101EF0004A1F5B1F20937301309374014093750157
:101F000050937601213082EE380784E0480780E064
:101F1000580708F4ECC02050324E44405040209303
:101F2000730130937401409375015093760183A53A
:101F300094A5A5A5B6A5209177013091780140918F
:101F4000790150917A01820F931FA41FB51F8093CE
:101F5000770190937801A0937901B0937A0127A932
:101F600030AD41AD52AD82179307A407B50708F411
:101F700091C088C083A994A9A5A9B6A92817390733
:101F80004A075B0708F48FC0281739074A075B0721
:101F900069F480E091E7A2E0B0E080937301909350
:101FA0007401A0937501B0937601A1C020916F01D7
:101FB00030917001409171015091720180917301D3
:101FC00090917401A0917501B0917601280F391F8D
:101FD0004A1F5B1F20937301309374014093750176
:101FE00050937601213082EE380784E0480780E084
:101FF000580708F47CC02050324E44405040209393
:1020000073013093740140937501509376012091D0
:102010007701309178014091790150917A01809156
:102020007B0190917C01A0917D01B0917E0182178E
:102030009307A407B50748F483A594A5A5A5B6A55D
:10204000281B390B4A0B5B0B04C0569547953795F7
:10205000279520937701309378014093790150932D
:102060007A0127A130A541A552A5809177019091D1
:102070007801A0917901B0917A0182179307A407A2
:10208000B50740F4209377013093780140937901AC
:1020900050937A0160917701709178018091790174
:1020A00090917A011BC027A930AD41AD52AD80910E
:1020B000770190917801A0917901B0917A0182170E
:1020C0009307A407B50799F020937701309378011F
:1020D0004093790150937A01CA01B9010E94EA0C38
:1020E00006C010925C0110925B010E94E91380917E
:1020F0005D019091EA06892780935D0110926E013F
:10210000FF91EF91DF91CF91BF91AF919F918F910F
:102110007F916F915F914F913F912F911F910F91FF
:10212000FF90EF900F900FBE0F901F901895F999A8
:10213000FECF92BD81BD81E08FBB80B50895F8943C
:10214000F999FECF92BD81BD81E08FBB40B5462796
:10215000842F992787FD9095262F30E082239323A3
:10216000892B39F06F3F19F060BD84E006C084E12F
:1021700004C0442321F060BD84E28FBBF99A7894B7
:1021800008958F929F92AF92BF92CF92DF92EF927B
:10219000FF920F93DF93CF9300D0CDB7DEB75C01F2
:1021A0006B017A014A0100E01EC0002319F021E012
:1021B00030E008C0202F332727FD30952227330F2A
:1021C000221F3327F60161916F01062F020F9C0138
:1021D0002F5F3F4F3A8329830E949F100894810804
:1021E000910889819A8181149104F9F6C7018A0DB9
:1021F0009B1D602F0E949F100F900F90CF91DF9139
:102200000F91FF90EF90DF90CF90BF90AF909F9095
:102210008F900895CF93DF93EC01FB019A0190E03A
:10222000B1E019C0F999FECFF2BDE1BDBFBBA0B5C9
:10223000992319F081E090E008C0892F992787FD44
:1022400090958827990F881F992731969A2F980F74
:10225000A993215030402115310521F7460F571F12
:10226000F999FECF52BD41BD81E08FBB80B520E022
:1022700030E0981711F421E030E0C901DF91CF91EF
:10228000089580E090E064E00E949F1081E090E07B
:1022900064ED76E043E250E00E94C1100895EF92B1
:1022A000FF920F931F93CF93DF93EC017A018B0181
:1022B0008530910509F455C08630910554F483307A
:1022C000910581F1843091050CF042C097FF12C056
:1022D00086C08730910509F456C0873091050CF40B
:1022E00049C08830910509F457C08930910509F03B
:1022F00076C069C0CB01BA0120E030E040E050E098
:102300000E947F1E18161CF089ED91E06FC0CC0F63
:10231000DD1FCC0FDD1FCC52D94FE882F9820A8332
:102320001B8360C0CB01BA0120E030E040E450E400
:102330000E947F1E88231CF482EB91E057C0C801E5
:10234000B7010E94C2210E94F31E6093E1064AC0B9
:102350004093E2065093E3066093E4067093E5062B
:1023600041C04093E6065093E7066093E8067093F9
:10237000E90638C04093EB065093EC066093ED06F7
:102380007093EE062FC0CB01BA010E9439220E9441
:10239000F31E6093EA0626C0CB01BA0120E030E0CC
:1023A00040E752E40E945F2120E030E040E752E441
:1023B0000E945F216093EF067093F0068093F10610
:1023C0009093F2060FC0DB01CA01BF778093F3063A
:1023D0009093F406A093F506B093F60603C08EE939
:1023E00091E004C00E94411189E891E00E94971D8C
:1023F000DF91CF911F910F91FF90EF9008951F9360
:1024000080E090E00E949710182F843081F484EDD2
:1024100096E061E070E043E250E00E940A1120E0A3
:10242000892B09F421E081E0282730E05EC081306B
:1024300021F584ED96E061E070E04BE150E00E9410
:102440000A11892B09F44FC080E098ECAFE2B8E4A0
:102450008093EF069093F006A093F106B093F206F6
:102460008DEC9CECACE4BDE38093F3069093F40612
:10247000A093F506B093F60631C08250823098F5ED
:1024800084ED96E061E070E043E250E00E940A11C2
:10249000892B49F1123061F48DEC9CECACE4BDE386
:1024A0008093F3069093F406A093F506B093F60696
:1024B0006091EF067091F0068091F1069091F2061E
:1024C00020E030E041E655E40E945F216093EF0692
:1024D0007093F0068093F1069093F2060E944111EA
:1024E00021E030E002C020E030E0C9011F910895F2
:1024F0008CE693E00E94971D6091D4067091D506FA
:102500008091D6069091D7060E94041D87E593E03E
:102510000E94971D6091D8067091D9068091DA06C5
:102520009091DB060E94041D82E493E00E94971DB7
:102530006091DC067091DD068091DE069091DF06E9
:102540000E94041D8DE293E00E94971D6091E106B8
:1025500070E080E090E00E94771D8BE093E00E94A5
:10256000971D6091E2067091E3068091E4069091D8
:10257000E5060E94041D88EE92E00E94971D60917E
:10258000E6067091E7068091E8069091E9060E94C0
:10259000041D85EC92E00E94971D6091EB067091FE
:1025A000EC068091ED069091EE060E94041D8CEAE7
:1025B00092E00E94971D6091EA0670E080E090E052
:1025C0000E94771D89E892E00E94971D6091EA06BB
:1025D00070E080E090E022E030E040E050E00E94D7
:1025E0007D1C80E892E00E94971D6091EF0670913B
:1025F000F0068091F1069091F20620E030E041E68D
:1026000055E40E94861E0E94041D8DE592E00E9402
:10261000971D6091F3067091F4068091F5069091F4
:10262000F6060E94041D87E392E00E94971D82EF48
:1026300091E00E94971D08950E94FF11892B29F0B7
:102640008AE691E00E94971D08958FE291E00E9432
:10265000971D84EF99EFACE3B4E48093D406909394
:10266000D506A093D606B093D7068093D80690934C
:10267000D906A093DA06B093DB068093DC0690932C
:10268000DD06A093DE06B093DF068EE18093E106BF
:1026900080E090E0AAEFB3E48093E2069093E30633
:1026A000A093E406B093E5068093E6069093E706D0
:1026B000A093E806B093E90680E098ECAFE2B8E4B6
:1026C0008093EF069093F006A093F106B093F20684
:1026D0008DEC9CECACECBDE38093EB069093EC06A8
:1026E000A093ED06B093EE0684E58093EA068DECA8
:1026F0009CECACE4BDE38093F3069093F406A093C6
:10270000F506B093F6060E9441110E9478120895D2
:10271000EF92FF920F931F93DF93CF93CDB7DEB766
:1027200029970FB6F894DEBF0FBECDBF8C0181E0B4
:102730008983F80180818432E1F58181882319F44D
:102740000E94781234C0C8017E010894E11CF11C7B
:10275000B701AE014E5F5F4F0E94991B892B59F163
:102760009981F801E90FF11D80818D3311F59F5F8B
:102770009983C801B701AE014A5F5F4F0E94991B60
:10278000892BC9F08981080F111DF80180818823E8
:1027900081F46A817B818C819D810E94EE1EDC0127
:1027A000CB014E815F81688579850E944F1180E061
:1027B00003C083E001C081E029960FB6F894DEBF24
:1027C0000FBECDBFCF91DF911F910F91FF90EF9082
:1027D00008959091A6058091A705981741F08091E2
:1027E000A7058F5F823109F480E08093A7050895E3
:1027F0009091A6058091A705981719F420E030E084
:1028000008C09091A7058BE3989F90011124205850
:102810003E4FC90108958F929F92AF92BF92CF927F
:10282000DF92EF92FF920F931F9349015A0120917B
:10283000D4063091D5064091D6065091D7060E9415
:102840005F210E942F2128EAC22E25E0D22E60931C
:10285000A8057093A9058093AA059093AB05C501BF
:10286000B4012091D8063091D9064091DA065091F2
:10287000DB060E945F210E942F21F60134966093AF
:10288000AC05718382839383C801B7012091DC0674
:102890003091DD064091DE065091DF060E945F21F7
:1028A0000E942F2128E030E0C20ED31E6093B005B5
:1028B000D60111967C93119712968C9312971396CA
:1028C0009C9380E090E0A0E0B0E08093C0059093FE
:1028D000C105A093C205B093C3058CE0E4EBF5E01D
:1028E000DF011D928A95E9F71F910F91FF90EF90FC
:1028F000DF90CF90BF90AF909F908F9008951092EF
:10290000A6051092A7058CE0E8EAF5E0DF01982F14
:102910001D929A95E9F7E4EBF5E0DF011D928A95A7
:10292000E9F780E090E0A0E0B0E08093C0059093EC
:10293000C105A093C205B093C30508958F929F92DD
:10294000AF92BF92CF92DF92EF92FF920F931F93BD
:10295000CF93DF93EC016B01009709F460C08AA16B
:10296000882309F05CC0ED88FE880F89188DFB0173
:10297000B588A6889788808CC801B7012B2D3A2D81
:10298000492D582D0E947F1E88230CF048C0C80195
:10299000B701A80197010E945F217B018C01609122
:1029A000EF067091F0068091F1069091F206905832
:1029B00020E030E040E050EC0E945F212D8D3E8D04
:1029C0004F8D58A10E945F219B01AC01C801B70146
:1029D0000E94A61D0E94EC217B018C016B2D7A2D9B
:1029E000892D982D9701A8010E947F1E882324F429
:1029F000EB2CFA2C092D182D6B2D7A2D892D982D65
:102A00009701A8010E947F1E882349F0C701D801C1
:102A1000F601858B968BA78BB08F81E081A3DF9128
:102A2000CF911F910F91FF90EF90DF90CF90BF90CB
:102A3000AF909F908F9008952F923F924F925F9208
:102A40006F927F928F929F92AF92BF92CF92DF92BE
:102A5000EF92FF920F931F93DF93CF93CDB7DEB723
:102A600068970FB6F894DEBF0FBECDBF1C016A0198
:102A70007B0128013901DC01D7966D917D918D9103
:102A80009C91DA970E941F1F4B015C01A7019601E0
:102A90000E945F210E946C1E0E94F31E7B018C012C
:102AA000F10163A374A385A396A3C501B401A30197
:102AB00092010E945F210E946C1E0E94F31E698792
:102AC0007A878B879C87D10197966D937D938D93A1
:102AD0009C939A979B966D917D918D919C919E97D9
:102AE00022E330E040E050E00E945C220E94211F7F
:102AF00020E030E040E752E40E945F210E94EE1E99
:102B00002B013C01C801B7010E941F1F7B018C01F2
:102B1000C301B2010E94211F6D837E838F8398873A
:102B2000C501B401A50194010E945F215B016C0104
:102B3000C801B701A80197010E945F216D877E87B8
:102B40008F87988B6D817E818F8198859B01AC01E9
:102B50000E94A61D698B7A8B8B8B9C8BC601B5015D
:102B60002D853E854F8558890E94A51D29893A8962
:102B70004B895C890E94861E0E946C1E0E94EE1E7C
:102B800069837A838B839C8369857A858B859C8511
:102B90000E941F1F9B01AC010E945F216D8B7E8BE9
:102BA0008F8B988FA60195010E94A51D7B018C013A
:102BB0007094609450944094411C511C611C711C91
:102BC000C301B2010E94211F9B01AC010E94A61DFE
:102BD0009B01AC01C801B7010E94861E0E945C1FC8
:102BE000F101A584B684C784D08886017501298146
:102BF0003A814B815C81E21AF30A040B150B0E94A7
:102C0000EE1EA8019701261B370B480B590BDA0162
:102C1000C90157FF4AC0C601B5010E94211F9B018F
:102C2000AC0169897A898B899C890E945F212D85F5
:102C30003E854F8558890E94A51D2D893E894F8963
:102C4000588D0E94A61D7B018C016D817E818F8134
:102C5000988520E030E040E850E40E945F219B012D
:102C6000AC01C801B7010E94861E0E946C1E0E9422
:102C7000EE1EAC01CB01DA01BC01CD0197FF04C00F
:102C800060E070E080E090E069837A838B839C83CE
:102C9000A616B706C806D90624F4A982BA82CB8242
:102CA000DC8280E090E0A0E0B0E029813A814B81B5
:102CB0005C81F10127A730AB41AB52AB820F931F70
:102CC000A41FB51F83AB94ABA5ABB6AB68960FB68C
:102CD000F894DEBF0FBECDBFCF91DF911F910F9152
:102CE000FF90EF90DF90CF90BF90AF909F908F902C
:102CF0007F906F905F904F903F902F9008952F920C
:102D00003F924F925F926F927F928F929F92AF927B
:102D1000BF92CF92DF92EF92FF920F931F93DF93B8
:102D2000CF93CDB7DEB7CC54D0400FB6F894DEBF0A
:102D30000FBECDBF29013A01ACAEBDAECEAEDFAE07
:102D400021968FAE21972091D4063091D5064091DF
:102D5000D6065091D70628AF39AF4AAF5BAF0E9475
:102D60005F210E942F2122966FAF229723967FAF7B
:102D7000239724968FAF249725969FAF2597809110
:102D8000D8069091D906A091DA06B091DB068CABFB
:102D90009DABAEABBFABC301B2012CA93DA94EA9FF
:102DA0005FA90E945F210E942F2126966FAF269770
:102DB00027967FAF279728968FAF289729969FAFA2
:102DC00029972091DC063091DD064091DE06509176
:102DD000DF0628AB39AB4AAB5BABC801B7010E9439
:102DE0005F210E942F212A966FAF2A972B967FAFE3
:102DF0002B972C968FAF2C972D969FAF2D973091B8
:102E0000A6053F5F3B8F323149F41B8E07C083B765
:102E1000816083BF889583B78E7F83BF8091A7052C
:102E20004B8D8417A1F39091A6058BE3989FD00159
:102E30001124A058BE4FBA8FA98F1C922091A805CB
:102E40003091A9054091AA055091AB0525968CAD0E
:102E50009DADAEADBFAD259782179307A407B5070B
:102E600024F488E0A98DBA8D8C936090AC057090A5
:102E7000AD058090AE059090AF0529968CAD9DADC7
:102E8000AEADBFAD299786159705A805B9052CF4F9
:102E9000A98DBA8D8C9180628C93E090B005F090F2
:102EA000B1050091B2051091B3052D968CAD9DAD85
:102EB000AEADBFAD2D978E159F05A007B1072CF4C1
:102EC000A98DBA8D8C9180688C932596ACACBDACE5
:102ED000CEACDFAC2597A21AB30AC40AD50AE98D95
:102EE000FA8DA182B282C382D482D7FE0BC088271A
:102EF0009927DC018A199B09AC09BD09818392835A
:102F0000A383B48329962CAD3DAD4EAD5FAD29971B
:102F1000261937094809590939014A01A98DBA8D7D
:102F200015962D933D934D935C93189757FF0DC0C5
:102F300088279927DC01821B930BA40BB50BE98D25
:102F4000FA8D85839683A783B0872D962CAC3DACF4
:102F50004EAC5FAC2D972E183F08400A510AA201D3
:102F6000910157FE07C022273327A90122193309EF
:102F700044095509A98DBA8D19962D933D934D930A
:102F80005C931C971596ED90FD900D911C911897F0
:102F9000FD0181819281A381B4818E159F05A007D7
:102FA000B10710F4D801C70182179307A407B5072A
:102FB00010F4DA01C901E98DFA8D85879687A78714
:102FC000B08B0097A105B10509F486C3C601B50110
:102FD0000E94211F28AD39AD4AAD5BAD0E94861E0F
:102FE0006CA77DA78EA79FA7C401B3010E94211FD4
:102FF0002CA93DA94EA95FA90E94861E68A779A7A2
:103000008AA79BA7C201B1010E94211F28A939A943
:103010004AA95BA90E94861E6CA37DA38EA39FA3D1
:103020006CA57DA58EA59FA50E9436223B014C0173
:1030300068A579A58AA59BA50E9436227B018C01F3
:103040006CA17DA18EA19FA10E9436225B016C0123
:10305000C401B301A80197010E94A61DA601950114
:103060000E94A61D0E94EC217B018C01A98DBA8DC6
:103070005D966D937D938D939C93909760E070E047
:1030800080E89FE3A80197010E94861E3B014C0146
:103090002196BFAD2197BB2349F46CAD7DAD8EADBC
:1030A0009FADA40193010E945F210AC060E070E01F
:1030B00080E89FE32CAD3DAD4EAD5FAD0E94861E16
:1030C0005B016C01C801B701A60195010E945F2157
:1030D0001B012C01E98DFA8D618B728B838B948B94
:1030E00065857685878590890E94211F7B018C01EB
:1030F000A60195010E945F210E946C1E0E94F31E92
:10310000A98DBA8DD7966D937D938D939C93DA9705
:103110002091EF063091F0064091F1065091F206B1
:1031200028A339A34AA35BA3C801B701A401930153
:103130000E945F2128A139A14AA15BA10E945F21C1
:1031400020E030E84BE355E40E94861E0E946C1E8E
:103150000E94EE1EA98DBA8D9B966D937D938D93E3
:103160009C939E976CA57DA58EA59FA5A401930118
:103170000E945F217B018C016D877E878F87988BF2
:1031800068A579A58AA59BA5A40193010E945F214A
:103190005B016C01698B7A8B8B8B9C8B6CA17DA105
:1031A0008EA19FA1A40193010E945F216C8F7D8F4E
:1031B0008E8F9F8F9091A6058091A705981709F48F
:1031C000ADC06090C0057090C1058090C205909020
:1031D000C305B301C40120E030E040E050E00E94AC
:1031E0008D2018160CF09AC06091B4057091B50549
:1031F0008091B6059091B7059058A80197010E945B
:103200005F217B018C01C601B5012091B805309189
:10321000B9054091BA055091BB050E945F219B0101
:10322000AC01C801B7010E94A51D7B018C016C8D0A
:103230007D8D8E8D9F8D2091BC053091BD05409177
:10324000BE055091BF050E945F219B01AC01C801E2
:10325000B7010E94A51D7B018C0123E333E343E703
:103260005FE30E947F1E88230CF058C0B301C401A5
:10327000A20191010E947F1E87FD04C0D201C101FD
:1032800031014D01C801B70123E333E343E75FEBAD
:103290000E948D2018160CF046C060E070E080E8B7
:1032A0009FE3A80197010E94A51D20E030E040E0C7
:1032B0005FE30E945F210E94EC215B016C0168A129
:1032C00079A18AA19BA12091F3063091F406409147
:1032D000F5065091F6060E945F21A60195010E9415
:1032E0005F217B018C0160E070E080E89FE3A60134
:1032F00095010E94A51D9B01AC01C801B7010E9468
:10330000861E0E94EC217B018C01B301C401970150
:10331000A8010E947F1E87FD06C007C0EE24FF247F
:1033200000E010E002C073018401C701D801E98DFB
:10333000FA8D818F928FA38FB48F68A179A18AA112
:103340009BA1905820E030E040E050EC0E945F21CB
:10335000A98DBA8D5D962D913D914D915C9190977F
:103360000E945F2120E030E040E050E00E94A61D76
:103370000E94EC21D62EC72EB82EA92EB701C80167
:103380002D2D3C2D4B2D5A2D0E947F1E87FD04C0F4
:10339000ED2CFC2C0B2D1A2DC701D801E98DFA8DCF
:1033A000858B968BA78BB08F61897289838994896D
:1033B0002D2D3C2D4B2D5A2D0E947F1E181634F0BA
:1033C00081E0A98DBA8D92968C9303C0E98DFA8D18
:1033D00012A281E0A98DBA8D91968C932C8D3D8D92
:1033E0004E8D5F8D2D8B3E8B4F8B588F2D968CADD8
:1033F0009DADAEADBFAD2D9789879A87AB87BC8752
:1034000029962CAD3DAD4EAD5FAD29972D833E8302
:103410004F83588725968CAD9DADAEADBFAD25973A
:1034200089839A83AB83BC83A4EBB5E0FE013D9610
:103430008CE001900D928150E1F7E98DFA8D818940
:103440009289A389B4898093C0059093C105A09304
:10345000C205B093C305FB8DF093A605A8EAB5E0BD
:10346000FE0131968CE001900D928150E1F7709051
:10347000A6058091EF069091F006A091F106B0911B
:10348000F2061C012D0157FA509457F85094CC24A1
:10349000DD2400E010E07BE3672E87C0772011F485
:1034A00062E1762E7A94C114D10409F474C0011536
:1034B000110509F470C0D6015996BC9059975A96D7
:1034C000AC905A975B969C905B975C968C905C97BF
:1034D00055966D917D918D919C9158972B2D3A2DFC
:1034E000492D582D0E947F1E882309F454C0F601EF
:1034F00082A1882309F042C0D8015596ED90FD9035
:103500000D911C9158976B2D7A2D892D982DA8011E
:1035100097010E948D2018168CF5C801B701A801EB
:1035200097010E945F217B018C01C201B10120E063
:1035300030E040E050EC0E945F21F601258D368D91
:10354000478D50A10E945F219B01AC01C801B701CA
:103550000E94A61D0E94EC21162F072FF82EE92E9F
:103560006B2D7A2D892D982D212F302F4F2D5E2DEB
:103570000E947F1E87FD02C0580147018B2D9A2DA6
:10358000A92DB82DF601858B968BA78BB08FE1E026
:10359000D6019196EC93769CC0011124860150E8E7
:1035A000C52E51E0D52EC80ED91E8091A7057816DC
:1035B00009F074CFD090A705EE24FF2420E030E07E
:1035C0004BE3C42E11C0DC9C8001112400581E4F17
:1035D000C901B701A8010E949E14D394F2E1DF163D
:1035E00009F4DD24970178018091A605D81659F7D2
:1035F000C901B70140E050E00E949E145090A70519
:10360000882499243BE3432E3FC0549C300111246D
:1036100020E831E0620E731E8114910479F1D40127
:1036200091968C91882321F4F30181A1882331F1B3
:10363000D4015196ED90FD900D911C9154975596A3
:103640006D917D918D919C915897A80197010E9451
:10365000861E5B016C01F301658976898789908DEF
:10366000A80197010E94861E8B019C01C401B6012E
:10367000A5010E941C15D40191961C925394B2E1AD
:103680005B1609F4552443018091A605581609F0EC
:10369000BCCFF401E188F2880389148965897689B1
:1036A0008789908DA80197010E94861E5B016C019D
:1036B00060E070E080E090E0A80197010E94861E23
:1036C0008B019C01C401B601A5010E941C15D40107
:1036D00091961C920E94AC0DC45BDF4F0FB6F8941C
:1036E000DEBF0FBECDBFCF91DF911F910F91FF9035
:1036F000EF90DF90CF90BF90AF909F908F907F9092
:103700006F905F904F903F902F90089520EA3FE098
:1037100004C0F9013197F1F701970097D1F70895A7
:1037200035E004C0232F2A95F1F701970097D1F7D0
:103730000895AF92BF92CF92DF92EF92FF920F93D4
:103740001F93DF93CF9300D0CDB7DEB76C015B0141
:103750007A01FB0180818601080F111DC801BE019D
:103760006F5F7F4F0E94F601F70160837183828350
:10377000938389819A818017910719F420E030E0C2
:1037800005C08C19F501808321E030E0C9010F905C
:103790000F90CF91DF911F910F91FF90EF90DF90ED
:1037A000CF90BF90AF90089584B18D7C84B9089577
:1037B0006F927F928F929F92AF92BF92CF92DF9241
:1037C000EF92FF920F931F93982EA62EB42E6701AF
:1037D00078018091E106C81AD108E108F10885B1A5
:1037E00015B8992011F09CEA01C098EAA1109061E7
:1037F000B1109064222311F088EA98270091EA061C
:1038000009278BB1902F987A8775982B9BB924E064
:10381000622E90E1792E80E4882E83B1992021F0E8
:10382000199902C006259924AA2021F01C9902C0EA
:103830000725AA24BB2021F01D9902C00825BB241E
:10384000992021F4AA2011F4BB2089F08BB1102F0C
:103850001475812B8BB98091E10690E00E94901B3A
:103860008BB118271BB9C6010E94901BD6CF1F91A0
:103870000F91FF90EF90DF90CF90BF90AF909F900F
:103880008F907F906F900895DF92EF92FF920F9349
:103890001F930E94D30DD3B081E061E040E020E0AF
:1038A000F0E9EF2EF1E0FF2E012D112D0E94D81B23
:1038B00083B18D25827390E0BC01E4E07695679535
:1038C000EA95E1F76170AC0175E0569547957A95F8
:1038D000E1F7417096958795817021E030E2E32E03
:1038E00031EAF32E37E0032F112D0E94D81B1F91D0
:1038F0000F91FF90EF90DF9008952F923F924F929B
:103900005F926F927F928F929F92AF92BF92CF926F
:10391000DF92EF92FF920F931F93DF93CF93CDB778
:10392000DEB7A0970FB6F894DEBF0FBECDBF6B0118
:103930007C0129013A01611571058105910521F488
:1039400080E30E94C40B47C08824992454011E01BF
:103950000894211C311C8101080D191DC701B601F5
:10396000A30192010E947B22F80160830894811CCC
:10397000911CA11CB11CC701B601A30192010E94B8
:103980007B22C901DA016C017D01C114D104E1047B
:10399000F10409F77101E80CF91C3E010894611C5F
:1039A000711CD501C4010197A109B1096C01C818A6
:1039B000D9080EC0F601EE0DFF1D80818A3010F48B
:1039C000805D01C0895C0E94C40B0894E108F10885
:1039D0006E147F0479F7A0960FB6F894DEBF0FBE81
:1039E000CDBFCF91DF911F910F91FF90EF90DF90AE
:1039F000CF90BF90AF909F908F907F906F905F908F
:103A00004F903F902F900895AF92BF92CF92DF9248
:103A1000EF92FF920F931F93CF93DF937B018C0163
:103A200020E030E040E050E00E947F1E88233CF41C
:103A30008DE20E94C40B17FB109517F91095C80171
:103A4000B7012FE632E143E05AE30E94A61D7B0155
:103A50008C010E94EE1E5B016C01CC24B7FCC0946B
:103A6000DC2CC601B5012AE030E040E050E00E94C5
:103A70007D1C8EE20E94C40BC601B5010E94211F6D
:103A80009B01AC01C801B7010E94A51DC3E0D0E0B5
:103A90001EC020E030E040E251E40E945F215B0163
:103AA0006C010E94EE1E7B018C01862F805D0E94BE
:103AB000C40B6E2D70E0882777FD8095982F0E94AB
:103AC000211F9B01AC01C601B5010E94A51D2197D4
:103AD0002FEFCF3FD207E9F6DF91CF911F910F91E2
:103AE000FF90EF90DF90CF90BF90AF900895EF924E
:103AF000FF920F931F937B018C0197FF0BC08DE208
:103B00000E94C40B10950095F094E094E11CF11C08
:103B1000011D111DC801B7012AE030E040E050E06E
:103B20000E947D1C1F910F91FF90EF900895CF93FD
:103B3000DF93EC0102C00E94C40BFE012196849128
:103B40008823C9F7DF91CF9108955058BB27AA2742
:103B50000ED081C241D230F046D220F031F49F3FE6
:103B600011F41EF411C20EF4E095E7FBDCC1E92F5D
:103B700094D280F3BA17620773078407950718F089
:103B800071F49EF5C3C20EF4E0950B2EBA2FA02D52
:103B90000B01B90190010C01CA01A0011124FF27FA
:103BA000591B99F0593F50F4503E68F11A16F040F5
:103BB000A22F232F342F4427585FF3CF46953795F4
:103BC0002795A795F0405395C9F77EF41F16BA0BB9
:103BD000620B730B840BBAF09150A1F0FF0FBB1F67
:103BE000661F771F881FC2F70EC0BA0F621F731FB0
:103BF000841F48F4879577956795B795F7959E3F0D
:103C000008F0B3CF9395880F08F09927EE0F97959A
:103C100087950895E1D158F080E891E009F49EEF8E
:103C2000E2D128F040E851E059F45EEF09C0ACC1A0
:103C30006DC2E92FE07831D268F3092E052AC1F36D
:103C4000261737074807590738F00E2E07F8E025E2
:103C500069F0E025E0640AC0EF6307F8009407FA12
:103C6000DB01B9019D01DC01CA01AD01EF935DD01B
:103C7000F2D10AD05F91552331F02BED3FE049E4BA
:103C800050FD49EC63CF0895DF93DD27B92FBF774F
:103C900040E85FE31616170648075B0710F4D92FB4
:103CA000A1D29F938F937F936F93E0D3E8E6F0E0E8
:103CB0006ED1D1D12F913F914F915F910CD3DD23E4
:103CC00049F09058A2EA2AED3FE049EC5FE3D07852
:103CD0005D274DDFDF91BFC102D280F09F3740F4F6
:103CE00091110EF414C260E070E080E89FE3089543
:103CF00026F01B16611D711D811D1BC135C1EFD042
:103D000008F481E0089577D1E395B6C10CD0A3C142
:103D10006AD140F061D130F021F45F3F19F003C166
:103D20005111F5C131C1B9D198F39923C9F3552384
:103D3000B1F3951B550BBB27AA276217730784079E
:103D400038F09F5F5F4F220F331F441FAA1FA9F354
:103D500033D00E2E3AF0E0E830D091505040E69546
:103D6000001CCAF729D0FE2F27D0660F771F881FA7
:103D7000BB1F261737074807AB07B0E809F0BB0B96
:103D8000802DBF01FF2793585F4F2AF09E3F5105BA
:103D900068F0C9C0BCC15F3FECF3983EDCF3869588
:103DA00077956795B795F7959F5FC9F7880F911D30
:103DB0009695879597F90895E1E0660F771F881F1C
:103DC000BB1F621773078407BA0720F0621B730BCF
:103DD000840BBA0BEE1F88F7E095089504D0689421
:103DE000B11195C1089561D188F09F5790F0B92F16
:103DF0009927B751A0F0D1F0660F771F881F991F40
:103E00001AF0BA95C9F712C0B13081F07FD1B1E094
:103E100008957CC1672F782F8827B85F39F0B93FA4
:103E2000CCF3869577956795B395D9F73EF4909541
:103E30008095709561957F4F8F4F9F4F0895E894BF
:103E400009C097FB3EF490958095709561957F4FE2
:103E50008F4F9F4F9923A9F0F92F96E9BB27939590
:103E6000F695879577956795B795F111F8CFFAF4A0
:103E7000BB0F11F460FF1BC06F5F7F4F8F4F9F4FD1
:103E800016C0882311F096E911C0772321F09EE82F
:103E9000872F762F05C0662371F096E8862F70E095
:103EA00060E02AF09A95660F771F881FDAF7880F6F
:103EB0009695879597F9089512D180F09F3740F431
:103EC00091110EF024C160E070E080E89FEB08954E
:103ED00026F41B16611D711D811D2BC045C0990F55
:103EE0000008550FAA0BE0E8FEEF16161706E807C4
:103EF000F907C0F012161306E407F50798F0621BE5
:103F0000730B840B950B39F40A2661F0232B242BB9
:103F1000252B21F408950A2609F4A140A6958FEFD8
:103F2000811D811D089597F99F6780E870E060E02A
:103F30000895882371F4772321F09850872B762FEA
:103F400007C0662311F499270DC09051862B70E0AD
:103F500060E02AF09A95660F771F881FDAF7880FBE
:103F60009695879597F908959F3F49F0915028F4C9
:103F7000869577956795B7959F5F80389F4F880F97
:103F80009695879597F908959FEF80EC0895DF93B4
:103F9000CF931F930F93FF92EF92DF927B018C01DF
:103FA000689405C0DA2EEF0196D1FE01E894A59140
:103FB0002591359145915591AEF3EF01D8DDFE0184
:103FC0009701A801DA9479F7DF90EF90FF900F91B5
:103FD0001F91CF91DF91089500240A9416161706B9
:103FE00018060906089500240A94121613061406EA
:103FF00005060895C9CF59D0E8F3E894EFEFBB2741
:104000003FE048EC5FE76B3D73078407950708F1D5
:10401000FF279F57B25A6A4D7F40894CF04032F4D7
:10402000BE556542704F8643FF4F0894EE1F915076
:1040300030F0BB0F661F771F881FFF1FEBCF9EE777
:10404000882332F0BB0F661F771F881F9A95C1F730
:104050009395E09589CF092E0394000C11F48823E1
:1040600052F0BB0F40F4BF2B11F460FF04C06F5F30
:104070007F4F8F4F9F4F0895EF93E0FF06C0A2EA56
:104080002AED3FE049EC5FEB72DDE5DF0F90039432
:1040900001FC9058E5E9F0E0FEC157FD9058440F4F
:1040A000551F59F05F3F71F04795880F97FB991F97
:1040B00061F09F3F79F08795089512161306140654
:1040C000551FF2CF4695F1DF08C0161617061806E1
:1040D000991FF1CF86957105610508940895E5DF74
:1040E000A0F0BEE7B91788F4BB279F3860F4161616
:1040F000B11D672F782F8827985FF7CF8695779522
:104100006795B11D93959639C8F30895E894BB2738
:1041100066277727CB0197F90895E1DE08F48FEF42
:1041200008955ADF19F05FDF09F02ECFFCCEB901F8
:10413000CA011ACF9F775F77B0DF98F39923B9F35D
:104140005523B9F3FF27951758F4E52FE91BED30F8
:1041500070F75E3B10F0F1E41CC09034E0F40AC04C
:10416000E92FE51BED3028F79E3B10F0F1E411C07C
:10417000503488F4F9EA88232AF09A95660F771F5D
:10418000881FDAF744232AF05A95220F331F441F61
:10419000DAF79F1B5F1BFF931F930F93FF92EF9222
:1041A00079018A01BB27AB2F9B01AC0196D0970107
:1041B000A801BF937B018C01AA27BA2FB901CA01BC
:1041C0008CD0AF919701A801EF90FF900F911F91B4
:1041D000CEDC41DF01D14F9140FF0895552747FDC7
:1041E000509509C09B01AC0160E070E080E89FE35E
:1041F0008DCD99CEB9CE59DFE8F39923D9F3940F39
:10420000511DBBF39150504094F059F0882332F087
:10421000660F771F881F91505040C1F79E3F510590
:1042200044F7880F911D9695879597F908955F3FFC
:10423000ACF0983E9CF0BB27869577956795B7952F
:1042400008F4B1609395C1F7BB0F58F711F460FF04
:10425000E8CF6F5F7F4F8F4F9F4FE3CF58CF25DF62
:1042600058F19E5758F19851A0F0E9F0983020F598
:10427000092E9927660F771F881F991F0A94D1F777
:1042800012C0062E672F782F8827985F11F4000C34
:1042900007C0993FB4F38695779567959395D9F7BD
:1042A000611D711D811D3EF49095809570956195FD
:1042B0007F4F8F4F9F4F0895689429CF27CF0BD002
:1042C000CACE8ADE28F08FDE18F0952309F02BCEB7
:1042D0005BCE11241CCFE1DEA0F3959FD1F3950FA7
:1042E00050E0551F629FF001729FBB27F00DB11D7A
:1042F000639FAA27F00DB11DAA1F649F6627B00D0A
:10430000A11D661F829F2227B00DA11D621F739FF2
:10431000B00DA11D621F839FA00D611D221F749F00
:104320003327A00D611D231F849F600D211D822F47
:10433000762F6A2F11249F5750408AF0E1F088238E
:104340004AF0EE0FFF1FBB1F661F771F881F91509B
:104350005040A9F79E3F510570F0E5CDD8CE5F3FA4
:10436000ECF3983EDCF3869577956795B795F795CE
:10437000E7959F5FC1F7FE2B880F911D9695879556
:1043800097F9089592DEE0F09E37D8F09639B8F4A8
:104390009E3848F4672F782F8827985FF9CF869545
:1043A0007795679593959539D0F3B62FB1706B0FCC
:1043B000711D811D20F48795779567959395B9CDEB
:1043C000D3CDA5CE9F9317DE0F9007FCEE5F54CEA2
:1043D00011F40EF4D9CDC8CD68DED0F39923D9F30A
:1043E000CEF39F57550B87FF4FD056959795B0E06A
:1043F00020F4660F771F881FBB1F1F930F930024A5
:104400009001A0018001F001A0E80E0F1F1F0A1EFD
:10441000511D601B710B8009B50B48F4600F711FB3
:10442000801DB51F0E1B1F0B0A0A510907C02E0F56
:104430003F1F4A1F0E0F1F1F0A1E511D660F771FB9
:10444000881FBB1FA695F795E795F8F6061717077F
:1044500008065B07211D311D411D0F911F91B901F8
:10446000842F9158880F9695879508959B01AC01EC
:1044700026CF35DE20F09F3708F449CE5ACD74CDD3
:104480002EDD880B990B089591505040660F771FD1
:10449000881FD2F708959F938F937F936F93FF9315
:1044A000EF939B01AC010BDFEF91FF9170DD2F913A
:1044B0003F914F915F9103CF629FD001739FF001B5
:1044C000829FE00DF11D649FE00DF11D929FF00DA4
:1044D000839FF00D749FF00D659FF00D9927729FDB
:1044E000B00DE11DF91F639FB00DE11DF91FBD0166
:1044F000CF0111240895A1E21A2EAA1BBB1BFD01B6
:104500000DC0AA1FBB1FEE1FFF1FA217B307E407B2
:10451000F50720F0A21BB30BE40BF50B661F771F0A
:10452000881F991F1A9469F76095709580959095EA
:104530009B01AC01BD01CF01089597FB092E052613
:104540000ED057FD04D0D7DF0AD0001C38F45095A8
:104550004095309521953F4F4F4F5F4F0895F6F7A7
:1045600090958095709561957F4F8F4F9F4F0895DF
:10457000911106C0803219F089508550D0F7089506
:104580009927882708952F923F924F925F926F92BA
:104590007F928F929F92AF92BF92CF92DF92EF92D3
:1045A000FF920F931F93CF93DF93CDB7DEB7CA1B54
:1045B000DB0B0FB6F894DEBF0FBECDBF09942A887F
:1045C000398848885F846E847D848C849B84AA8427
:1045D000B984C884DF80EE80FD800C811B81AA81B4
:1045E000B981CE0FD11D0FB6F894DEBF0FBECDBF7F
:0845F000ED010895F894FFCFDE
:00000001FF
